{
  "contractName": "delegate",
  "abi": [
    {
      "inputs": [
        {
          "internalType": "address",
          "name": "_mai",
          "type": "address"
        },
        {
          "internalType": "address",
          "name": "_vault",
          "type": "address"
        }
      ],
      "stateMutability": "nonpayable",
      "type": "constructor"
    },
    {
      "anonymous": false,
      "inputs": [
        {
          "indexed": false,
          "internalType": "address",
          "name": "",
          "type": "address"
        },
        {
          "indexed": false,
          "internalType": "uint256",
          "name": "",
          "type": "uint256"
        }
      ],
      "name": "Approval",
      "type": "event"
    },
    {
      "anonymous": false,
      "inputs": [
        {
          "indexed": true,
          "internalType": "address",
          "name": "depositor",
          "type": "address"
        },
        {
          "indexed": false,
          "internalType": "address",
          "name": "vault",
          "type": "address"
        },
        {
          "indexed": false,
          "internalType": "uint256",
          "name": "amount",
          "type": "uint256"
        }
      ],
      "name": "BorrowedToMaiFinance",
      "type": "event"
    },
    {
      "anonymous": false,
      "inputs": [
        {
          "indexed": false,
          "internalType": "address",
          "name": "",
          "type": "address"
        },
        {
          "indexed": false,
          "internalType": "address",
          "name": "",
          "type": "address"
        },
        {
          "indexed": false,
          "internalType": "string",
          "name": "",
          "type": "string"
        },
        {
          "indexed": false,
          "internalType": "uint256",
          "name": "",
          "type": "uint256"
        },
        {
          "indexed": false,
          "internalType": "uint256",
          "name": "",
          "type": "uint256"
        }
      ],
      "name": "DelegationApproved",
      "type": "event"
    },
    {
      "anonymous": false,
      "inputs": [
        {
          "indexed": false,
          "internalType": "address",
          "name": "",
          "type": "address"
        },
        {
          "indexed": false,
          "internalType": "string",
          "name": "",
          "type": "string"
        },
        {
          "indexed": false,
          "internalType": "uint256",
          "name": "",
          "type": "uint256"
        }
      ],
      "name": "NftWithdrawn",
      "type": "event"
    },
    {
      "anonymous": false,
      "inputs": [
        {
          "indexed": false,
          "internalType": "address",
          "name": "",
          "type": "address"
        },
        {
          "indexed": false,
          "internalType": "uint256",
          "name": "",
          "type": "uint256"
        }
      ],
      "name": "TokenReceived",
      "type": "event"
    },
    {
      "inputs": [
        {
          "internalType": "address",
          "name": "",
          "type": "address"
        },
        {
          "internalType": "address",
          "name": "",
          "type": "address"
        },
        {
          "internalType": "string",
          "name": "",
          "type": "string"
        },
        {
          "internalType": "uint256",
          "name": "",
          "type": "uint256"
        }
      ],
      "name": "hasBorrowed",
      "outputs": [
        {
          "internalType": "uint256",
          "name": "",
          "type": "uint256"
        }
      ],
      "stateMutability": "view",
      "type": "function"
    },
    {
      "inputs": [
        {
          "internalType": "address",
          "name": "",
          "type": "address"
        },
        {
          "internalType": "address",
          "name": "",
          "type": "address"
        },
        {
          "internalType": "string",
          "name": "",
          "type": "string"
        },
        {
          "internalType": "uint256",
          "name": "",
          "type": "uint256"
        }
      ],
      "name": "hasDelegated",
      "outputs": [
        {
          "internalType": "uint256",
          "name": "",
          "type": "uint256"
        }
      ],
      "stateMutability": "view",
      "type": "function"
    },
    {
      "inputs": [
        {
          "internalType": "address",
          "name": "",
          "type": "address"
        }
      ],
      "name": "isAdmin",
      "outputs": [
        {
          "internalType": "bool",
          "name": "",
          "type": "bool"
        }
      ],
      "stateMutability": "view",
      "type": "function"
    },
    {
      "inputs": [
        {
          "internalType": "address",
          "name": "",
          "type": "address"
        },
        {
          "internalType": "string",
          "name": "",
          "type": "string"
        },
        {
          "internalType": "uint256",
          "name": "",
          "type": "uint256"
        }
      ],
      "name": "isOwner",
      "outputs": [
        {
          "internalType": "uint256",
          "name": "",
          "type": "uint256"
        }
      ],
      "stateMutability": "view",
      "type": "function"
    },
    {
      "inputs": [],
      "name": "mai",
      "outputs": [
        {
          "internalType": "contract ERC20",
          "name": "",
          "type": "address"
        }
      ],
      "stateMutability": "view",
      "type": "function"
    },
    {
      "inputs": [
        {
          "internalType": "string",
          "name": "",
          "type": "string"
        }
      ],
      "name": "vaultAddress",
      "outputs": [
        {
          "internalType": "address",
          "name": "",
          "type": "address"
        }
      ],
      "stateMutability": "view",
      "type": "function"
    },
    {
      "inputs": [
        {
          "internalType": "string",
          "name": "",
          "type": "string"
        },
        {
          "internalType": "uint256",
          "name": "",
          "type": "uint256"
        }
      ],
      "name": "vaultDebt",
      "outputs": [
        {
          "internalType": "uint256",
          "name": "",
          "type": "uint256"
        }
      ],
      "stateMutability": "view",
      "type": "function"
    },
    {
      "inputs": [
        {
          "internalType": "address",
          "name": "operator",
          "type": "address"
        },
        {
          "internalType": "address",
          "name": "from",
          "type": "address"
        },
        {
          "internalType": "uint256",
          "name": "tokenId",
          "type": "uint256"
        },
        {
          "internalType": "bytes",
          "name": "data",
          "type": "bytes"
        }
      ],
      "name": "onERC721Received",
      "outputs": [
        {
          "internalType": "bytes4",
          "name": "",
          "type": "bytes4"
        }
      ],
      "stateMutability": "nonpayable",
      "type": "function"
    },
    {
      "inputs": [
        {
          "internalType": "uint256",
          "name": "_erc721_Id",
          "type": "uint256"
        },
        {
          "internalType": "string",
          "name": "_vault",
          "type": "string"
        }
      ],
      "name": "depositErc721",
      "outputs": [],
      "stateMutability": "nonpayable",
      "type": "function"
    },
    {
      "inputs": [
        {
          "internalType": "address",
          "name": "_owner",
          "type": "address"
        },
        {
          "internalType": "address",
          "name": "_borrower",
          "type": "address"
        },
        {
          "internalType": "string",
          "name": "_vault",
          "type": "string"
        },
        {
          "internalType": "uint256",
          "name": "_erc721_Id",
          "type": "uint256"
        },
        {
          "internalType": "uint256",
          "name": "_amount",
          "type": "uint256"
        }
      ],
      "name": "approveDelegation",
      "outputs": [],
      "stateMutability": "nonpayable",
      "type": "function"
    },
    {
      "inputs": [
        {
          "internalType": "address",
          "name": "_owner",
          "type": "address"
        },
        {
          "internalType": "address",
          "name": "_borrower",
          "type": "address"
        },
        {
          "internalType": "string",
          "name": "_vault",
          "type": "string"
        },
        {
          "internalType": "uint256",
          "name": "_erc721_Id",
          "type": "uint256"
        }
      ],
      "name": "userBorrowMai",
      "outputs": [],
      "stateMutability": "nonpayable",
      "type": "function"
    },
    {
      "inputs": [
        {
          "internalType": "uint256",
          "name": "_amount",
          "type": "uint256"
        },
        {
          "internalType": "address",
          "name": "_owner",
          "type": "address"
        },
        {
          "internalType": "address",
          "name": "_borrower",
          "type": "address"
        },
        {
          "internalType": "string",
          "name": "_vault",
          "type": "string"
        },
        {
          "internalType": "uint256",
          "name": "_erc721_Id",
          "type": "uint256"
        }
      ],
      "name": "repayLoan",
      "outputs": [],
      "stateMutability": "nonpayable",
      "type": "function"
    },
    {
      "inputs": [
        {
          "internalType": "string",
          "name": "_vault",
          "type": "string"
        },
        {
          "internalType": "uint256",
          "name": "_erc721_Id",
          "type": "uint256"
        }
      ],
      "name": "withdraw_NFT",
      "outputs": [],
      "stateMutability": "nonpayable",
      "type": "function"
    },
    {
      "inputs": [
        {
          "internalType": "string",
          "name": "_name",
          "type": "string"
        },
        {
          "internalType": "address",
          "name": "_vaultAddress",
          "type": "address"
        }
      ],
      "name": "addVault",
      "outputs": [],
      "stateMutability": "nonpayable",
      "type": "function"
    },
    {
      "inputs": [
        {
          "internalType": "address",
          "name": "_address",
          "type": "address"
        }
      ],
      "name": "addAdmin",
      "outputs": [],
      "stateMutability": "nonpayable",
      "type": "function"
    },
    {
      "inputs": [
        {
          "internalType": "address",
          "name": "_address",
          "type": "address"
        }
      ],
      "name": "getAdmin",
      "outputs": [
        {
          "internalType": "bool",
          "name": "",
          "type": "bool"
        }
      ],
      "stateMutability": "view",
      "type": "function"
    },
    {
      "inputs": [
        {
          "internalType": "address",
          "name": "_owner",
          "type": "address"
        },
        {
          "internalType": "string",
          "name": "_vault",
          "type": "string"
        },
        {
          "internalType": "uint256",
          "name": "_erc721_Id",
          "type": "uint256"
        }
      ],
      "name": "getAmountBorrowed",
      "outputs": [
        {
          "internalType": "uint256",
          "name": "",
          "type": "uint256"
        }
      ],
      "stateMutability": "view",
      "type": "function"
    },
    {
      "inputs": [
        {
          "internalType": "address",
          "name": "_borrower",
          "type": "address"
        },
        {
          "internalType": "string",
          "name": "_vault",
          "type": "string"
        },
        {
          "internalType": "uint256",
          "name": "_erc721_Id",
          "type": "uint256"
        }
      ],
      "name": "getAmountDelegated",
      "outputs": [
        {
          "internalType": "uint256",
          "name": "",
          "type": "uint256"
        }
      ],
      "stateMutability": "view",
      "type": "function"
    },
    {
      "inputs": [
        {
          "internalType": "string",
          "name": "_vault",
          "type": "string"
        }
      ],
      "name": "getNftByOwner",
      "outputs": [
        {
          "internalType": "uint256[]",
          "name": "",
          "type": "uint256[]"
        }
      ],
      "stateMutability": "view",
      "type": "function"
    }
  ],
  "bytecode": "0x60806040523480156200001157600080fd5b5060405162001d1c38038062001d1c8339810160408190526200003491620000e6565b80600360405162000068907f7465737400000000000000000000000000000000000000000000000000000000815260040190565b90815260408051602092819003830190208054600160a060020a0319908116600160a060020a0395861617909155600680549091169590931694909417909155336000908152600590915291909120805460ff19166001179055506200011e565b8051600160a060020a0381168114620000e157600080fd5b919050565b60008060408385031215620000fa57600080fd5b6200010583620000c9565b91506200011560208401620000c9565b90509250929050565b611bee806200012e6000396000f3fe608060405234801561001057600080fd5b50600436106101255760003560e060020a9004806388221842116100b1578063afc9642711610075578063afc96427146103a6578063d30ed3fc146103c6578063e0f75d5d146103d9578063f9affc1a146103ec578063fb5564ae146103ff57600080fd5b806388221842146102ee5780638e9b02701461032257806398b473a414610335578063a7ddca7214610348578063ab1786d11461035b57600080fd5b8063570b2b84116100f8578063570b2b841461022657806364efb22b1461025157806365df1d4a1461027d57806370480275146102c85780637b45ebcf146102db57600080fd5b806304813b6a1461012a578063150b7a021461013f57806324d7806c146101aa5780635514e35b146101dd575b600080fd5b61013d610138366004611669565b610412565b005b61017761014d3660046116dd565b7f150b7a020000000000000000000000000000000000000000000000000000000095945050505050565b6040517bffffffffffffffffffffffffffffffffffffffffffffffffffffffff1990911681526020015b60405180910390f35b6101cd6101b836600461177c565b60056020526000908152604090205460ff1681565b60405190151581526020016101a1565b6102186101eb3660046117a0565b81516020818401810180516004825292820194820194909420919093529091526000908152604090205481565b6040519081526020016101a1565b60065461023990600160a060020a031681565b604051600160a060020a0390911681526020016101a1565b6101cd61025f36600461177c565b600160a060020a031660009081526005602052604090205460ff1690565b61021861028b3660046117e5565b6002602090815260009485526040808620825293855283852083518085018301805192815290830194830194909420935291909152825290205481565b61013d6102d636600461177c565b610730565b61013d6102e93660046117e5565b6107b6565b6102396102fc36600461184f565b8051602081830181018051600382529282019190930120915254600160a060020a031681565b61013d61033036600461188c565b610a23565b610218610343366004611900565b610e2f565b61013d610356366004611959565b610e89565b6102186103693660046117e5565b6001602090815260009485526040808620825293855283852083518085018301805192815290830194830194909420935291909152825290205481565b6103b96103b436600461184f565b610f3c565b6040516101a191906119ab565b61013d6103d43660046117a0565b610fbc565b6102186103e7366004611900565b6111e7565b61013d6103fa3660046119ef565b611233565b61021861040d366004611900565b61157a565b60006003836040516104249190611a5a565b90815260408051918290036020908101832054600160a060020a038981166000908152600284528481208a8316825290935292909120911692509061046a908590611a5a565b90815260408051602092819003830190206000858152925290205461049787670de0b6b3a7640000611a8f565b146105125760405160e560020a62461bcd02815260206004820152602560248201527f596f75206d7573742072657061792074686520616d6f756e74206f662074686560448201527f206c6f616e00000000000000000000000000000000000000000000000000000060648201526084015b60405180910390fd5b600654604051600160a060020a0390911690633950935190600390610538908790611a5a565b90815260405190819003602001902054600160a060020a031661056389670de0b6b3a7640000611a8f565b6040518363ffffffff1660e060020a028152600401610583929190611aac565b6020604051808303816000875af11580156105a2573d6000803e3d6000fd5b505050506040513d601f19601f820116820180604052508101906105c69190611ac5565b50600654600160a060020a03166323b872dd33306105ec8a670de0b6b3a7640000611a8f565b6040518463ffffffff1660e060020a02815260040161060d93929190611ae7565b6020604051808303816000875af115801561062c573d6000803e3d6000fd5b505050506040513d601f19601f820116820180604052508101906106509190611ac5565b506040517fcf5f0f3c0000000000000000000000000000000000000000000000000000000081526004810183905242602482015260006044820152600160a060020a0382169063cf5f0f3c90606401600060405180830381600087803b1580156106b957600080fd5b505af11580156106cd573d6000803e3d6000fd5b5050505085670de0b6b3a76400006106e59190611a8f565b6004846040516106f59190611a5a565b9081526020016040518091039020600084815260200190815260200160002060008282546107239190611b0b565b9091555050505050505050565b3360009081526005602052604090205460ff166107925760405160e560020a62461bcd02815260206004820152601460248201527f596f7520617265206e6f7420616e2061646d696e0000000000000000000000006044820152606401610509565b600160a060020a03166000908152600560205260409020805460ff19166001179055565b33600160a060020a038416146108115760405160e560020a62461bcd02815260206004820152601860248201527f596f75206d7573742062652074686520626f72726f77657200000000000000006044820152606401610509565b600160a060020a03808516600090815260016020908152604080832093871683529290528181209151909190610848908590611a5a565b908152604080516020928190038301812060008681529352908220549250600390610874908690611a5a565b908152604051908190036020018120547f97a41b8e000000000000000000000000000000000000000000000000000000008252600482018590526024820184905260006044830152600160a060020a0316915081906397a41b8e90606401600060405180830381600087803b1580156108ec57600080fd5b505af1158015610900573d6000803e3d6000fd5b50506006546040517fa9059cbb000000000000000000000000000000000000000000000000000000008152600160a060020a03909116925063a9059cbb915061094f9033908690600401611aac565b6020604051808303816000875af115801561096e573d6000803e3d6000fd5b505050506040513d601f19601f820116820180604052508101906109929190611ac5565b50600160a060020a038087166000908152600260209081526040808320938916835292905281902090518391906109ca908790611a5a565b90815260408051918290036020908101832060008881529152209190915582906004906109f8908790611a5a565b9081526020016040518091039020600085815260200190815260200160002081905550505050505050565b600033600160a060020a03871614610aa65760405160e560020a62461bcd02815260206004820152602260248201527f596f75206d75737420626520746865206f776e6572206f66207468652076617560448201527f6c740000000000000000000000000000000000000000000000000000000000006064820152608401610509565b60008211610af95760405160e560020a62461bcd02815260206004820152601d60248201527f596f75206d7573742064656c6567617465206d6f7265207468616e20300000006044820152606401610509565b85600160a060020a031685600160a060020a031603610b835760405160e560020a62461bcd02815260206004820152602660248201527f596f752063616e27742064656c656761746520746f207468652073616d65206160448201527f64647265737300000000000000000000000000000000000000000000000000006064820152608401610509565b600160a060020a038516610c025760405160e560020a62461bcd02815260206004820152603160248201527f596f752063616e27742064656c656761746520746f206164726573732830292060448201527f28307830303030303030303030303030290000000000000000000000000000006064820152608401610509565b60005b600160008089600160a060020a0316600160a060020a0316815260200190815260200160002086604051610c399190611a5a565b90815260405190819003602001902054610c539190611b0b565b8111610ccb57600160a060020a038716600090815260208190526040908190209051610c80908790611a5a565b90815260200160405180910390208181548110610c9f57610c9f611b1e565b90600052602060002001548403610cb95760019150610ccb565b80610cc381611b37565b915050610c05565b50801515600003610d475760405160e560020a62461bcd02815260206004820152602260248201527f596f75206d757374206f776e20746865207661756c7420746f2064656c65676160448201527f74650000000000000000000000000000000000000000000000000000000000006064820152608401610509565b610d5982670de0b6b3a7640000611a8f565b600160a060020a038088166000908152600160209081526040808320938a1683529290528190209051610d8d908790611a5a565b908152604080519182900360209081018320600088815291522091909155600160a060020a038716907ff246cb6f95a7c3bfda1a3e85094fba64ccec23277661166f09e2bb3b8fdc6bef90600390610de6908890611a5a565b90815260405190819003602001902054600160a060020a0316610e1185670de0b6b3a7640000611a8f565b604051610e1f929190611aac565b60405180910390a2505050505050565b336000908152600160209081526040808320600160a060020a03871684529091528082209051610e60908590611a5a565b908152602001604051809103902060008381526020019081526020016000205490509392505050565b3360009081526005602052604090205460ff16610eeb5760405160e560020a62461bcd02815260206004820152601460248201527f596f7520617265206e6f7420616e2061646d696e0000000000000000000000006044820152606401610509565b80600383604051610efc9190611a5a565b9081526040519081900360200190208054600160a060020a039290921673ffffffffffffffffffffffffffffffffffffffff199092169190911790555050565b3360009081526020819052604090819020905160609190610f5e908490611a5a565b9081526040805191829003602090810183208054808302850183019093528284529190830182828015610fb057602002820191906000526020600020905b815481526020019060010190808311610f9c575b50505050509050919050565b600482604051610fcc9190611a5a565b9081526040805160209281900383019020600084815292529020541561105d5760405160e560020a62461bcd02815260206004820152603060248201527f546865206c6f616e206d757374206265207265706179206265666f726520776960448201527f7468726177696e6720746865206e6674000000000000000000000000000000006064820152608401610509565b6000805b3360009081526020819052604090819020905160019190611083908790611a5a565b9081526040519081900360200190205461109d9190611b0b565b81101561110f57336000908152602081905260409081902090518491906110c5908790611a5a565b908152602001604051809103902082815481106110e4576110e4611b1e565b9060005260206000200154036110fd576001915061110f565b8061110781611b37565b915050611061565b506003836040516111209190611a5a565b908152604051908190036020018120547f42842e0e000000000000000000000000000000000000000000000000000000008252600160a060020a0316906342842e0e9061117590309033908790600401611ae7565b600060405180830381600087803b15801561118f57600080fd5b505af11580156111a3573d6000803e3d6000fd5b505050507fe69b73faa6b60e6842aaa2a4f58ad817b470058a36be3794d11fd5e1a43b6f9d3384846040516111da93929190611b50565b60405180910390a1505050565b60006020818152848252604090912083518085018301805192815290830192850192909220915280548290811061121d57600080fd5b9060005260206000200160009250925050505481565b60006003826040516112459190611a5a565b908152604051908190036020018120547f6352211e000000000000000000000000000000000000000000000000000000008252600160a060020a031690636352211e9061129a90869060040190815260200190565b602060405180830381865afa1580156112b7573d6000803e3d6000fd5b505050506040513d601f19601f820116820180604052508101906112db9190611b9b565b9050600160a060020a038116331461135e5760405160e560020a62461bcd02815260206004820152602260248201527f796f7520617265206e6f7420746865206f776e6572206f66207468652076617560448201527f6c740000000000000000000000000000000000000000000000000000000000006064820152608401610509565b60038260405161136e9190611a5a565b908152604051908190036020018120547f42842e0e000000000000000000000000000000000000000000000000000000008252600160a060020a0316906342842e0e906113c390849030908890600401611ae7565b600060405180830381600087803b1580156113dd57600080fd5b505af11580156113f1573d6000803e3d6000fd5b5050505060006003836040516114079190611a5a565b908152604051908190036020018120547f6352211e000000000000000000000000000000000000000000000000000000008252600160a060020a031690636352211e9061145c90879060040190815260200190565b602060405180830381865afa158015611479573d6000803e3d6000fd5b505050506040513d601f19601f8201168201806040525081019061149d9190611b9b565b9050600160a060020a03811630146114fa5760405160e560020a62461bcd02815260206004820152601660248201527f4572726f72206e6674206e6f74207265636569766564000000000000000000006044820152606401610509565b33600090815260208190526040908190209051611518908590611a5a565b908152604051908190036020908101822080546001810182556000918252919020018590557f47998b4998056cd0448b356cfcb8cb0eb18fa00844e43e71947e22fcb6fd43ef9061156c9033908790611aac565b60405180910390a150505050565b600160a060020a03831660009081526002602090815260408083203384529091528082209051610e60908590611a5a565b600160a060020a03811681146115c057600080fd5b50565b60e060020a634e487b7102600052604160045260246000fd5b600082601f8301126115ed57600080fd5b813567ffffffffffffffff80821115611608576116086115c3565b604051601f8301601f19908116603f01168101908282118183101715611630576116306115c3565b8160405283815286602085880101111561164957600080fd5b836020870160208301376000602085830101528094505050505092915050565b600080600080600060a0868803121561168157600080fd5b853594506020860135611693816115ab565b935060408601356116a3816115ab565b9250606086013567ffffffffffffffff8111156116bf57600080fd5b6116cb888289016115dc565b95989497509295608001359392505050565b6000806000806000608086880312156116f557600080fd5b8535611700816115ab565b94506020860135611710816115ab565b935060408601359250606086013567ffffffffffffffff8082111561173457600080fd5b818801915088601f83011261174857600080fd5b81358181111561175757600080fd5b89602082850101111561176957600080fd5b9699959850939650602001949392505050565b60006020828403121561178e57600080fd5b8135611799816115ab565b9392505050565b600080604083850312156117b357600080fd5b823567ffffffffffffffff8111156117ca57600080fd5b6117d6858286016115dc565b95602094909401359450505050565b600080600080608085870312156117fb57600080fd5b8435611806816115ab565b93506020850135611816816115ab565b9250604085013567ffffffffffffffff81111561183257600080fd5b61183e878288016115dc565b949793965093946060013593505050565b60006020828403121561186157600080fd5b813567ffffffffffffffff81111561187857600080fd5b611884848285016115dc565b949350505050565b600080600080600060a086880312156118a457600080fd5b85356118af816115ab565b945060208601356118bf816115ab565b9350604086013567ffffffffffffffff8111156118db57600080fd5b6118e7888289016115dc565b9598949750949560608101359550608001359392505050565b60008060006060848603121561191557600080fd5b8335611920816115ab565b9250602084013567ffffffffffffffff81111561193c57600080fd5b611948868287016115dc565b925050604084013590509250925092565b6000806040838503121561196c57600080fd5b823567ffffffffffffffff81111561198357600080fd5b61198f858286016115dc565b92505060208301356119a0816115ab565b809150509250929050565b6020808252825182820181905260009190848201906040850190845b818110156119e3578351835292840192918401916001016119c7565b50909695505050505050565b60008060408385031215611a0257600080fd5b82359150602083013567ffffffffffffffff811115611a2057600080fd5b611a2c858286016115dc565b9150509250929050565b60005b83811015611a51578181015183820152602001611a39565b50506000910152565b60008251611a6c818460208701611a36565b9190910192915050565b60e060020a634e487b7102600052601160045260246000fd5b8082028115828204841417611aa657611aa6611a76565b92915050565b600160a060020a03929092168252602082015260400190565b600060208284031215611ad757600080fd5b8151801515811461179957600080fd5b600160a060020a039384168152919092166020820152604081019190915260600190565b81810381811115611aa657611aa6611a76565b60e060020a634e487b7102600052603260045260246000fd5b600060018201611b4957611b49611a76565b5060010190565b600160a060020a03841681526060602082015260008351806060840152611b7e816080850160208801611a36565b604083019390935250601f91909101601f19160160800192915050565b600060208284031215611bad57600080fd5b8151611799816115ab56fea2646970667358221220fd4bdc04993abbc783f56ab77bfe652d62ac3a759dee6a6361d7b75dde5e63b464736f6c63430008110033",
  "immutableReferences": {},
  "source": "pragma solidity ^0.8.17; // regarder la version sur les contracts de qidao 0.5.5 demander  Nandy quel est le mieux \n\n/*import \"@openzeppelin/contracts/token/ERC721/IERC721Receiver.sol\";\nimport \"@openzeppelin/contracts/token/ERC721/IERC721.sol\";\nimport \"@openzeppelin/contracts/token/ERC20/ERC20.sol\";*/\n\n\nimport \"./stableQiVault.sol\";\n\ncontract delegate{\n\n\n\n    mapping(address=>mapping(string=>uint256[])) public isOwner; // mapping  la place du uint256\n\n    // owner => borrower => vaultName => tokenId => amount delegated\n    mapping(address=>mapping(address=>mapping(string=>mapping(uint256=>uint256)))) public hasDelegated;\n\n    mapping(address=>mapping(address=>mapping(string=>mapping(uint256=>uint256)))) public hasBorrowed;\n\n    mapping(string => address) public vaultAddress;\n\n    mapping(string => mapping(uint256 => uint256)) public vaultDebt ;\n\n    mapping(address=>bool) public isAdmin;\n\n    event TokenReceived(address, uint256);\n\n    event DelegationApproved(address, address, string, uint256, uint256);\n\n    event BorrowedToMaiFinance(address indexed depositor, address vault, uint256 amount);\n\n    event NftWithdrawn(address, string, uint256);\n\n    event Approval(address, uint256);\n\n    ERC20 public mai;\n\n\n    constructor(address _mai, address _vault) {\n    \n        vaultAddress[\"test\"] = address(_vault);\n        mai = ERC20(_mai);\n        isAdmin[msg.sender] = true;\n    }\n\n    function onERC721Received( address operator, address from, uint256 tokenId, bytes calldata data ) public returns (bytes4) {\n            return this.onERC721Received.selector;\n    }\n    // Depositor need to approve the address of the contract by calling approve to deposit ERC721\n\n    function depositErc721(uint256 _erc721_Id, string memory _vault) public {\n\n        address owner = IERC721(vaultAddress[_vault]).ownerOf(_erc721_Id);\n        if(owner!=msg.sender)\n            revert(\"you are not the owner of the vault\");\n\n        IERC721(vaultAddress[_vault]).safeTransferFrom(owner, address(this),_erc721_Id);\n    \n        address newOwner = IERC721(vaultAddress[_vault]).ownerOf(_erc721_Id);\n        if(newOwner!=address(this))\n            revert(\"Error nft not received\");\n        isOwner[msg.sender][_vault].push(_erc721_Id);\n\n        emit TokenReceived(msg.sender, _erc721_Id);\n    }\n\n    // for mai finance, the contract borrow, so It keep rtack of the contrcat address\n    function approveDelegation(address _owner, address _borrower, string memory _vault, uint256 _erc721_Id, uint256 _amount) public{\n        bool ownVault = false;\n\n        if(msg.sender!=_owner)\n            revert(\"You must be the owner of the vault\");\n        if(_amount<=0)\n            revert(\"You must delegate more than 0\");\n        if(_borrower==_owner)\n            revert(\"You can't delegate to the same address\");\n        if(_borrower==address(0))\n            revert(\"You can't delegate to adress(0) (0x0000000000000)\");\n        for (uint i = 0; i <= isOwner[_owner][_vault].length - 1; i++) {\n\n            if (_erc721_Id == isOwner[_owner][_vault][i]) {\n                ownVault = true;\n                break;\n            }\n        }\n        if(ownVault==false)\n            revert(\"You must own the vault to delegate\");\n        hasDelegated[_owner][_borrower][_vault][_erc721_Id] = _amount*(10**18);\n        emit BorrowedToMaiFinance(_owner, vaultAddress[_vault], _amount*(10**18));\n    }\n\n    \n    function userBorrowMai(address _owner, address _borrower, string memory _vault, uint256 _erc721_Id) public{\n        if(msg.sender != _borrower)\n            revert(\"You must be the borrower\");\n        uint _amount = hasDelegated[_owner][_borrower][_vault][_erc721_Id];\n        stableQiVault _qiVault = stableQiVault(vaultAddress[_vault]);\n        _qiVault.borrowToken(_erc721_Id, _amount, 0);\n        mai.transfer(msg.sender,_amount);\n        hasBorrowed[_owner][_borrower][_vault][_erc721_Id] = _amount;\n        vaultDebt[_vault][_erc721_Id] = _amount;\n    }\n\n\n    // the _borrower must add allowance to the contract\n    // PROBLEME EN APPEANT PAYBACK CAR PAS D ALLOWANCE POUR LE SAFETRANSFER\n    function repayLoan(uint256 _amount, address _owner, address _borrower, string memory _vault, uint256 _erc721_Id) public {\n        stableQiVault _qiVault = stableQiVault(vaultAddress[_vault]);\n        if(_amount*10 ** 18!=hasBorrowed[_owner][_borrower][_vault][_erc721_Id])\n            revert(\"You must repay the amount of the loan\");\n\n         // increase allowance to the vault contract for the repay function\n        mai.increaseAllowance(vaultAddress[_vault], _amount*(10**18));\n        mai.transferFrom(msg.sender, address(this), _amount*(10**18));\n        _qiVault.paybackTokenAll(_erc721_Id, block.timestamp, 0);\n        vaultDebt[_vault][_erc721_Id] -= _amount * (10 ** 18);\n    }\n\n   \n    function withdraw_NFT(string memory _vault, uint256 _erc721_Id) public {\n        if(vaultDebt[_vault][_erc721_Id] != 0)\n            revert(\"The loan must be repay before withrawing the nft\");\n        bool owner = false;\n         for (uint i = 0; i < isOwner[msg.sender][_vault].length - 1; i++) {\n            if(isOwner[msg.sender][_vault][i] == _erc721_Id) {\n                owner = true;\n                break;\n            }\n        }\n        IERC721(vaultAddress[_vault]).safeTransferFrom(address(this), msg.sender, _erc721_Id);\n        emit NftWithdrawn(msg.sender, _vault,_erc721_Id);\n    }\n\n    modifier admin{\n        require(isAdmin[msg.sender],\"You are not an admin\");\n        _;\n    }\n\n    function addVault(string memory _name, address _vaultAddress) public admin{\n        vaultAddress[_name] = _vaultAddress;\n    }\n\n    function addAdmin(address _address) public admin{\n        isAdmin[_address] = true;\n    }\n\n    function getAdmin(address _address) public view returns(bool) {\n        return isAdmin[_address];\n    }\n\n    function getAmountBorrowed(address _owner, string memory _vault, uint256 _erc721_Id) public view returns(uint){\n        return hasBorrowed[_owner][msg.sender][_vault][_erc721_Id];\n    }\n\n    function getAmountDelegated(address _borrower, string memory _vault, uint256 _erc721_Id) public view returns(uint256){\n        return hasDelegated[msg.sender][_borrower][_vault][_erc721_Id];\n    }\n\n     function getNftByOwner(string memory _vault) public view returns(uint256[] memory) {\n        return isOwner[msg.sender][_vault];\n    }\n    \n\n}",
  "sourcePath": "/home/lejamon/Documents/GitHub/KS-PI2/mai-finance/contracts/delegate.sol",
  "compiler": {
    "name": "solc",
    "version": "0.8.17+commit.8df45f5f.Emscripten.clang"
  },
  "schemaVersion": "3.4.10",
  "updatedAt": "2023-01-30T23:06:25.196Z",
  "devdoc": {
    "kind": "dev",
    "methods": {},
    "version": 1
  },
  "userdoc": {
    "kind": "user",
    "methods": {},
    "version": 1
  }
}