{
  "contractName": "delegate",
  "abi": [
    {
      "inputs": [
        {
          "internalType": "address",
          "name": "_mai",
          "type": "address"
        },
        {
          "internalType": "address",
          "name": "_vault",
          "type": "address"
        }
      ],
      "stateMutability": "nonpayable",
      "type": "constructor"
    },
    {
      "anonymous": false,
      "inputs": [
        {
          "indexed": false,
          "internalType": "address",
          "name": "",
          "type": "address"
        },
        {
          "indexed": false,
          "internalType": "uint256",
          "name": "",
          "type": "uint256"
        }
      ],
      "name": "Approval",
      "type": "event"
    },
    {
      "anonymous": false,
      "inputs": [
        {
          "indexed": true,
          "internalType": "address",
          "name": "depositor",
          "type": "address"
        },
        {
          "indexed": false,
          "internalType": "address",
          "name": "vault",
          "type": "address"
        },
        {
          "indexed": false,
          "internalType": "uint256",
          "name": "amount",
          "type": "uint256"
        }
      ],
      "name": "BorrowedToMaiFinance",
      "type": "event"
    },
    {
      "anonymous": false,
      "inputs": [
        {
          "indexed": false,
          "internalType": "address",
          "name": "",
          "type": "address"
        },
        {
          "indexed": false,
          "internalType": "address",
          "name": "",
          "type": "address"
        },
        {
          "indexed": false,
          "internalType": "string",
          "name": "",
          "type": "string"
        },
        {
          "indexed": false,
          "internalType": "uint256",
          "name": "",
          "type": "uint256"
        },
        {
          "indexed": false,
          "internalType": "uint256",
          "name": "",
          "type": "uint256"
        }
      ],
      "name": "DelegationApproved",
      "type": "event"
    },
    {
      "anonymous": false,
      "inputs": [
        {
          "indexed": false,
          "internalType": "address",
          "name": "",
          "type": "address"
        },
        {
          "indexed": false,
          "internalType": "string",
          "name": "",
          "type": "string"
        },
        {
          "indexed": false,
          "internalType": "uint256",
          "name": "",
          "type": "uint256"
        }
      ],
      "name": "NftWithdrawn",
      "type": "event"
    },
    {
      "anonymous": false,
      "inputs": [
        {
          "indexed": false,
          "internalType": "address",
          "name": "",
          "type": "address"
        },
        {
          "indexed": false,
          "internalType": "uint256",
          "name": "",
          "type": "uint256"
        }
      ],
      "name": "TokenReceived",
      "type": "event"
    },
    {
      "inputs": [
        {
          "internalType": "address",
          "name": "",
          "type": "address"
        },
        {
          "internalType": "address",
          "name": "",
          "type": "address"
        },
        {
          "internalType": "string",
          "name": "",
          "type": "string"
        },
        {
          "internalType": "uint256",
          "name": "",
          "type": "uint256"
        }
      ],
      "name": "hasBorrowed",
      "outputs": [
        {
          "internalType": "uint256",
          "name": "",
          "type": "uint256"
        }
      ],
      "stateMutability": "view",
      "type": "function",
      "constant": true
    },
    {
      "inputs": [
        {
          "internalType": "address",
          "name": "",
          "type": "address"
        },
        {
          "internalType": "address",
          "name": "",
          "type": "address"
        },
        {
          "internalType": "string",
          "name": "",
          "type": "string"
        },
        {
          "internalType": "uint256",
          "name": "",
          "type": "uint256"
        }
      ],
      "name": "hasDelegated",
      "outputs": [
        {
          "internalType": "uint256",
          "name": "",
          "type": "uint256"
        }
      ],
      "stateMutability": "view",
      "type": "function",
      "constant": true
    },
    {
      "inputs": [
        {
          "internalType": "address",
          "name": "",
          "type": "address"
        }
      ],
      "name": "isAdmin",
      "outputs": [
        {
          "internalType": "bool",
          "name": "",
          "type": "bool"
        }
      ],
      "stateMutability": "view",
      "type": "function",
      "constant": true
    },
    {
      "inputs": [
        {
          "internalType": "address",
          "name": "",
          "type": "address"
        },
        {
          "internalType": "string",
          "name": "",
          "type": "string"
        },
        {
          "internalType": "uint256",
          "name": "",
          "type": "uint256"
        }
      ],
      "name": "isOwner",
      "outputs": [
        {
          "internalType": "uint256",
          "name": "",
          "type": "uint256"
        }
      ],
      "stateMutability": "view",
      "type": "function",
      "constant": true
    },
    {
      "inputs": [],
      "name": "mai",
      "outputs": [
        {
          "internalType": "contract ERC20",
          "name": "",
          "type": "address"
        }
      ],
      "stateMutability": "view",
      "type": "function",
      "constant": true
    },
    {
      "inputs": [
        {
          "internalType": "string",
          "name": "",
          "type": "string"
        }
      ],
      "name": "vaultAddress",
      "outputs": [
        {
          "internalType": "address",
          "name": "",
          "type": "address"
        }
      ],
      "stateMutability": "view",
      "type": "function",
      "constant": true
    },
    {
      "inputs": [
        {
          "internalType": "string",
          "name": "",
          "type": "string"
        },
        {
          "internalType": "uint256",
          "name": "",
          "type": "uint256"
        }
      ],
      "name": "vaultDebt",
      "outputs": [
        {
          "internalType": "uint256",
          "name": "",
          "type": "uint256"
        }
      ],
      "stateMutability": "view",
      "type": "function",
      "constant": true
    },
    {
      "inputs": [
        {
          "internalType": "address",
          "name": "operator",
          "type": "address"
        },
        {
          "internalType": "address",
          "name": "from",
          "type": "address"
        },
        {
          "internalType": "uint256",
          "name": "tokenId",
          "type": "uint256"
        },
        {
          "internalType": "bytes",
          "name": "data",
          "type": "bytes"
        }
      ],
      "name": "onERC721Received",
      "outputs": [
        {
          "internalType": "bytes4",
          "name": "",
          "type": "bytes4"
        }
      ],
      "stateMutability": "nonpayable",
      "type": "function"
    },
    {
      "inputs": [
        {
          "internalType": "uint256",
          "name": "_erc721_Id",
          "type": "uint256"
        },
        {
          "internalType": "string",
          "name": "_vault",
          "type": "string"
        }
      ],
      "name": "depositErc721",
      "outputs": [],
      "stateMutability": "nonpayable",
      "type": "function"
    },
    {
      "inputs": [
        {
          "internalType": "address",
          "name": "_owner",
          "type": "address"
        },
        {
          "internalType": "address",
          "name": "_borrower",
          "type": "address"
        },
        {
          "internalType": "string",
          "name": "_vault",
          "type": "string"
        },
        {
          "internalType": "uint256",
          "name": "_erc721_Id",
          "type": "uint256"
        },
        {
          "internalType": "uint256",
          "name": "_amount",
          "type": "uint256"
        }
      ],
      "name": "approveDelegation",
      "outputs": [],
      "stateMutability": "nonpayable",
      "type": "function"
    },
    {
      "inputs": [
        {
          "internalType": "address",
          "name": "_owner",
          "type": "address"
        },
        {
          "internalType": "address",
          "name": "_borrower",
          "type": "address"
        },
        {
          "internalType": "string",
          "name": "_vault",
          "type": "string"
        },
        {
          "internalType": "uint256",
          "name": "_erc721_Id",
          "type": "uint256"
        }
      ],
      "name": "userBorrowMai",
      "outputs": [],
      "stateMutability": "nonpayable",
      "type": "function"
    },
    {
      "inputs": [
        {
          "internalType": "uint256",
          "name": "_amount",
          "type": "uint256"
        },
        {
          "internalType": "address",
          "name": "_owner",
          "type": "address"
        },
        {
          "internalType": "address",
          "name": "_borrower",
          "type": "address"
        },
        {
          "internalType": "string",
          "name": "_vault",
          "type": "string"
        },
        {
          "internalType": "uint256",
          "name": "_erc721_Id",
          "type": "uint256"
        }
      ],
      "name": "repayLoan",
      "outputs": [],
      "stateMutability": "nonpayable",
      "type": "function"
    },
    {
      "inputs": [
        {
          "internalType": "string",
          "name": "_vault",
          "type": "string"
        },
        {
          "internalType": "uint256",
          "name": "_erc721_Id",
          "type": "uint256"
        }
      ],
      "name": "withdraw_NFT",
      "outputs": [],
      "stateMutability": "nonpayable",
      "type": "function"
    },
    {
      "inputs": [
        {
          "internalType": "string",
          "name": "_vault",
          "type": "string"
        }
      ],
      "name": "getNftByOwner",
      "outputs": [
        {
          "internalType": "uint256[]",
          "name": "",
          "type": "uint256[]"
        }
      ],
      "stateMutability": "view",
      "type": "function",
      "constant": true
    },
    {
      "inputs": [
        {
          "internalType": "string",
          "name": "_name",
          "type": "string"
        },
        {
          "internalType": "address",
          "name": "_vaultAddress",
          "type": "address"
        }
      ],
      "name": "addVault",
      "outputs": [],
      "stateMutability": "nonpayable",
      "type": "function"
    },
    {
      "inputs": [
        {
          "internalType": "address",
          "name": "_address",
          "type": "address"
        }
      ],
      "name": "addAdmin",
      "outputs": [],
      "stateMutability": "nonpayable",
      "type": "function"
    }
  ],
  "bytecode": "0x60806040523480156200001157600080fd5b5060405162001c1738038062001c178339810160408190526200003491620000e6565b80600360405162000068907f7465737400000000000000000000000000000000000000000000000000000000815260040190565b90815260408051602092819003830190208054600160a060020a0319908116600160a060020a0395861617909155600680549091169590931694909417909155336000908152600590915291909120805460ff19166001179055506200011e565b8051600160a060020a0381168114620000e157600080fd5b919050565b60008060408385031215620000fa57600080fd5b6200010583620000c9565b91506200011560208401620000c9565b90509250929050565b611ae9806200012e6000396000f3fe608060405234801561001057600080fd5b50600436106101045760003560e060020a90048063882218421161009b578063afc964271161006a578063afc9642714610346578063d30ed3fc14610366578063e0f75d5d14610379578063f9affc1a1461038c57600080fd5b806388221842146102a15780638e9b0270146102d5578063a7ddca72146102e8578063ab1786d1146102fb57600080fd5b8063570b2b84116100d7578063570b2b841461020557806365df1d4a14610230578063704802751461027b5780637b45ebcf1461028e57600080fd5b806304813b6a14610109578063150b7a021461011e57806324d7806c146101895780635514e35b146101bc575b600080fd5b61011c610117366004611564565b61039f565b005b61015661012c3660046115d8565b7f150b7a020000000000000000000000000000000000000000000000000000000095945050505050565b6040517bffffffffffffffffffffffffffffffffffffffffffffffffffffffff1990911681526020015b60405180910390f35b6101ac610197366004611677565b60056020526000908152604090205460ff1681565b6040519015158152602001610180565b6101f76101ca36600461169b565b81516020818401810180516004825292820194820194909420919093529091526000908152604090205481565b604051908152602001610180565b60065461021890600160a060020a031681565b604051600160a060020a039091168152602001610180565b6101f761023e3660046116e0565b6002602090815260009485526040808620825293855283852083518085018301805192815290830194830194909420935291909152825290205481565b61011c610289366004611677565b6106b6565b61011c61029c3660046116e0565b61073c565b6102186102af36600461174a565b8051602081830181018051600382529282019190930120915254600160a060020a031681565b61011c6102e3366004611787565b6109a9565b61011c6102f63660046117fb565b610db5565b6101f76103093660046116e0565b6001602090815260009485526040808620825293855283852083518085018301805192815290830194830194909420935291909152825290205481565b61035961035436600461174a565b610e68565b604051610180919061184d565b61011c61037436600461169b565b610ee8565b6101f7610387366004611891565b611113565b61011c61039a3660046118ea565b61115f565b60006003836040516103b19190611955565b90815260408051918290036020908101832054600160a060020a038981166000908152600284528481208a831682529093529290912091169250906103f7908590611955565b90815260408051602092819003830190206000858152925290205461041d87601261198a565b146104985760405160e560020a62461bcd02815260206004820152602560248201527f596f75206d7573742072657061792074686520616d6f756e74206f662074686560448201527f206c6f616e00000000000000000000000000000000000000000000000000000060648201526084015b60405180910390fd5b600654604051600160a060020a03909116906339509351906003906104be908790611955565b90815260405190819003602001902054600160a060020a03166104e989670de0b6b3a764000061198a565b6040518363ffffffff1660e060020a0281526004016105099291906119a7565b6020604051808303816000875af1158015610528573d6000803e3d6000fd5b505050506040513d601f19601f8201168201806040525081019061054c91906119c0565b50600654600160a060020a03166323b872dd33306105728a670de0b6b3a764000061198a565b6040518463ffffffff1660e060020a028152600401610593939291906119e2565b6020604051808303816000875af11580156105b2573d6000803e3d6000fd5b505050506040513d601f19601f820116820180604052508101906105d691906119c0565b506040517fcf5f0f3c0000000000000000000000000000000000000000000000000000000081526004810183905242602482015260006044820152600160a060020a0382169063cf5f0f3c90606401600060405180830381600087803b15801561063f57600080fd5b505af1158015610653573d6000803e3d6000fd5b5050505085670de0b6b3a764000061066b919061198a565b60048460405161067b9190611955565b9081526020016040518091039020600084815260200190815260200160002060008282546106a99190611a06565b9091555050505050505050565b3360009081526005602052604090205460ff166107185760405160e560020a62461bcd02815260206004820152601460248201527f596f7520617265206e6f7420616e2061646d696e000000000000000000000000604482015260640161048f565b600160a060020a03166000908152600560205260409020805460ff19166001179055565b33600160a060020a038416146107975760405160e560020a62461bcd02815260206004820152601860248201527f596f75206d7573742062652074686520626f72726f7765720000000000000000604482015260640161048f565b600160a060020a038085166000908152600160209081526040808320938716835292905281812091519091906107ce908590611955565b9081526040805160209281900383018120600086815293529082205492506003906107fa908690611955565b908152604051908190036020018120547f97a41b8e000000000000000000000000000000000000000000000000000000008252600482018590526024820184905260006044830152600160a060020a0316915081906397a41b8e90606401600060405180830381600087803b15801561087257600080fd5b505af1158015610886573d6000803e3d6000fd5b50506006546040517fa9059cbb000000000000000000000000000000000000000000000000000000008152600160a060020a03909116925063a9059cbb91506108d590339086906004016119a7565b6020604051808303816000875af11580156108f4573d6000803e3d6000fd5b505050506040513d601f19601f8201168201806040525081019061091891906119c0565b50600160a060020a03808716600090815260026020908152604080832093891683529290528190209051839190610950908790611955565b908152604080519182900360209081018320600088815291522091909155829060049061097e908790611955565b9081526020016040518091039020600085815260200190815260200160002081905550505050505050565b600033600160a060020a03871614610a2c5760405160e560020a62461bcd02815260206004820152602260248201527f596f75206d75737420626520746865206f776e6572206f66207468652076617560448201527f6c74000000000000000000000000000000000000000000000000000000000000606482015260840161048f565b60008211610a7f5760405160e560020a62461bcd02815260206004820152601d60248201527f596f75206d7573742064656c6567617465206d6f7265207468616e2030000000604482015260640161048f565b85600160a060020a031685600160a060020a031603610b095760405160e560020a62461bcd02815260206004820152602660248201527f596f752063616e27742064656c656761746520746f207468652073616d65206160448201527f6464726573730000000000000000000000000000000000000000000000000000606482015260840161048f565b600160a060020a038516610b885760405160e560020a62461bcd02815260206004820152603160248201527f596f752063616e27742064656c656761746520746f206164726573732830292060448201527f2830783030303030303030303030303029000000000000000000000000000000606482015260840161048f565b60005b600160008089600160a060020a0316600160a060020a0316815260200190815260200160002086604051610bbf9190611955565b90815260405190819003602001902054610bd99190611a06565b8111610c5157600160a060020a038716600090815260208190526040908190209051610c06908790611955565b90815260200160405180910390208181548110610c2557610c25611a19565b90600052602060002001548403610c3f5760019150610c51565b80610c4981611a32565b915050610b8b565b50801515600003610ccd5760405160e560020a62461bcd02815260206004820152602260248201527f596f75206d757374206f776e20746865207661756c7420746f2064656c65676160448201527f7465000000000000000000000000000000000000000000000000000000000000606482015260840161048f565b610cdf82670de0b6b3a764000061198a565b600160a060020a038088166000908152600160209081526040808320938a1683529290528190209051610d13908790611955565b908152604080519182900360209081018320600088815291522091909155600160a060020a038716907ff246cb6f95a7c3bfda1a3e85094fba64ccec23277661166f09e2bb3b8fdc6bef90600390610d6c908890611955565b90815260405190819003602001902054600160a060020a0316610d9785670de0b6b3a764000061198a565b604051610da59291906119a7565b60405180910390a2505050505050565b3360009081526005602052604090205460ff16610e175760405160e560020a62461bcd02815260206004820152601460248201527f596f7520617265206e6f7420616e2061646d696e000000000000000000000000604482015260640161048f565b80600383604051610e289190611955565b9081526040519081900360200190208054600160a060020a039290921673ffffffffffffffffffffffffffffffffffffffff199092169190911790555050565b3360009081526020819052604090819020905160609190610e8a908490611955565b9081526040805191829003602090810183208054808302850183019093528284529190830182828015610edc57602002820191906000526020600020905b815481526020019060010190808311610ec8575b50505050509050919050565b600482604051610ef89190611955565b90815260408051602092819003830190206000848152925290205415610f895760405160e560020a62461bcd02815260206004820152603060248201527f546865206c6f616e206d757374206265207265706179206265666f726520776960448201527f7468726177696e6720746865206e667400000000000000000000000000000000606482015260840161048f565b6000805b3360009081526020819052604090819020905160019190610faf908790611955565b90815260405190819003602001902054610fc99190611a06565b81101561103b5733600090815260208190526040908190209051849190610ff1908790611955565b9081526020016040518091039020828154811061101057611010611a19565b906000526020600020015403611029576001915061103b565b8061103381611a32565b915050610f8d565b5060038360405161104c9190611955565b908152604051908190036020018120547f42842e0e000000000000000000000000000000000000000000000000000000008252600160a060020a0316906342842e0e906110a1903090339087906004016119e2565b600060405180830381600087803b1580156110bb57600080fd5b505af11580156110cf573d6000803e3d6000fd5b505050507fe69b73faa6b60e6842aaa2a4f58ad817b470058a36be3794d11fd5e1a43b6f9d33848460405161110693929190611a4b565b60405180910390a1505050565b60006020818152848252604090912083518085018301805192815290830192850192909220915280548290811061114957600080fd5b9060005260206000200160009250925050505481565b60006003826040516111719190611955565b908152604051908190036020018120547f6352211e000000000000000000000000000000000000000000000000000000008252600160a060020a031690636352211e906111c690869060040190815260200190565b602060405180830381865afa1580156111e3573d6000803e3d6000fd5b505050506040513d601f19601f820116820180604052508101906112079190611a96565b9050600160a060020a038116331461128a5760405160e560020a62461bcd02815260206004820152602260248201527f796f7520617265206e6f7420746865206f776e6572206f66207468652076617560448201527f6c74000000000000000000000000000000000000000000000000000000000000606482015260840161048f565b60038260405161129a9190611955565b908152604051908190036020018120547f42842e0e000000000000000000000000000000000000000000000000000000008252600160a060020a0316906342842e0e906112ef908490309088906004016119e2565b600060405180830381600087803b15801561130957600080fd5b505af115801561131d573d6000803e3d6000fd5b5050505060006003836040516113339190611955565b908152604051908190036020018120547f6352211e000000000000000000000000000000000000000000000000000000008252600160a060020a031690636352211e9061138890879060040190815260200190565b602060405180830381865afa1580156113a5573d6000803e3d6000fd5b505050506040513d601f19601f820116820180604052508101906113c99190611a96565b9050600160a060020a03811630146114265760405160e560020a62461bcd02815260206004820152601660248201527f4572726f72206e6674206e6f7420726563656976656400000000000000000000604482015260640161048f565b33600090815260208190526040908190209051611444908590611955565b908152604051908190036020908101822080546001810182556000918252919020018590557f47998b4998056cd0448b356cfcb8cb0eb18fa00844e43e71947e22fcb6fd43ef9061149890339087906119a7565b60405180910390a150505050565b600160a060020a03811681146114bb57600080fd5b50565b60e060020a634e487b7102600052604160045260246000fd5b600082601f8301126114e857600080fd5b813567ffffffffffffffff80821115611503576115036114be565b604051601f8301601f19908116603f0116810190828211818310171561152b5761152b6114be565b8160405283815286602085880101111561154457600080fd5b836020870160208301376000602085830101528094505050505092915050565b600080600080600060a0868803121561157c57600080fd5b85359450602086013561158e816114a6565b9350604086013561159e816114a6565b9250606086013567ffffffffffffffff8111156115ba57600080fd5b6115c6888289016114d7565b95989497509295608001359392505050565b6000806000806000608086880312156115f057600080fd5b85356115fb816114a6565b9450602086013561160b816114a6565b935060408601359250606086013567ffffffffffffffff8082111561162f57600080fd5b818801915088601f83011261164357600080fd5b81358181111561165257600080fd5b89602082850101111561166457600080fd5b9699959850939650602001949392505050565b60006020828403121561168957600080fd5b8135611694816114a6565b9392505050565b600080604083850312156116ae57600080fd5b823567ffffffffffffffff8111156116c557600080fd5b6116d1858286016114d7565b95602094909401359450505050565b600080600080608085870312156116f657600080fd5b8435611701816114a6565b93506020850135611711816114a6565b9250604085013567ffffffffffffffff81111561172d57600080fd5b611739878288016114d7565b949793965093946060013593505050565b60006020828403121561175c57600080fd5b813567ffffffffffffffff81111561177357600080fd5b61177f848285016114d7565b949350505050565b600080600080600060a0868803121561179f57600080fd5b85356117aa816114a6565b945060208601356117ba816114a6565b9350604086013567ffffffffffffffff8111156117d657600080fd5b6117e2888289016114d7565b9598949750949560608101359550608001359392505050565b6000806040838503121561180e57600080fd5b823567ffffffffffffffff81111561182557600080fd5b611831858286016114d7565b9250506020830135611842816114a6565b809150509250929050565b6020808252825182820181905260009190848201906040850190845b8181101561188557835183529284019291840191600101611869565b50909695505050505050565b6000806000606084860312156118a657600080fd5b83356118b1816114a6565b9250602084013567ffffffffffffffff8111156118cd57600080fd5b6118d9868287016114d7565b925050604084013590509250925092565b600080604083850312156118fd57600080fd5b82359150602083013567ffffffffffffffff81111561191b57600080fd5b611927858286016114d7565b9150509250929050565b60005b8381101561194c578181015183820152602001611934565b50506000910152565b60008251611967818460208701611931565b9190910192915050565b60e060020a634e487b7102600052601160045260246000fd5b80820281158282048414176119a1576119a1611971565b92915050565b600160a060020a03929092168252602082015260400190565b6000602082840312156119d257600080fd5b8151801515811461169457600080fd5b600160a060020a039384168152919092166020820152604081019190915260600190565b818103818111156119a1576119a1611971565b60e060020a634e487b7102600052603260045260246000fd5b600060018201611a4457611a44611971565b5060010190565b600160a060020a03841681526060602082015260008351806060840152611a79816080850160208801611931565b604083019390935250601f91909101601f19160160800192915050565b600060208284031215611aa857600080fd5b8151611694816114a656fea26469706673582212203e687a0eb61681734c3bf9892bc71c00dac824c9263b65f6f171e353a13f120f64736f6c63430008110033",
  "immutableReferences": {},
  "source": "pragma solidity ^0.8.17; // regarder la version sur les contracts de qidao 0.5.5 demander  Nandy quel est le mieux \n\n/*import \"@openzeppelin/contracts/token/ERC721/IERC721Receiver.sol\";\nimport \"@openzeppelin/contracts/token/ERC721/IERC721.sol\";\nimport \"@openzeppelin/contracts/token/ERC20/ERC20.sol\";*/\n\n\nimport \"./stableQiVault.sol\";\n\ncontract delegate{\n\n\n\n    mapping(address=>mapping(string=>uint256[])) public isOwner; // mapping  la place du uint256\n\n    // owner => borrower => vaultName => tokenId => amount delegated\n    mapping(address=>mapping(address=>mapping(string=>mapping(uint256=>uint256)))) public hasDelegated;\n\n    mapping(address=>mapping(address=>mapping(string=>mapping(uint256=>uint256)))) public hasBorrowed;\n\n\n    mapping(string => address) public vaultAddress;\n\n\n    mapping(string => mapping(uint256 => uint256)) public vaultDebt ;\n    mapping(address=>bool) public isAdmin;\n\n\n    event TokenReceived(address, uint256);\n\n    event DelegationApproved(address, address, string, uint256, uint256);\n\n    event BorrowedToMaiFinance(address indexed depositor, address vault, uint256 amount);\n\n    event NftWithdrawn(address, string, uint256);\n\n    event Approval(address, uint256);\n\n    ERC20 public mai;\n\n\n    constructor(address _mai, address _vault) {\n    \n        vaultAddress[\"test\"] = address(_vault);\n        mai = ERC20(_mai);\n        isAdmin[msg.sender] = true;\n    }\n\n    function onERC721Received( address operator, address from, uint256 tokenId, bytes calldata data ) public returns (bytes4) {\n            return this.onERC721Received.selector;\n    }\n    // Depositor need to approve the address of the contract by calling approve to deposit ERC721\n\n    function depositErc721(uint256 _erc721_Id, string memory _vault) public {\n\n        address owner = IERC721(vaultAddress[_vault]).ownerOf(_erc721_Id);\n        if(owner!=msg.sender)\n            revert(\"you are not the owner of the vault\");\n\n        IERC721(vaultAddress[_vault]).safeTransferFrom(owner, address(this),_erc721_Id);\n    \n        address newOwner = IERC721(vaultAddress[_vault]).ownerOf(_erc721_Id);\n        if(newOwner!=address(this))\n            revert(\"Error nft not received\");\n        isOwner[msg.sender][_vault].push(_erc721_Id);\n\n        emit TokenReceived(msg.sender, _erc721_Id);\n    }\n\n    // for mai finance, the contract borrow, so It keep rtack of the contrcat address\n    function approveDelegation(address _owner, address _borrower, string memory _vault, uint256 _erc721_Id, uint256 _amount) public{\n        bool ownVault = false;\n\n        if(msg.sender!=_owner)\n            revert(\"You must be the owner of the vault\");\n        if(_amount<=0)\n            revert(\"You must delegate more than 0\");\n        if(_borrower==_owner)\n            revert(\"You can't delegate to the same address\");\n        if(_borrower==address(0))\n            revert(\"You can't delegate to adress(0) (0x0000000000000)\");\n        for (uint i = 0; i <= isOwner[_owner][_vault].length - 1; i++) {\n\n            if (_erc721_Id == isOwner[_owner][_vault][i]) {\n                ownVault = true;\n                break;\n            }\n        }\n        if(ownVault==false)\n            revert(\"You must own the vault to delegate\");\n        hasDelegated[_owner][_borrower][_vault][_erc721_Id] = _amount*(10**18);\n        emit BorrowedToMaiFinance(_owner, vaultAddress[_vault], _amount*(10**18));\n    }\n\n    \n    function userBorrowMai(address _owner, address _borrower, string memory _vault, uint256 _erc721_Id) public{\n        if(msg.sender != _borrower)\n            revert(\"You must be the borrower\");\n        uint _amount = hasDelegated[_owner][_borrower][_vault][_erc721_Id];\n        stableQiVault _qiVault = stableQiVault(vaultAddress[_vault]);\n        _qiVault.borrowToken(_erc721_Id, _amount, 0);\n        mai.transfer(msg.sender,_amount);\n        hasBorrowed[_owner][_borrower][_vault][_erc721_Id] = _amount;\n        vaultDebt[_vault][_erc721_Id] = _amount;\n    }\n\n\n    // the _borrower must add allowance to the contract\n    // PROBLEME EN APPEANT PAYBACK CAR PAS D ALLOWANCE POUR LE SAFETRANSFER\n    function repayLoan(uint256 _amount, address _owner, address _borrower, string memory _vault, uint256 _erc721_Id) public {\n        stableQiVault _qiVault = stableQiVault(vaultAddress[_vault]);\n        if(_amount*18!=hasBorrowed[_owner][_borrower][_vault][_erc721_Id])\n            revert(\"You must repay the amount of the loan\");\n\n         // increase allowance to the vault contract for the repay function\n        mai.increaseAllowance(vaultAddress[_vault], _amount*(10**18));\n        mai.transferFrom(msg.sender, address(this), _amount*(10**18));\n        _qiVault.paybackTokenAll(_erc721_Id, block.timestamp, 0);\n        vaultDebt[_vault][_erc721_Id] -= _amount * (10 ** 18);\n    }\n\n   \n    function withdraw_NFT(string memory _vault, uint256 _erc721_Id) public {\n        if(vaultDebt[_vault][_erc721_Id] != 0)\n            revert(\"The loan must be repay before withrawing the nft\");\n        bool owner = false;\n         for (uint i = 0; i < isOwner[msg.sender][_vault].length - 1; i++) {\n            if(isOwner[msg.sender][_vault][i] == _erc721_Id) {\n                owner = true;\n                break;\n            }\n        }\n        IERC721(vaultAddress[_vault]).safeTransferFrom(address(this), msg.sender, _erc721_Id);\n        emit NftWithdrawn(msg.sender, _vault,_erc721_Id);\n    }\n\n    function getNftByOwner(string memory _vault) public view returns(uint256[] memory) {\n        return isOwner[msg.sender][_vault];\n    }\n\n    modifier admin{\n        require(isAdmin[msg.sender],\"You are not an admin\");\n        _;\n    }\n\n    function addVault(string memory _name, address _vaultAddress) public admin{\n        vaultAddress[_name] = _vaultAddress;\n    }\n\n    function addAdmin(address _address) public admin{\n        isAdmin[_address] = true;\n    }\n\n}",
  "sourcePath": "/home/lejamon/Documents/GitHub/KS-PI2/mai-finance/contracts/delegate.sol",
  "compiler": {
    "name": "solc",
    "version": "0.8.17+commit.8df45f5f.Emscripten.clang"
  },
  "schemaVersion": "3.4.10",
  "updatedAt": "2023-01-30T21:35:45.816Z",
  "networkType": "ethereum",
  "devdoc": {
    "kind": "dev",
    "methods": {},
    "version": 1
  },
  "userdoc": {
    "kind": "user",
    "methods": {},
    "version": 1
  }
}