{
  "contractName": "delegate",
  "abi": [
    {
      "inputs": [
        {
          "internalType": "address",
          "name": "_mai",
          "type": "address"
        },
        {
          "internalType": "address",
          "name": "_vault",
          "type": "address"
        }
      ],
      "stateMutability": "nonpayable",
      "type": "constructor"
    },
    {
      "anonymous": false,
      "inputs": [
        {
          "indexed": true,
          "internalType": "address",
          "name": "depositor",
          "type": "address"
        },
        {
          "indexed": false,
          "internalType": "address",
          "name": "vault",
          "type": "address"
        },
        {
          "indexed": false,
          "internalType": "uint256",
          "name": "amount",
          "type": "uint256"
        }
      ],
      "name": "BorrowedToMaiFinance",
      "type": "event"
    },
    {
      "anonymous": false,
      "inputs": [
        {
          "indexed": false,
          "internalType": "address",
          "name": "",
          "type": "address"
        },
        {
          "indexed": false,
          "internalType": "address",
          "name": "",
          "type": "address"
        },
        {
          "indexed": false,
          "internalType": "string",
          "name": "",
          "type": "string"
        },
        {
          "indexed": false,
          "internalType": "uint256",
          "name": "",
          "type": "uint256"
        },
        {
          "indexed": false,
          "internalType": "uint256",
          "name": "",
          "type": "uint256"
        }
      ],
      "name": "DelegationApproved",
      "type": "event"
    },
    {
      "anonymous": false,
      "inputs": [
        {
          "indexed": false,
          "internalType": "address",
          "name": "",
          "type": "address"
        },
        {
          "indexed": false,
          "internalType": "string",
          "name": "",
          "type": "string"
        },
        {
          "indexed": false,
          "internalType": "uint256",
          "name": "",
          "type": "uint256"
        }
      ],
      "name": "NftWithdrawn",
      "type": "event"
    },
    {
      "anonymous": false,
      "inputs": [
        {
          "indexed": false,
          "internalType": "address",
          "name": "",
          "type": "address"
        },
        {
          "indexed": false,
          "internalType": "uint256",
          "name": "",
          "type": "uint256"
        }
      ],
      "name": "TokenReceived",
      "type": "event"
    },
    {
      "inputs": [],
      "name": "_stableQiVault",
      "outputs": [
        {
          "internalType": "contract stableQiVault",
          "name": "",
          "type": "address"
        }
      ],
      "stateMutability": "view",
      "type": "function"
    },
    {
      "inputs": [
        {
          "internalType": "address",
          "name": "",
          "type": "address"
        },
        {
          "internalType": "address",
          "name": "",
          "type": "address"
        },
        {
          "internalType": "string",
          "name": "",
          "type": "string"
        },
        {
          "internalType": "uint256",
          "name": "",
          "type": "uint256"
        }
      ],
      "name": "hasBorrowed",
      "outputs": [
        {
          "internalType": "uint256",
          "name": "",
          "type": "uint256"
        }
      ],
      "stateMutability": "view",
      "type": "function"
    },
    {
      "inputs": [
        {
          "internalType": "address",
          "name": "",
          "type": "address"
        },
        {
          "internalType": "address",
          "name": "",
          "type": "address"
        },
        {
          "internalType": "string",
          "name": "",
          "type": "string"
        },
        {
          "internalType": "uint256",
          "name": "",
          "type": "uint256"
        }
      ],
      "name": "hasDelegated",
      "outputs": [
        {
          "internalType": "uint256",
          "name": "",
          "type": "uint256"
        }
      ],
      "stateMutability": "view",
      "type": "function"
    },
    {
      "inputs": [
        {
          "internalType": "address",
          "name": "",
          "type": "address"
        },
        {
          "internalType": "string",
          "name": "",
          "type": "string"
        },
        {
          "internalType": "uint256",
          "name": "",
          "type": "uint256"
        }
      ],
      "name": "isOwner",
      "outputs": [
        {
          "internalType": "uint256",
          "name": "",
          "type": "uint256"
        }
      ],
      "stateMutability": "view",
      "type": "function"
    },
    {
      "inputs": [],
      "name": "mai",
      "outputs": [
        {
          "internalType": "contract ERC20",
          "name": "",
          "type": "address"
        }
      ],
      "stateMutability": "view",
      "type": "function"
    },
    {
      "inputs": [
        {
          "internalType": "string",
          "name": "",
          "type": "string"
        }
      ],
      "name": "vaultAddress",
      "outputs": [
        {
          "internalType": "address",
          "name": "",
          "type": "address"
        }
      ],
      "stateMutability": "view",
      "type": "function"
    },
    {
      "inputs": [
        {
          "internalType": "string",
          "name": "",
          "type": "string"
        },
        {
          "internalType": "uint256",
          "name": "",
          "type": "uint256"
        }
      ],
      "name": "vaultDebt",
      "outputs": [
        {
          "internalType": "uint256",
          "name": "",
          "type": "uint256"
        }
      ],
      "stateMutability": "view",
      "type": "function"
    },
    {
      "inputs": [
        {
          "internalType": "address",
          "name": "operator",
          "type": "address"
        },
        {
          "internalType": "address",
          "name": "from",
          "type": "address"
        },
        {
          "internalType": "uint256",
          "name": "tokenId",
          "type": "uint256"
        },
        {
          "internalType": "bytes",
          "name": "data",
          "type": "bytes"
        }
      ],
      "name": "onERC721Received",
      "outputs": [
        {
          "internalType": "bytes4",
          "name": "",
          "type": "bytes4"
        }
      ],
      "stateMutability": "nonpayable",
      "type": "function"
    },
    {
      "inputs": [
        {
          "internalType": "uint256",
          "name": "_erc721_Id",
          "type": "uint256"
        },
        {
          "internalType": "string",
          "name": "_vault",
          "type": "string"
        }
      ],
      "name": "depositErc721",
      "outputs": [],
      "stateMutability": "nonpayable",
      "type": "function"
    },
    {
      "inputs": [
        {
          "internalType": "address",
          "name": "_owner",
          "type": "address"
        },
        {
          "internalType": "address",
          "name": "_borrower",
          "type": "address"
        },
        {
          "internalType": "string",
          "name": "_vault",
          "type": "string"
        },
        {
          "internalType": "uint256",
          "name": "_erc721_Id",
          "type": "uint256"
        },
        {
          "internalType": "uint256",
          "name": "_amount",
          "type": "uint256"
        }
      ],
      "name": "approveDelegation",
      "outputs": [],
      "stateMutability": "nonpayable",
      "type": "function"
    },
    {
      "inputs": [
        {
          "internalType": "address",
          "name": "_owner",
          "type": "address"
        },
        {
          "internalType": "address",
          "name": "_borrower",
          "type": "address"
        },
        {
          "internalType": "string",
          "name": "_vault",
          "type": "string"
        },
        {
          "internalType": "uint256",
          "name": "_erc721_Id",
          "type": "uint256"
        }
      ],
      "name": "userBorrowMai",
      "outputs": [],
      "stateMutability": "nonpayable",
      "type": "function"
    },
    {
      "inputs": [
        {
          "internalType": "uint256",
          "name": "_amount",
          "type": "uint256"
        },
        {
          "internalType": "address",
          "name": "_owner",
          "type": "address"
        },
        {
          "internalType": "address",
          "name": "_borrower",
          "type": "address"
        },
        {
          "internalType": "string",
          "name": "_vault",
          "type": "string"
        },
        {
          "internalType": "uint256",
          "name": "_erc721_Id",
          "type": "uint256"
        }
      ],
      "name": "repayLoan",
      "outputs": [],
      "stateMutability": "nonpayable",
      "type": "function"
    },
    {
      "inputs": [
        {
          "internalType": "string",
          "name": "_vault",
          "type": "string"
        },
        {
          "internalType": "uint256",
          "name": "_erc721_Id",
          "type": "uint256"
        },
        {
          "internalType": "address",
          "name": "_owner",
          "type": "address"
        },
        {
          "internalType": "address",
          "name": "_borrower",
          "type": "address"
        }
      ],
      "name": "withdraw_NFT",
      "outputs": [],
      "stateMutability": "nonpayable",
      "type": "function"
    },
    {
      "inputs": [
        {
          "internalType": "string",
          "name": "_vault",
          "type": "string"
        }
      ],
      "name": "getNftByOwner",
      "outputs": [
        {
          "internalType": "uint256[]",
          "name": "",
          "type": "uint256[]"
        }
      ],
      "stateMutability": "view",
      "type": "function"
    }
  ],
  "bytecode": "0x60806040523480156200001157600080fd5b5060405162001a4b38038062001a4b8339810160408190526200003491620000c9565b80600460405162000068907f7465737400000000000000000000000000000000000000000000000000000000815260040190565b9081526040519081900360200190208054600160a060020a03928316600160a060020a03199182161790915560068054949092169316929092179091555062000101565b8051600160a060020a0381168114620000c457600080fd5b919050565b60008060408385031215620000dd57600080fd5b620000e883620000ac565b9150620000f860208401620000ac565b90509250929050565b61193a80620001116000396000f3fe608060405234801561001057600080fd5b50600436106100ce5760003560e060020a90048063882218421161008057806388221842146102385780638dfe18611461026c5780638e9b02701461027f578063ab1786d114610292578063afc96427146102dd578063e0f75d5d146102fd578063f9affc1a1461031057600080fd5b806304813b6a146100d3578063150b7a02146100e85780635514e35b14610153578063570b2b841461019c5780636181396d146101c757806365df1d4a146101da5780637b45ebcf14610225575b600080fd5b6100e66100e13660046113cf565b610323565b005b6101206100f6366004611443565b7f150b7a020000000000000000000000000000000000000000000000000000000095945050505050565b6040517bffffffffffffffffffffffffffffffffffffffffffffffffffffffff1990911681526020015b60405180910390f35b61018e6101613660046114e2565b81516020818401810180516005825292820194820194909420919093529091526000908152604090205481565b60405190815260200161014a565b6006546101af90600160a060020a031681565b604051600160a060020a03909116815260200161014a565b6100e66101d5366004611527565b610677565b61018e6101e8366004611593565b6003602090815260009485526040808620825293855283852083518085018301805192815290830194830194909420935291909152825290205481565b6100e6610233366004611593565b6108a5565b6101af6102463660046115fd565b8051602081830181018051600482529282019190930120915254600160a060020a031681565b6007546101af90600160a060020a031681565b6100e661028d36600461163a565b610b12565b61018e6102a0366004611593565b6002602090815260009485526040808620825293855283852083518085018301805192815290830194830194909420935291909152825290205481565b6102f06102eb3660046115fd565b610efd565b60405161014a91906116ae565b61018e61030b3660046116f2565b610f7d565b6100e661031e36600461174b565b610fca565b600060048360405161033591906117b6565b90815260408051918290036020908101832054600160a060020a038981166000908152600384528481208a8316825290935292909120911692509061037b9085906117b6565b908152602001604051809103902060008381526020019081526020016000205486146104175760405160e560020a62461bcd02815260206004820152602560248201527f596f75206d7573742072657061792074686520616d6f756e74206f662074686560448201527f206c6f616e00000000000000000000000000000000000000000000000000000060648201526084015b60405180910390fd5b600654604051600160a060020a039091169063395093519060049061043d9087906117b6565b9081526040519081900360200181205460e060020a63ffffffff841602825261047691600160a060020a03909116908a906004016117d2565b6020604051808303816000875af1158015610495573d6000803e3d6000fd5b505050506040513d601f19601f820116820180604052508101906104b991906117eb565b506006546040517f23b872dd000000000000000000000000000000000000000000000000000000008152600160a060020a03909116906323b872dd9061050790339030908b90600401611814565b6020604051808303816000875af1158015610526573d6000803e3d6000fd5b505050506040513d601f19601f8201168201806040525081019061054a91906117eb565b506040517f3128ef27000000000000000000000000000000000000000000000000000000008152600481018390526024810187905260006044820152600160a060020a03821690633128ef2790606401600060405180830381600087803b1580156105b457600080fd5b505af11580156105c8573d6000803e3d6000fd5b5050600654604051600160a060020a03909116925063a457c2d791506004906105f29087906117b6565b9081526040519081900360200181205460e060020a63ffffffff841602825261062b91600160a060020a03909116908a906004016117d2565b6020604051808303816000875af115801561064a573d6000803e3d6000fd5b505050506040513d601f19601f8201168201806040525081019061066e91906117eb565b50505050505050565b60058460405161068791906117b6565b908152604080516020928190038301902060008681529252902054156107185760405160e560020a62461bcd02815260206004820152603060248201527f546865206c6f616e206d757374206265207265706179206265666f726520776960448201527f7468726177696e6720746865206e667400000000000000000000000000000000606482015260840161040e565b6000805b33600090815260016020819052604091829020915190919061073f9089906117b6565b908152604051908190036020019020546107599190611851565b8110156107cb57336000908152600160205260409081902090518691906107819089906117b6565b908152602001604051809103902082815481106107a0576107a061186a565b9060005260206000200154036107b957600191506107cb565b806107c381611883565b91505061071c565b506004856040516107dc91906117b6565b908152604051908190036020018120547f42842e0e000000000000000000000000000000000000000000000000000000008252600160a060020a0316906342842e0e9061083190309033908990600401611814565b600060405180830381600087803b15801561084b57600080fd5b505af115801561085f573d6000803e3d6000fd5b505050507fe69b73faa6b60e6842aaa2a4f58ad817b470058a36be3794d11fd5e1a43b6f9d3386866040516108969392919061189c565b60405180910390a15050505050565b33600160a060020a038416146109005760405160e560020a62461bcd02815260206004820152601860248201527f596f75206d7573742062652074686520626f72726f7765720000000000000000604482015260640161040e565b600160a060020a038085166000908152600260209081526040808320938716835292905281812091519091906109379085906117b6565b9081526040805160209281900383018120600086815293529082205492506004906109639086906117b6565b908152604051908190036020018120547f97a41b8e000000000000000000000000000000000000000000000000000000008252600482018590526024820184905260006044830152600160a060020a0316915081906397a41b8e90606401600060405180830381600087803b1580156109db57600080fd5b505af11580156109ef573d6000803e3d6000fd5b50506006546040517fa9059cbb000000000000000000000000000000000000000000000000000000008152600160a060020a03909116925063a9059cbb9150610a3e90339086906004016117d2565b6020604051808303816000875af1158015610a5d573d6000803e3d6000fd5b505050506040513d601f19601f82011682018060405250810190610a8191906117eb565b50600160a060020a03808716600090815260036020908152604080832093891683529290528190209051839190610ab99087906117b6565b9081526040805191829003602090810183206000888152915220919091558290600590610ae79087906117b6565b9081526020016040518091039020600085815260200190815260200160002081905550505050505050565b600033600160a060020a03871614610b955760405160e560020a62461bcd02815260206004820152602260248201527f596f75206d75737420626520746865206f776e6572206f66207468652076617560448201527f6c74000000000000000000000000000000000000000000000000000000000000606482015260840161040e565b60008211610be85760405160e560020a62461bcd02815260206004820152601d60248201527f596f75206d7573742064656c6567617465206d6f7265207468616e2030000000604482015260640161040e565b85600160a060020a031685600160a060020a031603610c725760405160e560020a62461bcd02815260206004820152602660248201527f596f752063616e27742064656c656761746520746f207468652073616d65206160448201527f6464726573730000000000000000000000000000000000000000000000000000606482015260840161040e565b600160a060020a038516610cf15760405160e560020a62461bcd02815260206004820152603160248201527f596f752063616e27742064656c656761746520746f206164726573732830292060448201527f2830783030303030303030303030303029000000000000000000000000000000606482015260840161040e565b60005b600180600089600160a060020a0316600160a060020a0316815260200190815260200160002086604051610d2891906117b6565b90815260405190819003602001902054610d429190611851565b8111610dba57600160a060020a038716600090815260016020526040908190209051610d6f9087906117b6565b90815260200160405180910390208181548110610d8e57610d8e61186a565b90600052602060002001548403610da85760019150610dba565b80610db281611883565b915050610cf4565b50801515600003610e365760405160e560020a62461bcd02815260206004820152602260248201527f596f75206d757374206f776e20746865207661756c7420746f2064656c65676160448201527f7465000000000000000000000000000000000000000000000000000000000000606482015260840161040e565b600160a060020a03808716600090815260026020908152604080832093891683529290528190209051839190610e6d9087906117b6565b908152604080519182900360209081018320600088815291522091909155600160a060020a038716907ff246cb6f95a7c3bfda1a3e85094fba64ccec23277661166f09e2bb3b8fdc6bef90600490610ec69088906117b6565b90815260405190819003602001812054610eed91600160a060020a039091169086906117d2565b60405180910390a2505050505050565b3360009081526001602052604090819020905160609190610f1f9084906117b6565b9081526040805191829003602090810183208054808302850183019093528284529190830182828015610f7157602002820191906000526020600020905b815481526020019060010190808311610f5d575b50505050509050919050565b60016020908152600084815260409020835180850183018051928152908301928501929092209152805482908110610fb457600080fd5b9060005260206000200160009250925050505481565b6000600482604051610fdc91906117b6565b908152604051908190036020018120547f6352211e000000000000000000000000000000000000000000000000000000008252600160a060020a031690636352211e9061103190869060040190815260200190565b602060405180830381865afa15801561104e573d6000803e3d6000fd5b505050506040513d601f19601f8201168201806040525081019061107291906118e7565b9050600160a060020a03811633146110f55760405160e560020a62461bcd02815260206004820152602260248201527f796f7520617265206e6f7420746865206f776e6572206f66207468652076617560448201527f6c74000000000000000000000000000000000000000000000000000000000000606482015260840161040e565b60048260405161110591906117b6565b908152604051908190036020018120547f42842e0e000000000000000000000000000000000000000000000000000000008252600160a060020a0316906342842e0e9061115a90849030908890600401611814565b600060405180830381600087803b15801561117457600080fd5b505af1158015611188573d6000803e3d6000fd5b50505050600060048360405161119e91906117b6565b908152604051908190036020018120547f6352211e000000000000000000000000000000000000000000000000000000008252600160a060020a031690636352211e906111f390879060040190815260200190565b602060405180830381865afa158015611210573d6000803e3d6000fd5b505050506040513d601f19601f8201168201806040525081019061123491906118e7565b9050600160a060020a03811630146112915760405160e560020a62461bcd02815260206004820152601660248201527f4572726f72206e6674206e6f7420726563656976656400000000000000000000604482015260640161040e565b336000908152600160205260409081902090516112af9085906117b6565b908152604051908190036020908101822080546001810182556000918252919020018590557f47998b4998056cd0448b356cfcb8cb0eb18fa00844e43e71947e22fcb6fd43ef9061130390339087906117d2565b60405180910390a150505050565b600160a060020a038116811461132657600080fd5b50565b60e060020a634e487b7102600052604160045260246000fd5b600082601f83011261135357600080fd5b813567ffffffffffffffff8082111561136e5761136e611329565b604051601f8301601f19908116603f0116810190828211818310171561139657611396611329565b816040528381528660208588010111156113af57600080fd5b836020870160208301376000602085830101528094505050505092915050565b600080600080600060a086880312156113e757600080fd5b8535945060208601356113f981611311565b9350604086013561140981611311565b9250606086013567ffffffffffffffff81111561142557600080fd5b61143188828901611342565b95989497509295608001359392505050565b60008060008060006080868803121561145b57600080fd5b853561146681611311565b9450602086013561147681611311565b935060408601359250606086013567ffffffffffffffff8082111561149a57600080fd5b818801915088601f8301126114ae57600080fd5b8135818111156114bd57600080fd5b8960208285010111156114cf57600080fd5b9699959850939650602001949392505050565b600080604083850312156114f557600080fd5b823567ffffffffffffffff81111561150c57600080fd5b61151885828601611342565b95602094909401359450505050565b6000806000806080858703121561153d57600080fd5b843567ffffffffffffffff81111561155457600080fd5b61156087828801611342565b94505060208501359250604085013561157881611311565b9150606085013561158881611311565b939692955090935050565b600080600080608085870312156115a957600080fd5b84356115b481611311565b935060208501356115c481611311565b9250604085013567ffffffffffffffff8111156115e057600080fd5b6115ec87828801611342565b949793965093946060013593505050565b60006020828403121561160f57600080fd5b813567ffffffffffffffff81111561162657600080fd5b61163284828501611342565b949350505050565b600080600080600060a0868803121561165257600080fd5b853561165d81611311565b9450602086013561166d81611311565b9350604086013567ffffffffffffffff81111561168957600080fd5b61169588828901611342565b9598949750949560608101359550608001359392505050565b6020808252825182820181905260009190848201906040850190845b818110156116e6578351835292840192918401916001016116ca565b50909695505050505050565b60008060006060848603121561170757600080fd5b833561171281611311565b9250602084013567ffffffffffffffff81111561172e57600080fd5b61173a86828701611342565b925050604084013590509250925092565b6000806040838503121561175e57600080fd5b82359150602083013567ffffffffffffffff81111561177c57600080fd5b61178885828601611342565b9150509250929050565b60005b838110156117ad578181015183820152602001611795565b50506000910152565b600082516117c8818460208701611792565b9190910192915050565b600160a060020a03929092168252602082015260400190565b6000602082840312156117fd57600080fd5b8151801515811461180d57600080fd5b9392505050565b600160a060020a039384168152919092166020820152604081019190915260600190565b60e060020a634e487b7102600052601160045260246000fd5b8181038181111561186457611864611838565b92915050565b60e060020a634e487b7102600052603260045260246000fd5b60006001820161189557611895611838565b5060010190565b600160a060020a038416815260606020820152600083518060608401526118ca816080850160208801611792565b604083019390935250601f91909101601f19160160800192915050565b6000602082840312156118f957600080fd5b815161180d8161131156fea2646970667358221220177de7246713c9be310c34ca84466b49c8cc28adf99913cc32b3f1e1ffdb83a964736f6c63430008110033",
  "immutableReferences": {},
  "source": "pragma solidity ^0.8.1; // regarder la version sur les contracts de qidao 0.5.5 demander  Nandy quel est le mieux \n\n/*import \"@openzeppelin/contracts/token/ERC721/IERC721Receiver.sol\";\nimport \"@openzeppelin/contracts/token/ERC721/IERC721.sol\";\nimport \"@openzeppelin/contracts/token/ERC20/ERC20.sol\";*/\n\n\nimport \"./stableQiVault.sol\"; \n\ncontract delegate{\n\n    address nftVaultAddress; \n\n\n    mapping(address=>mapping(string=>uint256[])) public isOwner; // mapping  la place du uint256\n\n    // owner => borrower => vaultName => tokenId => amount delegated \n    mapping(address=>mapping(address=>mapping(string=>mapping(uint256=>uint256)))) public hasDelegated; \n\n    mapping(address=>mapping(address=>mapping(string=>mapping(uint256=>uint256)))) public hasBorrowed; \n\n\n    mapping(string => address) public vaultAddress;\n\n\n    mapping(string => mapping(uint256 => uint256)) public vaultDebt ; \n\n\n    event TokenReceived(address, uint256); \n\n    event DelegationApproved(address, address, string, uint256, uint256); \n\n    event BorrowedToMaiFinance(address indexed depositor, address vault, uint256 amount);\n\n    event NftWithdrawn(address, string, uint256); \n\n    ERC20 public mai;\n    stableQiVault public _stableQiVault; \n\n\n    constructor(address _mai, address _vault) {\n         \n        vaultAddress[\"test\"] = address(_vault);\n        mai = ERC20(_mai); \n    }\n \n    function onERC721Received( address operator, address from, uint256 tokenId, bytes calldata data ) public returns (bytes4) {\n            return this.onERC721Received.selector;\n    }\n    \n    // Depositor need to approve the address of the contract by calling approve to deposit ERC721\n    function depositErc721(uint256 _erc721_Id, string memory _vault) public {\n\n        address owner = IERC721(vaultAddress[_vault]).ownerOf(_erc721_Id); \n        if(owner!=msg.sender)\n            revert(\"you are not the owner of the vault\"); \n\n        IERC721(vaultAddress[_vault]).safeTransferFrom(owner, address(this),_erc721_Id); \n      \n        address newOwner = IERC721(vaultAddress[_vault]).ownerOf(_erc721_Id);\n        if(newOwner!=address(this))\n            revert(\"Error nft not received\");  \n        isOwner[msg.sender][_vault].push(_erc721_Id);\n\n        emit TokenReceived(msg.sender, _erc721_Id); \n    }\n\n    // for mai finance, the contract borrow, so It keep rtack of the contrcat address\n    function approveDelegation(address _owner, address _borrower, string memory _vault, uint256 _erc721_Id, uint256 _amount) public{\n        bool ownVault = false; \n\n        if(msg.sender!=_owner)\n            revert(\"You must be the owner of the vault\"); \n        if(_amount<=0)\n            revert(\"You must delegate more than 0\"); \n        if(_borrower==_owner)\n            revert(\"You can't delegate to the same address\"); \n        if(_borrower==address(0))\n            revert(\"You can't delegate to adress(0) (0x0000000000000)\"); \n        for (uint i=0; i <= isOwner[_owner][_vault].length -1; i++) {\n            \n            if (_erc721_Id == isOwner[_owner][_vault][i]) {\n                ownVault = true;\n                break;\n            }\n        }\n        if(ownVault==false)\n            revert(\"You must own the vault to delegate\");    \n        hasDelegated[_owner][_borrower][_vault][_erc721_Id] = _amount; \n        emit BorrowedToMaiFinance(_owner, vaultAddress[_vault], _amount); \n    }\n\n    \n    function userBorrowMai(address _owner, address _borrower, string memory _vault, uint256 _erc721_Id) public{\n        if(msg.sender != _borrower)\n            revert(\"You must be the borrower\"); \n        uint _amount = hasDelegated[_owner][_borrower][_vault][_erc721_Id]; \n        stableQiVault _qiVault = stableQiVault(vaultAddress[_vault]);\n        _qiVault.borrowToken(_erc721_Id, _amount, 0);  \n        mai.transfer(msg.sender,_amount); \n        hasBorrowed[_owner][_borrower][_vault][_erc721_Id] = _amount; \n        vaultDebt[_vault][_erc721_Id] = _amount; \n    }\n\n\n    // the _borrower must add allowance to the contract\n    // PROBLEME EN APPEANT PAYBACK CAR PAS D ALLOWANCE POUR LE SAFETRANSFER \n    function repayLoan(uint256 _amount, address _owner, address _borrower, string memory _vault, uint256 _erc721_Id) public {\n        stableQiVault _qiVault = stableQiVault(vaultAddress[_vault]); \n        if(_amount!=hasBorrowed[_owner][_borrower][_vault][_erc721_Id])\n            revert(\"You must repay the amount of the loan\"); \n            \n        mai.increaseAllowance(vaultAddress[_vault], _amount); \n        \n        mai.transferFrom(msg.sender, address(this), _amount); \n        _qiVault.payBackToken(_erc721_Id, _amount, 0); \n        mai.decreaseAllowance(vaultAddress[_vault], _amount);\n        \n    }   \n\n    // voir comment le contrat fait quand le borrower n'a pas emprunter \n    function withdraw_NFT(string memory _vault, uint256 _erc721_Id, address _owner, address _borrower) public {\n        if(vaultDebt[_vault][_erc721_Id] != 0)\n            revert(\"The loan must be repay before withrawing the nft\"); \n        bool owner = false; \n         for (uint i = 0; i < isOwner[msg.sender][_vault].length - 1; i++) {\n            if(isOwner[msg.sender][_vault][i] == _erc721_Id) {\n                owner = true; \n                break;\n            }            \n        }\n        IERC721(vaultAddress[_vault]).safeTransferFrom(address(this), msg.sender, _erc721_Id); \n        emit NftWithdrawn(msg.sender, _vault,_erc721_Id); \n    }\n\n    function getNftByOwner(string memory _vault) public view returns(uint256[] memory) {\n        return isOwner[msg.sender][_vault]; \n    }\n\n\n}",
  "sourcePath": "/home/lejamon/Documents/GitHub/KS-PI2/mai-finance/contracts/delegate.sol",
  "compiler": {
    "name": "solc",
    "version": "0.8.17+commit.8df45f5f.Emscripten.clang"
  },
  "schemaVersion": "3.4.10",
  "updatedAt": "2023-01-26T19:10:48.476Z",
  "devdoc": {
    "kind": "dev",
    "methods": {},
    "version": 1
  },
  "userdoc": {
    "kind": "user",
    "methods": {},
    "version": 1
  }
}