{
  "contractName": "FakeVault",
  "abi": [
    {
      "inputs": [
        {
          "internalType": "address",
          "name": "_mai",
          "type": "address"
        },
        {
          "internalType": "string",
          "name": "name",
          "type": "string"
        },
        {
          "internalType": "string",
          "name": "symbol",
          "type": "string"
        }
      ],
      "stateMutability": "nonpayable",
      "type": "constructor"
    },
    {
      "anonymous": false,
      "inputs": [
        {
          "indexed": true,
          "internalType": "address",
          "name": "owner",
          "type": "address"
        },
        {
          "indexed": true,
          "internalType": "address",
          "name": "approved",
          "type": "address"
        },
        {
          "indexed": true,
          "internalType": "uint256",
          "name": "tokenId",
          "type": "uint256"
        }
      ],
      "name": "Approval",
      "type": "event"
    },
    {
      "anonymous": false,
      "inputs": [
        {
          "indexed": true,
          "internalType": "address",
          "name": "owner",
          "type": "address"
        },
        {
          "indexed": true,
          "internalType": "address",
          "name": "operator",
          "type": "address"
        },
        {
          "indexed": false,
          "internalType": "bool",
          "name": "approved",
          "type": "bool"
        }
      ],
      "name": "ApprovalForAll",
      "type": "event"
    },
    {
      "anonymous": false,
      "inputs": [
        {
          "indexed": true,
          "internalType": "address",
          "name": "from",
          "type": "address"
        },
        {
          "indexed": true,
          "internalType": "address",
          "name": "to",
          "type": "address"
        },
        {
          "indexed": true,
          "internalType": "uint256",
          "name": "tokenId",
          "type": "uint256"
        }
      ],
      "name": "Transfer",
      "type": "event"
    },
    {
      "inputs": [
        {
          "internalType": "uint256",
          "name": "",
          "type": "uint256"
        }
      ],
      "name": "_deposit",
      "outputs": [
        {
          "internalType": "uint256",
          "name": "",
          "type": "uint256"
        }
      ],
      "stateMutability": "view",
      "type": "function"
    },
    {
      "inputs": [
        {
          "internalType": "address",
          "name": "to",
          "type": "address"
        },
        {
          "internalType": "uint256",
          "name": "tokenId",
          "type": "uint256"
        }
      ],
      "name": "approve",
      "outputs": [],
      "stateMutability": "nonpayable",
      "type": "function"
    },
    {
      "inputs": [
        {
          "internalType": "address",
          "name": "owner",
          "type": "address"
        }
      ],
      "name": "balanceOf",
      "outputs": [
        {
          "internalType": "uint256",
          "name": "",
          "type": "uint256"
        }
      ],
      "stateMutability": "view",
      "type": "function"
    },
    {
      "inputs": [
        {
          "internalType": "address",
          "name": "",
          "type": "address"
        }
      ],
      "name": "erc721Balance",
      "outputs": [
        {
          "internalType": "uint256",
          "name": "",
          "type": "uint256"
        }
      ],
      "stateMutability": "view",
      "type": "function"
    },
    {
      "inputs": [
        {
          "internalType": "uint256",
          "name": "tokenId",
          "type": "uint256"
        }
      ],
      "name": "getApproved",
      "outputs": [
        {
          "internalType": "address",
          "name": "",
          "type": "address"
        }
      ],
      "stateMutability": "view",
      "type": "function"
    },
    {
      "inputs": [
        {
          "internalType": "address",
          "name": "owner",
          "type": "address"
        },
        {
          "internalType": "address",
          "name": "operator",
          "type": "address"
        }
      ],
      "name": "isApprovedForAll",
      "outputs": [
        {
          "internalType": "bool",
          "name": "",
          "type": "bool"
        }
      ],
      "stateMutability": "view",
      "type": "function"
    },
    {
      "inputs": [],
      "name": "mai",
      "outputs": [
        {
          "internalType": "contract ERC20",
          "name": "",
          "type": "address"
        }
      ],
      "stateMutability": "view",
      "type": "function"
    },
    {
      "inputs": [
        {
          "internalType": "address",
          "name": "",
          "type": "address"
        }
      ],
      "name": "maiBalance",
      "outputs": [
        {
          "internalType": "uint256",
          "name": "",
          "type": "uint256"
        }
      ],
      "stateMutability": "view",
      "type": "function"
    },
    {
      "inputs": [
        {
          "internalType": "uint256",
          "name": "",
          "type": "uint256"
        }
      ],
      "name": "maiDebt",
      "outputs": [
        {
          "internalType": "uint256",
          "name": "",
          "type": "uint256"
        }
      ],
      "stateMutability": "view",
      "type": "function"
    },
    {
      "inputs": [],
      "name": "name",
      "outputs": [
        {
          "internalType": "string",
          "name": "",
          "type": "string"
        }
      ],
      "stateMutability": "view",
      "type": "function"
    },
    {
      "inputs": [
        {
          "internalType": "uint256",
          "name": "tokenId",
          "type": "uint256"
        }
      ],
      "name": "ownerOf",
      "outputs": [
        {
          "internalType": "address",
          "name": "",
          "type": "address"
        }
      ],
      "stateMutability": "view",
      "type": "function"
    },
    {
      "inputs": [
        {
          "internalType": "uint256",
          "name": "",
          "type": "uint256"
        }
      ],
      "name": "owners",
      "outputs": [
        {
          "internalType": "address",
          "name": "",
          "type": "address"
        }
      ],
      "stateMutability": "view",
      "type": "function"
    },
    {
      "inputs": [
        {
          "internalType": "address",
          "name": "from",
          "type": "address"
        },
        {
          "internalType": "address",
          "name": "to",
          "type": "address"
        },
        {
          "internalType": "uint256",
          "name": "tokenId",
          "type": "uint256"
        }
      ],
      "name": "safeTransferFrom",
      "outputs": [],
      "stateMutability": "nonpayable",
      "type": "function"
    },
    {
      "inputs": [
        {
          "internalType": "address",
          "name": "from",
          "type": "address"
        },
        {
          "internalType": "address",
          "name": "to",
          "type": "address"
        },
        {
          "internalType": "uint256",
          "name": "tokenId",
          "type": "uint256"
        },
        {
          "internalType": "bytes",
          "name": "data",
          "type": "bytes"
        }
      ],
      "name": "safeTransferFrom",
      "outputs": [],
      "stateMutability": "nonpayable",
      "type": "function"
    },
    {
      "inputs": [
        {
          "internalType": "address",
          "name": "operator",
          "type": "address"
        },
        {
          "internalType": "bool",
          "name": "approved",
          "type": "bool"
        }
      ],
      "name": "setApprovalForAll",
      "outputs": [],
      "stateMutability": "nonpayable",
      "type": "function"
    },
    {
      "inputs": [
        {
          "internalType": "bytes4",
          "name": "interfaceId",
          "type": "bytes4"
        }
      ],
      "name": "supportsInterface",
      "outputs": [
        {
          "internalType": "bool",
          "name": "",
          "type": "bool"
        }
      ],
      "stateMutability": "view",
      "type": "function"
    },
    {
      "inputs": [],
      "name": "symbol",
      "outputs": [
        {
          "internalType": "string",
          "name": "",
          "type": "string"
        }
      ],
      "stateMutability": "view",
      "type": "function"
    },
    {
      "inputs": [
        {
          "internalType": "uint256",
          "name": "tokenId",
          "type": "uint256"
        }
      ],
      "name": "tokenURI",
      "outputs": [
        {
          "internalType": "string",
          "name": "",
          "type": "string"
        }
      ],
      "stateMutability": "view",
      "type": "function"
    },
    {
      "inputs": [
        {
          "internalType": "address",
          "name": "from",
          "type": "address"
        },
        {
          "internalType": "address",
          "name": "to",
          "type": "address"
        },
        {
          "internalType": "uint256",
          "name": "tokenId",
          "type": "uint256"
        }
      ],
      "name": "transferFrom",
      "outputs": [],
      "stateMutability": "nonpayable",
      "type": "function"
    },
    {
      "inputs": [],
      "name": "uri",
      "outputs": [
        {
          "internalType": "string",
          "name": "",
          "type": "string"
        }
      ],
      "stateMutability": "view",
      "type": "function"
    },
    {
      "inputs": [],
      "name": "createVault",
      "outputs": [
        {
          "internalType": "uint256",
          "name": "",
          "type": "uint256"
        }
      ],
      "stateMutability": "nonpayable",
      "type": "function"
    },
    {
      "inputs": [
        {
          "internalType": "uint256",
          "name": "_erc721_Id",
          "type": "uint256"
        },
        {
          "internalType": "uint256",
          "name": "_amount",
          "type": "uint256"
        },
        {
          "internalType": "uint256",
          "name": "_front",
          "type": "uint256"
        }
      ],
      "name": "borrowToken",
      "outputs": [],
      "stateMutability": "nonpayable",
      "type": "function"
    },
    {
      "inputs": [
        {
          "internalType": "uint256",
          "name": "_erc721_Id",
          "type": "uint256"
        },
        {
          "internalType": "uint256",
          "name": "amount",
          "type": "uint256"
        }
      ],
      "name": "depositCollateral",
      "outputs": [],
      "stateMutability": "nonpayable",
      "type": "function"
    },
    {
      "inputs": [
        {
          "internalType": "address",
          "name": "from",
          "type": "address"
        },
        {
          "internalType": "address",
          "name": "_to",
          "type": "address"
        },
        {
          "internalType": "uint256",
          "name": "_erc721_Id",
          "type": "uint256"
        }
      ],
      "name": "TransferFrom",
      "outputs": [],
      "stateMutability": "nonpayable",
      "type": "function"
    },
    {
      "inputs": [
        {
          "internalType": "uint256",
          "name": "vaultId",
          "type": "uint256"
        }
      ],
      "name": "updateVaultDebt",
      "outputs": [
        {
          "internalType": "uint256",
          "name": "",
          "type": "uint256"
        }
      ],
      "stateMutability": "view",
      "type": "function"
    },
    {
      "inputs": [
        {
          "internalType": "uint256",
          "name": "vaultID",
          "type": "uint256"
        },
        {
          "internalType": "uint256",
          "name": "amount",
          "type": "uint256"
        },
        {
          "internalType": "uint256",
          "name": "_front",
          "type": "uint256"
        }
      ],
      "name": "payBackToken",
      "outputs": [],
      "stateMutability": "nonpayable",
      "type": "function"
    },
    {
      "inputs": [
        {
          "internalType": "uint256",
          "name": "vaultID",
          "type": "uint256"
        },
        {
          "internalType": "uint256",
          "name": "amount",
          "type": "uint256"
        }
      ],
      "name": "withdrawCollateral",
      "outputs": [],
      "stateMutability": "nonpayable",
      "type": "function"
    },
    {
      "inputs": [
        {
          "internalType": "address",
          "name": "_owner",
          "type": "address"
        }
      ],
      "name": "getMaiBalance",
      "outputs": [
        {
          "internalType": "uint256",
          "name": "",
          "type": "uint256"
        }
      ],
      "stateMutability": "view",
      "type": "function"
    },
    {
      "inputs": [
        {
          "internalType": "uint256",
          "name": "_vaultId",
          "type": "uint256"
        }
      ],
      "name": "getVaultDebt",
      "outputs": [
        {
          "internalType": "uint256",
          "name": "",
          "type": "uint256"
        }
      ],
      "stateMutability": "view",
      "type": "function"
    },
    {
      "inputs": [
        {
          "internalType": "uint256",
          "name": "_vaultId",
          "type": "uint256"
        }
      ],
      "name": "getVaultCollateral",
      "outputs": [
        {
          "internalType": "uint256",
          "name": "",
          "type": "uint256"
        }
      ],
      "stateMutability": "view",
      "type": "function"
    },
    {
      "inputs": [
        {
          "internalType": "uint256",
          "name": "_vaultId",
          "type": "uint256"
        }
      ],
      "name": "getOwner",
      "outputs": [
        {
          "internalType": "address",
          "name": "",
          "type": "address"
        }
      ],
      "stateMutability": "view",
      "type": "function"
    },
    {
      "inputs": [
        {
          "internalType": "uint256",
          "name": "_amount",
          "type": "uint256"
        }
      ],
      "name": "getMai",
      "outputs": [],
      "stateMutability": "nonpayable",
      "type": "function"
    }
  ],
  "bytecode": "0x60806040526000600d553480156200001657600080fd5b50604051620042423803806200424283398181016040528101906200003c9190620002aa565b8181818181600090816200005191906200058f565b5080600190816200006391906200058f565b505050505082600760006101000a81548173ffffffffffffffffffffffffffffffffffffffff021916908373ffffffffffffffffffffffffffffffffffffffff16021790555050505062000676565b6000604051905090565b600080fd5b600080fd5b600073ffffffffffffffffffffffffffffffffffffffff82169050919050565b6000620000f382620000c6565b9050919050565b6200010581620000e6565b81146200011157600080fd5b50565b6000815190506200012581620000fa565b92915050565b600080fd5b600080fd5b6000601f19601f8301169050919050565b7f4e487b7100000000000000000000000000000000000000000000000000000000600052604160045260246000fd5b620001808262000135565b810181811067ffffffffffffffff82111715620001a257620001a162000146565b5b80604052505050565b6000620001b7620000b2565b9050620001c5828262000175565b919050565b600067ffffffffffffffff821115620001e857620001e762000146565b5b620001f38262000135565b9050602081019050919050565b60005b838110156200022057808201518184015260208101905062000203565b60008484015250505050565b6000620002436200023d84620001ca565b620001ab565b90508281526020810184848401111562000262576200026162000130565b5b6200026f84828562000200565b509392505050565b600082601f8301126200028f576200028e6200012b565b5b8151620002a18482602086016200022c565b91505092915050565b600080600060608486031215620002c657620002c5620000bc565b5b6000620002d68682870162000114565b935050602084015167ffffffffffffffff811115620002fa57620002f9620000c1565b5b620003088682870162000277565b925050604084015167ffffffffffffffff8111156200032c576200032b620000c1565b5b6200033a8682870162000277565b9150509250925092565b600081519050919050565b7f4e487b7100000000000000000000000000000000000000000000000000000000600052602260045260246000fd5b600060028204905060018216806200039757607f821691505b602082108103620003ad57620003ac6200034f565b5b50919050565b60008190508160005260206000209050919050565b60006020601f8301049050919050565b600082821b905092915050565b600060088302620004177fffffffffffffffffffffffffffffffffffffffffffffffffffffffffffffffff82620003d8565b620004238683620003d8565b95508019841693508086168417925050509392505050565b6000819050919050565b6000819050919050565b6000620004706200046a62000464846200043b565b62000445565b6200043b565b9050919050565b6000819050919050565b6200048c836200044f565b620004a46200049b8262000477565b848454620003e5565b825550505050565b600090565b620004bb620004ac565b620004c881848462000481565b505050565b5b81811015620004f057620004e4600082620004b1565b600181019050620004ce565b5050565b601f8211156200053f576200050981620003b3565b6200051484620003c8565b8101602085101562000524578190505b6200053c6200053385620003c8565b830182620004cd565b50505b505050565b600082821c905092915050565b6000620005646000198460080262000544565b1980831691505092915050565b60006200057f838362000551565b9150826002028217905092915050565b6200059a8262000344565b67ffffffffffffffff811115620005b657620005b562000146565b5b620005c282546200037e565b620005cf828285620004f4565b600060209050601f831160018114620006075760008415620005f2578287015190505b620005fe858262000571565b8655506200066e565b601f1984166200061786620003b3565b60005b8281101562000641578489015182556001820191506020850194506020810190506200061a565b868310156200066157848901516200065d601f89168262000551565b8355505b6001600288020188555050505b505050505050565b613bbc80620006866000396000f3fe608060405234801561001057600080fd5b50600436106101f05760003560e01c8063719742621161010f578063c0d84ce5116100a2578063eac989f811610071578063eac989f814610625578063ece1373214610643578063ee3e98e71461065f578063f5b36dee1461068f576101f0565b8063c0d84ce514610579578063c41a360a14610595578063c87b56dd146105c5578063e985e9c5146105f5576101f0565b806395d89b41116100de57806395d89b411461050757806397a41b8e14610525578063a22cb46514610541578063b88d4fde1461055d576101f0565b8063719742621461045b578063767a7b051461048b5780639213b124146104a757806393ee476a146104d7576101f0565b806342842e0e1161018757806363bda6e11161015657806363bda6e1146103af5780636b5f6fda146103df5780636e1645e7146103fb57806370a082311461042b576101f0565b806342842e0e14610327578063570b2b84146103435780635d12928b146103615780636352211e1461037f576101f0565b8063095ea7b3116101c3578063095ea7b3146102a357806323b872dd146102bf5780633128ef27146102db57806335836f15146102f7576101f0565b806301ffc9a7146101f5578063025e7c271461022557806306fdde0314610255578063081812fc14610273575b600080fd5b61020f600480360381019061020a91906128bd565b6106bf565b60405161021c9190612905565b60405180910390f35b61023f600480360381019061023a9190612956565b6107a1565b60405161024c91906129c4565b60405180910390f35b61025d6107d4565b60405161026a9190612a6f565b60405180910390f35b61028d60048036038101906102889190612956565b610866565b60405161029a91906129c4565b60405180910390f35b6102bd60048036038101906102b89190612abd565b6108ac565b005b6102d960048036038101906102d49190612afd565b6109c3565b005b6102f560048036038101906102f09190612b50565b610a23565b005b610311600480360381019061030c9190612956565b610a77565b60405161031e9190612bb2565b60405180910390f35b610341600480360381019061033c9190612afd565b610a94565b005b61034b610ab4565b6040516103589190612c2c565b60405180910390f35b610369610ada565b6040516103769190612bb2565b60405180910390f35b61039960048036038101906103949190612956565b610b17565b6040516103a691906129c4565b60405180910390f35b6103c960048036038101906103c49190612c47565b610b9d565b6040516103d69190612bb2565b60405180910390f35b6103f960048036038101906103f49190612956565b610c42565b005b61041560048036038101906104109190612c47565b610c9b565b6040516104229190612bb2565b60405180910390f35b61044560048036038101906104409190612c47565b610cb3565b6040516104529190612bb2565b60405180910390f35b61047560048036038101906104709190612956565b610d6a565b6040516104829190612bb2565b60405180910390f35b6104a560048036038101906104a09190612c74565b610d82565b005b6104c160048036038101906104bc9190612956565b610f71565b6040516104ce9190612bb2565b60405180910390f35b6104f160048036038101906104ec9190612956565b610f89565b6040516104fe9190612bb2565b60405180910390f35b61050f610fa6565b60405161051c9190612a6f565b60405180910390f35b61053f600480360381019061053a9190612b50565b611038565b005b61055b60048036038101906105569190612ce0565b61119e565b005b61057760048036038101906105729190612e55565b6111b4565b005b610593600480360381019061058e9190612afd565b611216565b005b6105af60048036038101906105aa9190612956565b6113bc565b6040516105bc91906129c4565b60405180910390f35b6105df60048036038101906105da9190612956565b6113f9565b6040516105ec9190612a6f565b60405180910390f35b61060f600480360381019061060a9190612ed8565b611461565b60405161061c9190612905565b60405180910390f35b61062d6114f5565b60405161063a9190612a6f565b60405180910390f35b61065d60048036038101906106589190612c74565b611583565b005b61067960048036038101906106749190612956565b611627565b6040516106869190612bb2565b60405180910390f35b6106a960048036038101906106a49190612c47565b611644565b6040516106b69190612bb2565b60405180910390f35b60007f80ac58cd000000000000000000000000000000000000000000000000000000007bffffffffffffffffffffffffffffffffffffffffffffffffffffffff1916827bffffffffffffffffffffffffffffffffffffffffffffffffffffffff1916148061078a57507f5b5e139f000000000000000000000000000000000000000000000000000000007bffffffffffffffffffffffffffffffffffffffffffffffffffffffff1916827bffffffffffffffffffffffffffffffffffffffffffffffffffffffff1916145b8061079a57506107998261165c565b5b9050919050565b60086020528060005260406000206000915054906101000a900473ffffffffffffffffffffffffffffffffffffffff1681565b6060600080546107e390612f47565b80601f016020809104026020016040519081016040528092919081815260200182805461080f90612f47565b801561085c5780601f106108315761010080835404028352916020019161085c565b820191906000526020600020905b81548152906001019060200180831161083f57829003601f168201915b5050505050905090565b6000610871826116c6565b6004600083815260200190815260200160002060009054906101000a900473ffffffffffffffffffffffffffffffffffffffff169050919050565b60006108b782610b17565b90508073ffffffffffffffffffffffffffffffffffffffff168373ffffffffffffffffffffffffffffffffffffffff1603610927576040517f08c379a000000000000000000000000000000000000000000000000000000000815260040161091e90612fea565b60405180910390fd5b8073ffffffffffffffffffffffffffffffffffffffff16610946611711565b73ffffffffffffffffffffffffffffffffffffffff16148061097557506109748161096f611711565b611461565b5b6109b4576040517f08c379a00000000000000000000000000000000000000000000000000000000081526004016109ab9061307c565b60405180910390fd5b6109be8383611719565b505050565b6109d46109ce611711565b826117d2565b610a13576040517f08c379a0000000000000000000000000000000000000000000000000000000008152600401610a0a9061310e565b60405180910390fd5b610a1e838383611867565b505050565b610a72333084600760009054906101000a900473ffffffffffffffffffffffffffffffffffffffff1673ffffffffffffffffffffffffffffffffffffffff16611b60909392919063ffffffff16565b505050565b6000600b6000838152602001908152602001600020549050919050565b610aaf838383604051806020016040528060008152506111b4565b505050565b600760009054906101000a900473ffffffffffffffffffffffffffffffffffffffff1681565b600080600d5490506001600d54610af1919061315d565b600d8190555080600d541015610b0657600080fd5b610b103382611be9565b8091505090565b600080610b2383611e06565b9050600073ffffffffffffffffffffffffffffffffffffffff168173ffffffffffffffffffffffffffffffffffffffff1603610b94576040517f08c379a0000000000000000000000000000000000000000000000000000000008152600401610b8b906131dd565b60405180910390fd5b80915050919050565b6000600760009054906101000a900473ffffffffffffffffffffffffffffffffffffffff1673ffffffffffffffffffffffffffffffffffffffff166370a08231836040518263ffffffff1660e01b8152600401610bfa91906129c4565b602060405180830381865afa158015610c17573d6000803e3d6000fd5b505050506040513d601f19601f82011682018060405250810190610c3b9190613212565b9050919050565b80600c60003373ffffffffffffffffffffffffffffffffffffffff1673ffffffffffffffffffffffffffffffffffffffff1681526020019081526020016000206000828254610c91919061315d565b9250508190555050565b60096020528060005260406000206000915090505481565b60008073ffffffffffffffffffffffffffffffffffffffff168273ffffffffffffffffffffffffffffffffffffffff1603610d23576040517f08c379a0000000000000000000000000000000000000000000000000000000008152600401610d1a906132b1565b60405180910390fd5b600360008373ffffffffffffffffffffffffffffffffffffffff1673ffffffffffffffffffffffffffffffffffffffff168152602001908152602001600020549050919050565b600b6020528060005260406000206000915090505481565b3373ffffffffffffffffffffffffffffffffffffffff166008600084815260200190815260200160002060009054906101000a900473ffffffffffffffffffffffffffffffffffffffff1673ffffffffffffffffffffffffffffffffffffffff1614610e23576040517f08c379a0000000000000000000000000000000000000000000000000000000008152600401610e1a90613343565b60405180910390fd5b80600a6000848152602001908152602001600020541015610e79576040517f08c379a0000000000000000000000000000000000000000000000000000000008152600401610e70906133af565b60405180910390fd5b80600a600084815260200190815260200160002054610e9891906133cf565b600b6000848152602001908152602001600020541115610eed576040517f08c379a0000000000000000000000000000000000000000000000000000000008152600401610ee4906133af565b60405180910390fd5b80600a60008481526020019081526020016000206000828254610f1091906133cf565b9250508190555080600c60003373ffffffffffffffffffffffffffffffffffffffff1673ffffffffffffffffffffffffffffffffffffffff1681526020019081526020016000206000828254610f66919061315d565b925050819055505050565b600a6020528060005260406000206000915090505481565b6000600b6000838152602001908152602001600020549050919050565b606060018054610fb590612f47565b80601f0160208091040260200160405190810160405280929190818152602001828054610fe190612f47565b801561102e5780601f106110035761010080835404028352916020019161102e565b820191906000526020600020905b81548152906001019060200180831161101157829003601f168201915b5050505050905090565b3373ffffffffffffffffffffffffffffffffffffffff1661105884610b17565b73ffffffffffffffffffffffffffffffffffffffff16146110ae576040517f08c379a00000000000000000000000000000000000000000000000000000000081526004016110a590613475565b60405180910390fd5b81600b600085815260200190815260200160002054600a6000868152602001908152602001600020546110e191906133cf565b1015611122576040517f08c379a0000000000000000000000000000000000000000000000000000000008152600401611119906133af565b60405180910390fd5b61116f3383600760009054906101000a900473ffffffffffffffffffffffffffffffffffffffff1673ffffffffffffffffffffffffffffffffffffffff16611e439092919063ffffffff16565b81600b60008581526020019081526020016000206000828254611192919061315d565b92505081905550505050565b6111b06111a9611711565b8383611ec9565b5050565b6111c56111bf611711565b836117d2565b611204576040517f08c379a00000000000000000000000000000000000000000000000000000000081526004016111fb9061310e565b60405180910390fd5b61121084848484612035565b50505050565b3373ffffffffffffffffffffffffffffffffffffffff166008600083815260200190815260200160002060009054906101000a900473ffffffffffffffffffffffffffffffffffffffff1673ffffffffffffffffffffffffffffffffffffffff16146112b7576040517f08c379a00000000000000000000000000000000000000000000000000000000081526004016112ae90613475565b60405180910390fd5b816008600083815260200190815260200160002060006101000a81548173ffffffffffffffffffffffffffffffffffffffff021916908373ffffffffffffffffffffffffffffffffffffffff1602179055506001600960008573ffffffffffffffffffffffffffffffffffffffff1673ffffffffffffffffffffffffffffffffffffffff168152602001908152602001600020600082825461135991906133cf565b925050819055506001600960008473ffffffffffffffffffffffffffffffffffffffff1673ffffffffffffffffffffffffffffffffffffffff16815260200190815260200160002060008282546113b0919061315d565b92505081905550505050565b60006008600083815260200190815260200160002060009054906101000a900473ffffffffffffffffffffffffffffffffffffffff169050919050565b6060611404826116c6565b600061140e612091565b9050600081511161142e5760405180602001604052806000815250611459565b80611438846120a8565b6040516020016114499291906134d1565b6040516020818303038152906040525b915050919050565b6000600560008473ffffffffffffffffffffffffffffffffffffffff1673ffffffffffffffffffffffffffffffffffffffff16815260200190815260200160002060008373ffffffffffffffffffffffffffffffffffffffff1673ffffffffffffffffffffffffffffffffffffffff16815260200190815260200160002060009054906101000a900460ff16905092915050565b6006805461150290612f47565b80601f016020809104026020016040519081016040528092919081815260200182805461152e90612f47565b801561157b5780601f106115505761010080835404028352916020019161157b565b820191906000526020600020905b81548152906001019060200180831161155e57829003601f168201915b505050505081565b3373ffffffffffffffffffffffffffffffffffffffff166115a383610b17565b73ffffffffffffffffffffffffffffffffffffffff16146115f9576040517f08c379a00000000000000000000000000000000000000000000000000000000081526004016115f090613475565b60405180910390fd5b80600a6000848152602001908152602001600020600082825461161c919061315d565b925050819055505050565b6000600a6000838152602001908152602001600020549050919050565b600c6020528060005260406000206000915090505481565b60007f01ffc9a7000000000000000000000000000000000000000000000000000000007bffffffffffffffffffffffffffffffffffffffffffffffffffffffff1916827bffffffffffffffffffffffffffffffffffffffffffffffffffffffff1916149050919050565b6116cf81612176565b61170e576040517f08c379a0000000000000000000000000000000000000000000000000000000008152600401611705906131dd565b60405180910390fd5b50565b600033905090565b816004600083815260200190815260200160002060006101000a81548173ffffffffffffffffffffffffffffffffffffffff021916908373ffffffffffffffffffffffffffffffffffffffff160217905550808273ffffffffffffffffffffffffffffffffffffffff1661178c83610b17565b73ffffffffffffffffffffffffffffffffffffffff167f8c5be1e5ebec7d5bd14f71427d1e84f3dd0314c0f7b2291e5b200ac8c7c3b92560405160405180910390a45050565b6000806117de83610b17565b90508073ffffffffffffffffffffffffffffffffffffffff168473ffffffffffffffffffffffffffffffffffffffff161480611820575061181f8185611461565b5b8061185e57508373ffffffffffffffffffffffffffffffffffffffff1661184684610866565b73ffffffffffffffffffffffffffffffffffffffff16145b91505092915050565b8273ffffffffffffffffffffffffffffffffffffffff1661188782610b17565b73ffffffffffffffffffffffffffffffffffffffff16146118dd576040517f08c379a00000000000000000000000000000000000000000000000000000000081526004016118d490613567565b60405180910390fd5b600073ffffffffffffffffffffffffffffffffffffffff168273ffffffffffffffffffffffffffffffffffffffff160361194c576040517f08c379a0000000000000000000000000000000000000000000000000000000008152600401611943906135f9565b60405180910390fd5b61195983838360016121b7565b8273ffffffffffffffffffffffffffffffffffffffff1661197982610b17565b73ffffffffffffffffffffffffffffffffffffffff16146119cf576040517f08c379a00000000000000000000000000000000000000000000000000000000081526004016119c690613567565b60405180910390fd5b6004600082815260200190815260200160002060006101000a81549073ffffffffffffffffffffffffffffffffffffffff02191690556001600360008573ffffffffffffffffffffffffffffffffffffffff1673ffffffffffffffffffffffffffffffffffffffff168152602001908152602001600020600082825403925050819055506001600360008473ffffffffffffffffffffffffffffffffffffffff1673ffffffffffffffffffffffffffffffffffffffff16815260200190815260200160002060008282540192505081905550816002600083815260200190815260200160002060006101000a81548173ffffffffffffffffffffffffffffffffffffffff021916908373ffffffffffffffffffffffffffffffffffffffff160217905550808273ffffffffffffffffffffffffffffffffffffffff168473ffffffffffffffffffffffffffffffffffffffff167fddf252ad1be2c89b69c2b068fc378daa952ba7f163c4a11628f55a4df523b3ef60405160405180910390a4611b5b83838360016122dd565b505050565b611be3846323b872dd60e01b858585604051602401611b8193929190613619565b604051602081830303815290604052907bffffffffffffffffffffffffffffffffffffffffffffffffffffffff19166020820180517bffffffffffffffffffffffffffffffffffffffffffffffffffffffff83818316178352505050506122e3565b50505050565b600073ffffffffffffffffffffffffffffffffffffffff168273ffffffffffffffffffffffffffffffffffffffff1603611c58576040517f08c379a0000000000000000000000000000000000000000000000000000000008152600401611c4f9061369c565b60405180910390fd5b611c6181612176565b15611ca1576040517f08c379a0000000000000000000000000000000000000000000000000000000008152600401611c9890613708565b60405180910390fd5b611caf6000838360016121b7565b611cb881612176565b15611cf8576040517f08c379a0000000000000000000000000000000000000000000000000000000008152600401611cef90613708565b60405180910390fd5b6001600360008473ffffffffffffffffffffffffffffffffffffffff1673ffffffffffffffffffffffffffffffffffffffff16815260200190815260200160002060008282540192505081905550816002600083815260200190815260200160002060006101000a81548173ffffffffffffffffffffffffffffffffffffffff021916908373ffffffffffffffffffffffffffffffffffffffff160217905550808273ffffffffffffffffffffffffffffffffffffffff16600073ffffffffffffffffffffffffffffffffffffffff167fddf252ad1be2c89b69c2b068fc378daa952ba7f163c4a11628f55a4df523b3ef60405160405180910390a4611e026000838360016122dd565b5050565b60006002600083815260200190815260200160002060009054906101000a900473ffffffffffffffffffffffffffffffffffffffff169050919050565b611ec48363a9059cbb60e01b8484604051602401611e62929190613728565b604051602081830303815290604052907bffffffffffffffffffffffffffffffffffffffffffffffffffffffff19166020820180517bffffffffffffffffffffffffffffffffffffffffffffffffffffffff83818316178352505050506122e3565b505050565b8173ffffffffffffffffffffffffffffffffffffffff168373ffffffffffffffffffffffffffffffffffffffff1603611f37576040517f08c379a0000000000000000000000000000000000000000000000000000000008152600401611f2e9061379d565b60405180910390fd5b80600560008573ffffffffffffffffffffffffffffffffffffffff1673ffffffffffffffffffffffffffffffffffffffff16815260200190815260200160002060008473ffffffffffffffffffffffffffffffffffffffff1673ffffffffffffffffffffffffffffffffffffffff16815260200190815260200160002060006101000a81548160ff0219169083151502179055508173ffffffffffffffffffffffffffffffffffffffff168373ffffffffffffffffffffffffffffffffffffffff167f17307eab39ab6107e8899845ad3d59bd9653f200f220920489ca2b5937696c31836040516120289190612905565b60405180910390a3505050565b612040848484611867565b61204c848484846123aa565b61208b576040517f08c379a00000000000000000000000000000000000000000000000000000000081526004016120829061382f565b60405180910390fd5b50505050565b606060405180602001604052806000815250905090565b6060600060016120b784612531565b01905060008167ffffffffffffffff8111156120d6576120d5612d2a565b5b6040519080825280601f01601f1916602001820160405280156121085781602001600182028036833780820191505090505b509050600082602001820190505b60011561216b578080600190039150507f3031323334353637383961626364656600000000000000000000000000000000600a86061a8153600a858161215f5761215e61384f565b5b04945060008503612116575b819350505050919050565b60008073ffffffffffffffffffffffffffffffffffffffff1661219883611e06565b73ffffffffffffffffffffffffffffffffffffffff1614159050919050565b60018111156122d757600073ffffffffffffffffffffffffffffffffffffffff168473ffffffffffffffffffffffffffffffffffffffff161461224b5780600360008673ffffffffffffffffffffffffffffffffffffffff1673ffffffffffffffffffffffffffffffffffffffff168152602001908152602001600020600082825461224391906133cf565b925050819055505b600073ffffffffffffffffffffffffffffffffffffffff168373ffffffffffffffffffffffffffffffffffffffff16146122d65780600360008573ffffffffffffffffffffffffffffffffffffffff1673ffffffffffffffffffffffffffffffffffffffff16815260200190815260200160002060008282546122ce919061315d565b925050819055505b5b50505050565b50505050565b6000612345826040518060400160405280602081526020017f5361666545524332303a206c6f772d6c6576656c2063616c6c206661696c65648152508573ffffffffffffffffffffffffffffffffffffffff166126849092919063ffffffff16565b90506000815111156123a557808060200190518101906123659190613893565b6123a4576040517f08c379a000000000000000000000000000000000000000000000000000000000815260040161239b90613932565b60405180910390fd5b5b505050565b60006123cb8473ffffffffffffffffffffffffffffffffffffffff1661269c565b15612524578373ffffffffffffffffffffffffffffffffffffffff1663150b7a026123f4611711565b8786866040518563ffffffff1660e01b815260040161241694939291906139a7565b6020604051808303816000875af192505050801561245257506040513d601f19601f8201168201806040525081019061244f9190613a08565b60015b6124d4573d8060008114612482576040519150601f19603f3d011682016040523d82523d6000602084013e612487565b606091505b5060008151036124cc576040517f08c379a00000000000000000000000000000000000000000000000000000000081526004016124c39061382f565b60405180910390fd5b805181602001fd5b63150b7a0260e01b7bffffffffffffffffffffffffffffffffffffffffffffffffffffffff1916817bffffffffffffffffffffffffffffffffffffffffffffffffffffffff191614915050612529565b600190505b949350505050565b600080600090507a184f03e93ff9f4daa797ed6e38ed64bf6a1f010000000000000000831061258f577a184f03e93ff9f4daa797ed6e38ed64bf6a1f01000000000000000083816125855761258461384f565b5b0492506040810190505b6d04ee2d6d415b85acef810000000083106125cc576d04ee2d6d415b85acef810000000083816125c2576125c161384f565b5b0492506020810190505b662386f26fc1000083106125fb57662386f26fc1000083816125f1576125f061384f565b5b0492506010810190505b6305f5e1008310612624576305f5e100838161261a5761261961384f565b5b0492506008810190505b612710831061264957612710838161263f5761263e61384f565b5b0492506004810190505b6064831061266c57606483816126625761266161384f565b5b0492506002810190505b600a831061267b576001810190505b80915050919050565b606061269384846000856126bf565b90509392505050565b6000808273ffffffffffffffffffffffffffffffffffffffff163b119050919050565b606082471015612704576040517f08c379a00000000000000000000000000000000000000000000000000000000081526004016126fb90613aa7565b60405180910390fd5b6000808673ffffffffffffffffffffffffffffffffffffffff16858760405161272d9190613b03565b60006040518083038185875af1925050503d806000811461276a576040519150601f19603f3d011682016040523d82523d6000602084013e61276f565b606091505b50915091506127808783838761278c565b92505050949350505050565b606083156127ee5760008351036127e6576127a68561269c565b6127e5576040517f08c379a00000000000000000000000000000000000000000000000000000000081526004016127dc90613b66565b60405180910390fd5b5b8290506127f9565b6127f88383612801565b5b949350505050565b6000825111156128145781518083602001fd5b806040517f08c379a00000000000000000000000000000000000000000000000000000000081526004016128489190612a6f565b60405180910390fd5b6000604051905090565b600080fd5b600080fd5b60007fffffffff0000000000000000000000000000000000000000000000000000000082169050919050565b61289a81612865565b81146128a557600080fd5b50565b6000813590506128b781612891565b92915050565b6000602082840312156128d3576128d261285b565b5b60006128e1848285016128a8565b91505092915050565b60008115159050919050565b6128ff816128ea565b82525050565b600060208201905061291a60008301846128f6565b92915050565b6000819050919050565b61293381612920565b811461293e57600080fd5b50565b6000813590506129508161292a565b92915050565b60006020828403121561296c5761296b61285b565b5b600061297a84828501612941565b91505092915050565b600073ffffffffffffffffffffffffffffffffffffffff82169050919050565b60006129ae82612983565b9050919050565b6129be816129a3565b82525050565b60006020820190506129d960008301846129b5565b92915050565b600081519050919050565b600082825260208201905092915050565b60005b83811015612a195780820151818401526020810190506129fe565b60008484015250505050565b6000601f19601f8301169050919050565b6000612a41826129df565b612a4b81856129ea565b9350612a5b8185602086016129fb565b612a6481612a25565b840191505092915050565b60006020820190508181036000830152612a898184612a36565b905092915050565b612a9a816129a3565b8114612aa557600080fd5b50565b600081359050612ab781612a91565b92915050565b60008060408385031215612ad457612ad361285b565b5b6000612ae285828601612aa8565b9250506020612af385828601612941565b9150509250929050565b600080600060608486031215612b1657612b1561285b565b5b6000612b2486828701612aa8565b9350506020612b3586828701612aa8565b9250506040612b4686828701612941565b9150509250925092565b600080600060608486031215612b6957612b6861285b565b5b6000612b7786828701612941565b9350506020612b8886828701612941565b9250506040612b9986828701612941565b9150509250925092565b612bac81612920565b82525050565b6000602082019050612bc76000830184612ba3565b92915050565b6000819050919050565b6000612bf2612bed612be884612983565b612bcd565b612983565b9050919050565b6000612c0482612bd7565b9050919050565b6000612c1682612bf9565b9050919050565b612c2681612c0b565b82525050565b6000602082019050612c416000830184612c1d565b92915050565b600060208284031215612c5d57612c5c61285b565b5b6000612c6b84828501612aa8565b91505092915050565b60008060408385031215612c8b57612c8a61285b565b5b6000612c9985828601612941565b9250506020612caa85828601612941565b9150509250929050565b612cbd816128ea565b8114612cc857600080fd5b50565b600081359050612cda81612cb4565b92915050565b60008060408385031215612cf757612cf661285b565b5b6000612d0585828601612aa8565b9250506020612d1685828601612ccb565b9150509250929050565b600080fd5b600080fd5b7f4e487b7100000000000000000000000000000000000000000000000000000000600052604160045260246000fd5b612d6282612a25565b810181811067ffffffffffffffff82111715612d8157612d80612d2a565b5b80604052505050565b6000612d94612851565b9050612da08282612d59565b919050565b600067ffffffffffffffff821115612dc057612dbf612d2a565b5b612dc982612a25565b9050602081019050919050565b82818337600083830152505050565b6000612df8612df384612da5565b612d8a565b905082815260208101848484011115612e1457612e13612d25565b5b612e1f848285612dd6565b509392505050565b600082601f830112612e3c57612e3b612d20565b5b8135612e4c848260208601612de5565b91505092915050565b60008060008060808587031215612e6f57612e6e61285b565b5b6000612e7d87828801612aa8565b9450506020612e8e87828801612aa8565b9350506040612e9f87828801612941565b925050606085013567ffffffffffffffff811115612ec057612ebf612860565b5b612ecc87828801612e27565b91505092959194509250565b60008060408385031215612eef57612eee61285b565b5b6000612efd85828601612aa8565b9250506020612f0e85828601612aa8565b9150509250929050565b7f4e487b7100000000000000000000000000000000000000000000000000000000600052602260045260246000fd5b60006002820490506001821680612f5f57607f821691505b602082108103612f7257612f71612f18565b5b50919050565b7f4552433732313a20617070726f76616c20746f2063757272656e74206f776e6560008201527f7200000000000000000000000000000000000000000000000000000000000000602082015250565b6000612fd46021836129ea565b9150612fdf82612f78565b604082019050919050565b6000602082019050818103600083015261300381612fc7565b9050919050565b7f4552433732313a20617070726f76652063616c6c6572206973206e6f7420746f60008201527f6b656e206f776e6572206f7220617070726f76656420666f7220616c6c000000602082015250565b6000613066603d836129ea565b91506130718261300a565b604082019050919050565b6000602082019050818103600083015261309581613059565b9050919050565b7f4552433732313a2063616c6c6572206973206e6f7420746f6b656e206f776e6560008201527f72206f7220617070726f76656400000000000000000000000000000000000000602082015250565b60006130f8602d836129ea565b91506131038261309c565b604082019050919050565b60006020820190508181036000830152613127816130eb565b9050919050565b7f4e487b7100000000000000000000000000000000000000000000000000000000600052601160045260246000fd5b600061316882612920565b915061317383612920565b925082820190508082111561318b5761318a61312e565b5b92915050565b7f4552433732313a20696e76616c696420746f6b656e2049440000000000000000600082015250565b60006131c76018836129ea565b91506131d282613191565b602082019050919050565b600060208201905081810360008301526131f6816131ba565b9050919050565b60008151905061320c8161292a565b92915050565b6000602082840312156132285761322761285b565b5b6000613236848285016131fd565b91505092915050565b7f4552433732313a2061646472657373207a65726f206973206e6f74206120766160008201527f6c6964206f776e65720000000000000000000000000000000000000000000000602082015250565b600061329b6029836129ea565b91506132a68261323f565b604082019050919050565b600060208201905081810360008301526132ca8161328e565b9050919050565b7f596f7520617265206e6f7420746865206f776e6572206f66207468697320766160008201527f756c740000000000000000000000000000000000000000000000000000000000602082015250565b600061332d6023836129ea565b9150613338826132d1565b604082019050919050565b6000602082019050818103600083015261335c81613320565b9050919050565b7f596f7520646f6e2774206861766520656e6f75676820636f6c6c61746572616c600082015250565b60006133996020836129ea565b91506133a482613363565b602082019050919050565b600060208201905081810360008301526133c88161338c565b9050919050565b60006133da82612920565b91506133e583612920565b92508282039050818111156133fd576133fc61312e565b5b92915050565b7f596f7520617265206e6f7420746865206f776e6572206f662074686973204e4660008201527f5400000000000000000000000000000000000000000000000000000000000000602082015250565b600061345f6021836129ea565b915061346a82613403565b604082019050919050565b6000602082019050818103600083015261348e81613452565b9050919050565b600081905092915050565b60006134ab826129df565b6134b58185613495565b93506134c58185602086016129fb565b80840191505092915050565b60006134dd82856134a0565b91506134e982846134a0565b91508190509392505050565b7f4552433732313a207472616e736665722066726f6d20696e636f72726563742060008201527f6f776e6572000000000000000000000000000000000000000000000000000000602082015250565b60006135516025836129ea565b915061355c826134f5565b604082019050919050565b6000602082019050818103600083015261358081613544565b9050919050565b7f4552433732313a207472616e7366657220746f20746865207a65726f2061646460008201527f7265737300000000000000000000000000000000000000000000000000000000602082015250565b60006135e36024836129ea565b91506135ee82613587565b604082019050919050565b60006020820190508181036000830152613612816135d6565b9050919050565b600060608201905061362e60008301866129b5565b61363b60208301856129b5565b6136486040830184612ba3565b949350505050565b7f4552433732313a206d696e7420746f20746865207a65726f2061646472657373600082015250565b60006136866020836129ea565b915061369182613650565b602082019050919050565b600060208201905081810360008301526136b581613679565b9050919050565b7f4552433732313a20746f6b656e20616c7265616479206d696e74656400000000600082015250565b60006136f2601c836129ea565b91506136fd826136bc565b602082019050919050565b60006020820190508181036000830152613721816136e5565b9050919050565b600060408201905061373d60008301856129b5565b61374a6020830184612ba3565b9392505050565b7f4552433732313a20617070726f766520746f2063616c6c657200000000000000600082015250565b60006137876019836129ea565b915061379282613751565b602082019050919050565b600060208201905081810360008301526137b68161377a565b9050919050565b7f4552433732313a207472616e7366657220746f206e6f6e20455243373231526560008201527f63656976657220696d706c656d656e7465720000000000000000000000000000602082015250565b60006138196032836129ea565b9150613824826137bd565b604082019050919050565b600060208201905081810360008301526138488161380c565b9050919050565b7f4e487b7100000000000000000000000000000000000000000000000000000000600052601260045260246000fd5b60008151905061388d81612cb4565b92915050565b6000602082840312156138a9576138a861285b565b5b60006138b78482850161387e565b91505092915050565b7f5361666545524332303a204552433230206f7065726174696f6e20646964206e60008201527f6f74207375636365656400000000000000000000000000000000000000000000602082015250565b600061391c602a836129ea565b9150613927826138c0565b604082019050919050565b6000602082019050818103600083015261394b8161390f565b9050919050565b600081519050919050565b600082825260208201905092915050565b600061397982613952565b613983818561395d565b93506139938185602086016129fb565b61399c81612a25565b840191505092915050565b60006080820190506139bc60008301876129b5565b6139c960208301866129b5565b6139d66040830185612ba3565b81810360608301526139e8818461396e565b905095945050505050565b600081519050613a0281612891565b92915050565b600060208284031215613a1e57613a1d61285b565b5b6000613a2c848285016139f3565b91505092915050565b7f416464726573733a20696e73756666696369656e742062616c616e636520666f60008201527f722063616c6c0000000000000000000000000000000000000000000000000000602082015250565b6000613a916026836129ea565b9150613a9c82613a35565b604082019050919050565b60006020820190508181036000830152613ac081613a84565b9050919050565b600081905092915050565b6000613add82613952565b613ae78185613ac7565b9350613af78185602086016129fb565b80840191505092915050565b6000613b0f8284613ad2565b915081905092915050565b7f416464726573733a2063616c6c20746f206e6f6e2d636f6e7472616374000000600082015250565b6000613b50601d836129ea565b9150613b5b82613b1a565b602082019050919050565b60006020820190508181036000830152613b7f81613b43565b905091905056fea26469706673582212201c616aea322f84e3e2abebc8e7997d07951185843d852509bb4613ac67e7877864736f6c63430008110033",
  "immutableReferences": {},
  "source": "pragma solidity ^0.8.1; // regarder la version sur les contracts de qidao 0.5.5 demander  Nandy quel est le mieux \n\nimport \"@openzeppelin/contracts/token/ERC721/IERC721.sol\";\nimport \"@openzeppelin/contracts/token/ERC721/ERC721.sol\";\n//import \"@openzeppelin/contracts/token/ERC721/extensions/ERC721Enumerable.sol\";\nimport \"@openzeppelin/contracts/security/ReentrancyGuard.sol\";\nimport \"@openzeppelin/contracts/token/ERC20/ERC20.sol\";\n\n\n\npragma solidity ^0.8.0;\n\n\n/**\n * @title SafeERC20\n * @dev Wrappers around ERC20 operations that throw on failure (when the token\n * contract returns false). Tokens that return no value (and instead revert or\n * throw on failure) are also supported, non-reverting calls are assumed to be\n * successful.\n * To use this library you can add a `using SafeERC20 for IERC20;` statement to your contract,\n * which allows you to call the safe operations as `token.safeTransfer(...)`, etc.\n */\nlibrary SafeERC20 {\n    using Address for address;\n\n    function safeTransfer(\n        IERC20 token,\n        address to,\n        uint256 value\n    ) internal {\n        _callOptionalReturn(token, abi.encodeWithSelector(token.transfer.selector, to, value));\n    }\n\n    function safeTransferFrom(\n        IERC20 token,\n        address from,\n        address to,\n        uint256 value\n    ) internal {\n        _callOptionalReturn(token, abi.encodeWithSelector(token.transferFrom.selector, from, to, value));\n    }\n\n    /**\n     * @dev Deprecated. This function has issues similar to the ones found in\n     * {IERC20-approve}, and its usage is discouraged.\n     *\n     * Whenever possible, use {safeIncreaseAllowance} and\n     * {safeDecreaseAllowance} instead.\n     */\n    function safeApprove(\n        IERC20 token,\n        address spender,\n        uint256 value\n    ) internal {\n        // safeApprove should only be called when setting an initial allowance,\n        // or when resetting it to zero. To increase and decrease it, use\n        // 'safeIncreaseAllowance' and 'safeDecreaseAllowance'\n        require(\n            (value == 0) || (token.allowance(address(this), spender) == 0),\n            \"SafeERC20: approve from non-zero to non-zero allowance\"\n        );\n        _callOptionalReturn(token, abi.encodeWithSelector(token.approve.selector, spender, value));\n    }\n\n    function safeIncreaseAllowance(\n        IERC20 token,\n        address spender,\n        uint256 value\n    ) internal {\n        uint256 newAllowance = token.allowance(address(this), spender) + value;\n        _callOptionalReturn(token, abi.encodeWithSelector(token.approve.selector, spender, newAllowance));\n    }\n\n    function safeDecreaseAllowance(\n        IERC20 token,\n        address spender,\n        uint256 value\n    ) internal {\n        unchecked {\n            uint256 oldAllowance = token.allowance(address(this), spender);\n            require(oldAllowance >= value, \"SafeERC20: decreased allowance below zero\");\n            uint256 newAllowance = oldAllowance - value;\n            _callOptionalReturn(token, abi.encodeWithSelector(token.approve.selector, spender, newAllowance));\n        }\n    }\n\n    /**\n     * @dev Imitates a Solidity high-level call (i.e. a regular function call to a contract), relaxing the requirement\n     * on the return value: the return value is optional (but if data is returned, it must not be false).\n     * @param token The token targeted by the call.\n     * @param data The call data (encoded using abi.encode or one of its variants).\n     */\n    function _callOptionalReturn(IERC20 token, bytes memory data) private {\n        // We need to perform a low level call here, to bypass Solidity's return data size checking mechanism, since\n        // we're implementing it ourselves. We use {Address.functionCall} to perform this call, which verifies that\n        // the target address contains contract code and also asserts for success in the low-level call.\n\n        bytes memory returndata = address(token).functionCall(data, \"SafeERC20: low-level call failed\");\n        if (returndata.length > 0) {\n            // Return data is optional\n            require(abi.decode(returndata, (bool)), \"SafeERC20: ERC20 operation did not succeed\");\n        }\n    }\n}\n\n\ncontract VaultNFTv4 is ERC721 {\n\n    string public uri;\n\n    constructor(string memory name, string memory symbol)\n        ERC721(name, symbol){}\n    \n\n  \n    \n}\n\ncontract FakeVault is VaultNFTv4{\n        using SafeERC20 for ERC20;\n        ERC20 public mai;\n\n\n\n    mapping (uint256 => address) public owners; // associe un nft a son owner\n    mapping (address => uint256) public erc721Balance; // balance de nft d'un owner\n    mapping(uint256 => uint256) public _deposit; // deposit dans le vault : vault => montant total dpos\n    mapping(uint256 => uint256) public maiDebt; // montant de mai emprunt par une vault : vault => debt\n    mapping(address => uint256) public maiBalance; // monta de may dtenu par chaque addresse\n\n    uint256 vaultCount = 0;\n    \n\n    constructor(address _mai, string memory name, string memory symbol)VaultNFTv4(name, symbol){\n        mai = ERC20(_mai); \n    }\n\n\n    function createVault() public returns (uint256) {\n        uint256 id = vaultCount;\n        vaultCount = vaultCount + 1;\n        require(vaultCount >= id);\n        _mint(msg.sender, id);\n        return id;\n    }\n\n\n    function borrowToken(uint256 _erc721_Id,uint256 _amount,uint256 _front) public  {\n        require(ownerOf(_erc721_Id) == msg.sender, \"You are not the owner of this NFT\");\n        require(_deposit[_erc721_Id] - maiDebt[_erc721_Id] >= _amount, \"You don't have enough collateral\");\n        mai.safeTransfer( msg.sender, _amount);\n        // transfert de token\n        maiDebt[_erc721_Id]+=_amount; \n    }\n\n    function depositCollateral(uint256 _erc721_Id,uint256 amount) public {\n        require(ownerOf(_erc721_Id) == msg.sender, \"You are not the owner of this NFT\");\n        _deposit[_erc721_Id] += amount;\n    }\n\n\n    function TransferFrom(address from, address _to, uint256 _erc721_Id) public {\n        require(owners[_erc721_Id] == msg.sender, \"You are not the owner of this NFT\");\n        owners[_erc721_Id] = _to;\n        erc721Balance[from] -= 1;\n        erc721Balance[_to] += 1;\n    }\n\n    \n    function updateVaultDebt(uint256 vaultId) public view returns (uint256) {\n        return maiDebt[vaultId];\n    }\n\n    // msg.sender need to approve the contract address\n    function payBackToken( uint256 vaultID, uint256 amount, uint256 _front) public {\n        /*if(ownerOf(vaultID) != msg.sender)\n            revert(\"You are not the owner of this vault\");\n        \n        if(maiDebt[vaultID] <= amount)\n            revert(\"You don't have enough debt\");\n        if(mai.balanceOf(msg.sender) <= amount)\n            revert(\"You don't have enough mai\");\n        maiDebt[vaultID] -= amount;\n\n        // allow the contract to repay*/\n        mai.safeTransferFrom(msg.sender, address(this),amount); \n    }\n\n    function withdrawCollateral(uint256 vaultID, uint256 amount) public {\n        require(owners[vaultID] == msg.sender, \"You are not the owner of this vault\");\n        require(_deposit[vaultID] >= amount, \"You don't have enough collateral\");\n        require(maiDebt[vaultID] <= _deposit[vaultID] - amount, \"You don't have enough collateral\");\n        _deposit[vaultID] -= amount;\n        maiBalance[msg.sender] += amount;\n    }\n\n  \n\n\n    // view\n    function getMaiBalance(address _owner) public view returns (uint256) {\n        return IERC20(mai).balanceOf(_owner);\n    }\n    function getVaultDebt(uint256 _vaultId) public view returns (uint256) {\n        return maiDebt[_vaultId];\n    }\n    function getVaultCollateral(uint256 _vaultId) public view returns (uint256) {\n        return _deposit[_vaultId];\n    }\n    function getOwner(uint256 _vaultId) public view returns (address) {\n        return owners[_vaultId];\n    }\n\n    //faucet\n    function getMai(uint256 _amount) public {\n        maiBalance[msg.sender] += _amount;\n    }\n\n\n    \n}",
  "sourcePath": "/home/lejamon/Documents/GitHub/KS-PI2/mai-finance/contracts/FakeVault.sol",
  "compiler": {
    "name": "solc",
    "version": "0.8.17+commit.8df45f5f.Emscripten.clang"
  },
  "schemaVersion": "3.4.10",
  "updatedAt": "2023-01-26T13:54:32.695Z",
  "devdoc": {
    "kind": "dev",
    "methods": {
      "approve(address,uint256)": {
        "details": "See {IERC721-approve}."
      },
      "balanceOf(address)": {
        "details": "See {IERC721-balanceOf}."
      },
      "getApproved(uint256)": {
        "details": "See {IERC721-getApproved}."
      },
      "isApprovedForAll(address,address)": {
        "details": "See {IERC721-isApprovedForAll}."
      },
      "name()": {
        "details": "See {IERC721Metadata-name}."
      },
      "ownerOf(uint256)": {
        "details": "See {IERC721-ownerOf}."
      },
      "safeTransferFrom(address,address,uint256)": {
        "details": "See {IERC721-safeTransferFrom}."
      },
      "safeTransferFrom(address,address,uint256,bytes)": {
        "details": "See {IERC721-safeTransferFrom}."
      },
      "setApprovalForAll(address,bool)": {
        "details": "See {IERC721-setApprovalForAll}."
      },
      "supportsInterface(bytes4)": {
        "details": "See {IERC165-supportsInterface}."
      },
      "symbol()": {
        "details": "See {IERC721Metadata-symbol}."
      },
      "tokenURI(uint256)": {
        "details": "See {IERC721Metadata-tokenURI}."
      },
      "transferFrom(address,address,uint256)": {
        "details": "See {IERC721-transferFrom}."
      }
    },
    "version": 1
  },
  "userdoc": {
    "kind": "user",
    "methods": {},
    "version": 1
  }
}