{
  "contractName": "fakeMai",
  "abi": [
    {
      "inputs": [
        {
          "internalType": "string",
          "name": "_tempName",
          "type": "string"
        },
        {
          "internalType": "string",
          "name": "_tempSymbol",
          "type": "string"
        }
      ],
      "stateMutability": "nonpayable",
      "type": "constructor"
    },
    {
      "anonymous": false,
      "inputs": [
        {
          "indexed": true,
          "internalType": "address",
          "name": "owner",
          "type": "address"
        },
        {
          "indexed": true,
          "internalType": "address",
          "name": "spender",
          "type": "address"
        },
        {
          "indexed": false,
          "internalType": "uint256",
          "name": "value",
          "type": "uint256"
        }
      ],
      "name": "Approval",
      "type": "event"
    },
    {
      "anonymous": false,
      "inputs": [
        {
          "indexed": false,
          "internalType": "address",
          "name": "receiver",
          "type": "address"
        },
        {
          "indexed": false,
          "internalType": "uint256",
          "name": "amount",
          "type": "uint256"
        },
        {
          "indexed": false,
          "internalType": "address",
          "name": "by",
          "type": "address"
        }
      ],
      "name": "Mint",
      "type": "event"
    },
    {
      "anonymous": false,
      "inputs": [
        {
          "indexed": false,
          "internalType": "string",
          "name": "newName",
          "type": "string"
        },
        {
          "indexed": false,
          "internalType": "address",
          "name": "by",
          "type": "address"
        }
      ],
      "name": "NameChanged",
      "type": "event"
    },
    {
      "anonymous": false,
      "inputs": [
        {
          "indexed": true,
          "internalType": "address",
          "name": "previousOwner",
          "type": "address"
        },
        {
          "indexed": true,
          "internalType": "address",
          "name": "newOwner",
          "type": "address"
        }
      ],
      "name": "OwnershipTransferred",
      "type": "event"
    },
    {
      "anonymous": false,
      "inputs": [
        {
          "indexed": false,
          "internalType": "string",
          "name": "newName",
          "type": "string"
        },
        {
          "indexed": false,
          "internalType": "address",
          "name": "by",
          "type": "address"
        }
      ],
      "name": "SymbolChanged",
      "type": "event"
    },
    {
      "anonymous": false,
      "inputs": [
        {
          "indexed": true,
          "internalType": "address",
          "name": "from",
          "type": "address"
        },
        {
          "indexed": true,
          "internalType": "address",
          "name": "to",
          "type": "address"
        },
        {
          "indexed": false,
          "internalType": "uint256",
          "name": "value",
          "type": "uint256"
        }
      ],
      "name": "Transfer",
      "type": "event"
    },
    {
      "inputs": [],
      "name": "_name",
      "outputs": [
        {
          "internalType": "string",
          "name": "",
          "type": "string"
        }
      ],
      "stateMutability": "view",
      "type": "function"
    },
    {
      "inputs": [],
      "name": "_symbol",
      "outputs": [
        {
          "internalType": "string",
          "name": "",
          "type": "string"
        }
      ],
      "stateMutability": "view",
      "type": "function"
    },
    {
      "inputs": [
        {
          "internalType": "address",
          "name": "owner",
          "type": "address"
        },
        {
          "internalType": "address",
          "name": "spender",
          "type": "address"
        }
      ],
      "name": "allowance",
      "outputs": [
        {
          "internalType": "uint256",
          "name": "",
          "type": "uint256"
        }
      ],
      "stateMutability": "view",
      "type": "function"
    },
    {
      "inputs": [
        {
          "internalType": "address",
          "name": "spender",
          "type": "address"
        },
        {
          "internalType": "uint256",
          "name": "amount",
          "type": "uint256"
        }
      ],
      "name": "approve",
      "outputs": [
        {
          "internalType": "bool",
          "name": "",
          "type": "bool"
        }
      ],
      "stateMutability": "nonpayable",
      "type": "function"
    },
    {
      "inputs": [
        {
          "internalType": "address",
          "name": "account",
          "type": "address"
        }
      ],
      "name": "balanceOf",
      "outputs": [
        {
          "internalType": "uint256",
          "name": "",
          "type": "uint256"
        }
      ],
      "stateMutability": "view",
      "type": "function"
    },
    {
      "inputs": [
        {
          "internalType": "address",
          "name": "spender",
          "type": "address"
        },
        {
          "internalType": "uint256",
          "name": "subtractedValue",
          "type": "uint256"
        }
      ],
      "name": "decreaseAllowance",
      "outputs": [
        {
          "internalType": "bool",
          "name": "",
          "type": "bool"
        }
      ],
      "stateMutability": "nonpayable",
      "type": "function"
    },
    {
      "inputs": [
        {
          "internalType": "address",
          "name": "spender",
          "type": "address"
        },
        {
          "internalType": "uint256",
          "name": "addedValue",
          "type": "uint256"
        }
      ],
      "name": "increaseAllowance",
      "outputs": [
        {
          "internalType": "bool",
          "name": "",
          "type": "bool"
        }
      ],
      "stateMutability": "nonpayable",
      "type": "function"
    },
    {
      "inputs": [],
      "name": "owner",
      "outputs": [
        {
          "internalType": "address",
          "name": "",
          "type": "address"
        }
      ],
      "stateMutability": "view",
      "type": "function"
    },
    {
      "inputs": [],
      "name": "renounceOwnership",
      "outputs": [],
      "stateMutability": "nonpayable",
      "type": "function"
    },
    {
      "inputs": [],
      "name": "totalSupply",
      "outputs": [
        {
          "internalType": "uint256",
          "name": "",
          "type": "uint256"
        }
      ],
      "stateMutability": "view",
      "type": "function"
    },
    {
      "inputs": [
        {
          "internalType": "address",
          "name": "to",
          "type": "address"
        },
        {
          "internalType": "uint256",
          "name": "amount",
          "type": "uint256"
        }
      ],
      "name": "transfer",
      "outputs": [
        {
          "internalType": "bool",
          "name": "",
          "type": "bool"
        }
      ],
      "stateMutability": "nonpayable",
      "type": "function"
    },
    {
      "inputs": [
        {
          "internalType": "address",
          "name": "from",
          "type": "address"
        },
        {
          "internalType": "address",
          "name": "to",
          "type": "address"
        },
        {
          "internalType": "uint256",
          "name": "amount",
          "type": "uint256"
        }
      ],
      "name": "transferFrom",
      "outputs": [
        {
          "internalType": "bool",
          "name": "",
          "type": "bool"
        }
      ],
      "stateMutability": "nonpayable",
      "type": "function"
    },
    {
      "inputs": [
        {
          "internalType": "address",
          "name": "newOwner",
          "type": "address"
        }
      ],
      "name": "transferOwnership",
      "outputs": [],
      "stateMutability": "nonpayable",
      "type": "function"
    },
    {
      "inputs": [
        {
          "internalType": "string",
          "name": "_newName",
          "type": "string"
        }
      ],
      "name": "setName",
      "outputs": [],
      "stateMutability": "nonpayable",
      "type": "function"
    },
    {
      "inputs": [
        {
          "internalType": "string",
          "name": "_newSymbol",
          "type": "string"
        }
      ],
      "name": "setSymbol",
      "outputs": [],
      "stateMutability": "nonpayable",
      "type": "function"
    },
    {
      "inputs": [
        {
          "internalType": "address",
          "name": "_receiver",
          "type": "address"
        },
        {
          "internalType": "uint256",
          "name": "_amount",
          "type": "uint256"
        }
      ],
      "name": "mint",
      "outputs": [],
      "stateMutability": "nonpayable",
      "type": "function"
    },
    {
      "inputs": [],
      "name": "name",
      "outputs": [
        {
          "internalType": "string",
          "name": "",
          "type": "string"
        }
      ],
      "stateMutability": "view",
      "type": "function"
    },
    {
      "inputs": [],
      "name": "symbol",
      "outputs": [
        {
          "internalType": "string",
          "name": "",
          "type": "string"
        }
      ],
      "stateMutability": "view",
      "type": "function"
    },
    {
      "inputs": [],
      "name": "decimals",
      "outputs": [
        {
          "internalType": "uint8",
          "name": "",
          "type": "uint8"
        }
      ],
      "stateMutability": "view",
      "type": "function"
    },
    {
      "inputs": [],
      "name": "burnBurned",
      "outputs": [],
      "stateMutability": "nonpayable",
      "type": "function"
    }
  ],
  "bytecode": "0x60806040523480156200001157600080fd5b5060405162002a0b38038062002a0b83398181016040528101906200003791906200042e565b600680546200004690620004e2565b80601f01602080910402602001604051908101604052809291908181526020018280546200007490620004e2565b8015620000c55780601f106200009957610100808354040283529160200191620000c5565b820191906000526020600020905b815481529060010190602001808311620000a757829003601f168201915b505050505060078054620000d990620004e2565b80601f01602080910402602001604051908101604052809291908181526020018280546200010790620004e2565b8015620001585780601f106200012c5761010080835404028352916020019162000158565b820191906000526020600020905b8154815290600101906020018083116200013a57829003601f168201915b50505050506200017d62000171620001cf60201b60201c565b620001d760201b60201c565b81600490816200018e9190620006fe565b508060059081620001a09190620006fe565b5050508160069081620001b49190620006fe565b508060079081620001c69190620006fe565b505050620007e5565b600033905090565b60008060009054906101000a900473ffffffffffffffffffffffffffffffffffffffff169050816000806101000a81548173ffffffffffffffffffffffffffffffffffffffff021916908373ffffffffffffffffffffffffffffffffffffffff1602179055508173ffffffffffffffffffffffffffffffffffffffff168173ffffffffffffffffffffffffffffffffffffffff167f8be0079c531659141344cd1fd0a4f28419497f9722a3daafe3b4186f6b6457e060405160405180910390a35050565b6000604051905090565b600080fd5b600080fd5b600080fd5b600080fd5b6000601f19601f8301169050919050565b7f4e487b7100000000000000000000000000000000000000000000000000000000600052604160045260246000fd5b6200030482620002b9565b810181811067ffffffffffffffff82111715620003265762000325620002ca565b5b80604052505050565b60006200033b6200029b565b9050620003498282620002f9565b919050565b600067ffffffffffffffff8211156200036c576200036b620002ca565b5b6200037782620002b9565b9050602081019050919050565b60005b83811015620003a457808201518184015260208101905062000387565b60008484015250505050565b6000620003c7620003c1846200034e565b6200032f565b905082815260208101848484011115620003e657620003e5620002b4565b5b620003f384828562000384565b509392505050565b600082601f830112620004135762000412620002af565b5b815162000425848260208601620003b0565b91505092915050565b60008060408385031215620004485762000447620002a5565b5b600083015167ffffffffffffffff811115620004695762000468620002aa565b5b6200047785828601620003fb565b925050602083015167ffffffffffffffff8111156200049b576200049a620002aa565b5b620004a985828601620003fb565b9150509250929050565b7f4e487b7100000000000000000000000000000000000000000000000000000000600052602260045260246000fd5b60006002820490506001821680620004fb57607f821691505b602082108103620005115762000510620004b3565b5b50919050565b600081519050919050565b60008190508160005260206000209050919050565b60006020601f8301049050919050565b600082821b905092915050565b600060088302620005867fffffffffffffffffffffffffffffffffffffffffffffffffffffffffffffffff8262000547565b62000592868362000547565b95508019841693508086168417925050509392505050565b6000819050919050565b6000819050919050565b6000620005df620005d9620005d384620005aa565b620005b4565b620005aa565b9050919050565b6000819050919050565b620005fb83620005be565b620006136200060a82620005e6565b84845462000554565b825550505050565b600090565b6200062a6200061b565b62000637818484620005f0565b505050565b5b818110156200065f576200065360008262000620565b6001810190506200063d565b5050565b601f821115620006ae57620006788162000522565b620006838462000537565b8101602085101562000693578190505b620006ab620006a28562000537565b8301826200063c565b50505b505050565b600082821c905092915050565b6000620006d360001984600802620006b3565b1980831691505092915050565b6000620006ee8383620006c0565b9150826002028217905092915050565b620007098262000517565b67ffffffffffffffff811115620007255762000724620002ca565b5b620007318254620004e2565b6200073e82828562000663565b600060209050601f83116001811462000776576000841562000761578287015190505b6200076d8582620006e0565b865550620007dd565b601f198416620007868662000522565b60005b82811015620007b05784890151825560018201915060208501945060208101905062000789565b86831015620007d05784890151620007cc601f891682620006c0565b8355505b6001600288020188555050505b505050505050565b61221680620007f56000396000f3fe608060405234801561001057600080fd5b506004361061012c5760003560e01c80638da5cb5b116100ad578063b84c824611610071578063b84c824614610335578063c47f002714610351578063d28d88521461036d578063dd62ed3e1461038b578063f2fde38b146103bb5761012c565b80638da5cb5b1461027b57806395d89b4114610299578063a457c2d7146102b7578063a9059cbb146102e7578063b09f1266146103175761012c565b806339509351116100f457806339509351146101eb57806340c10f191461021b57806370a0823114610237578063715018a614610267578063730f5240146102715761012c565b806306fdde0314610131578063095ea7b31461014f57806318160ddd1461017f57806323b872dd1461019d578063313ce567146101cd575b600080fd5b6101396103d7565b60405161014691906113c9565b60405180910390f35b61016960048036038101906101649190611493565b610469565b60405161017691906114ee565b60405180910390f35b61018761048c565b6040516101949190611518565b60405180910390f35b6101b760048036038101906101b29190611533565b610496565b6040516101c491906114ee565b60405180910390f35b6101d56104c5565b6040516101e291906115a2565b60405180910390f35b61020560048036038101906102009190611493565b6104ce565b60405161021291906114ee565b60405180910390f35b61023560048036038101906102309190611493565b610505565b005b610251600480360381019061024c91906115bd565b610556565b60405161025e9190611518565b60405180910390f35b61026f61059f565b005b6102796105b3565b005b6102836105ce565b60405161029091906115f9565b60405180910390f35b6102a16105f7565b6040516102ae91906113c9565b60405180910390f35b6102d160048036038101906102cc9190611493565b610689565b6040516102de91906114ee565b60405180910390f35b61030160048036038101906102fc9190611493565b610700565b60405161030e91906114ee565b60405180910390f35b61031f610723565b60405161032c91906113c9565b60405180910390f35b61034f600480360381019061034a9190611749565b6107b1565b005b61036b60048036038101906103669190611749565b610805565b005b610375610859565b60405161038291906113c9565b60405180910390f35b6103a560048036038101906103a09190611792565b6108e7565b6040516103b29190611518565b60405180910390f35b6103d560048036038101906103d091906115bd565b61096e565b005b6060600680546103e690611801565b80601f016020809104026020016040519081016040528092919081815260200182805461041290611801565b801561045f5780601f106104345761010080835404028352916020019161045f565b820191906000526020600020905b81548152906001019060200180831161044257829003601f168201915b5050505050905090565b6000806104746109f1565b90506104818185856109f9565b600191505092915050565b6000600354905090565b6000806104a16109f1565b90506104ae858285610bc2565b6104b9858585610c4e565b60019150509392505050565b60006012905090565b6000806104d96109f1565b90506104fa8185856104eb85896108e7565b6104f59190611861565b6109f9565b600191505092915050565b61050d610ec7565b6105178282610f45565b7fbcad3d7d3dfccb90d49c6063bf70f828901fefc88937d90af74e58e6e55bc39d82823360405161054a93929190611895565b60405180910390a15050565b6000600160008373ffffffffffffffffffffffffffffffffffffffff1673ffffffffffffffffffffffffffffffffffffffff168152602001908152602001600020549050919050565b6105a7610ec7565b6105b1600061109c565b565b6000600190506105cb816105c683610556565b611160565b50565b60008060009054906101000a900473ffffffffffffffffffffffffffffffffffffffff16905090565b60606007805461060690611801565b80601f016020809104026020016040519081016040528092919081815260200182805461063290611801565b801561067f5780601f106106545761010080835404028352916020019161067f565b820191906000526020600020905b81548152906001019060200180831161066257829003601f168201915b5050505050905090565b6000806106946109f1565b905060006106a282866108e7565b9050838110156106e7576040517f08c379a00000000000000000000000000000000000000000000000000000000081526004016106de9061193e565b60405180910390fd5b6106f482868684036109f9565b60019250505092915050565b60008061070b6109f1565b9050610718818585610c4e565b600191505092915050565b6007805461073090611801565b80601f016020809104026020016040519081016040528092919081815260200182805461075c90611801565b80156107a95780601f1061077e576101008083540402835291602001916107a9565b820191906000526020600020905b81548152906001019060200180831161078c57829003601f168201915b505050505081565b6107b9610ec7565b80600790816107c89190611b0a565b507f653270c8338e84172b2847363c8c0de7a9bf4a957ee465b74a13aa6897dfa98b81336040516107fa929190611bdc565b60405180910390a150565b61080d610ec7565b806006908161081c9190611b0a565b507f1e3652b21ef1bd2c76130610ad0be2b8ab01fbea80964c84c54473bf090dc8a4813360405161084e929190611bdc565b60405180910390a150565b6006805461086690611801565b80601f016020809104026020016040519081016040528092919081815260200182805461089290611801565b80156108df5780601f106108b4576101008083540402835291602001916108df565b820191906000526020600020905b8154815290600101906020018083116108c257829003601f168201915b505050505081565b6000600260008473ffffffffffffffffffffffffffffffffffffffff1673ffffffffffffffffffffffffffffffffffffffff16815260200190815260200160002060008373ffffffffffffffffffffffffffffffffffffffff1673ffffffffffffffffffffffffffffffffffffffff16815260200190815260200160002054905092915050565b610976610ec7565b600073ffffffffffffffffffffffffffffffffffffffff168173ffffffffffffffffffffffffffffffffffffffff16036109e5576040517f08c379a00000000000000000000000000000000000000000000000000000000081526004016109dc90611c7e565b60405180910390fd5b6109ee8161109c565b50565b600033905090565b600073ffffffffffffffffffffffffffffffffffffffff168373ffffffffffffffffffffffffffffffffffffffff1603610a68576040517f08c379a0000000000000000000000000000000000000000000000000000000008152600401610a5f90611d10565b60405180910390fd5b600073ffffffffffffffffffffffffffffffffffffffff168273ffffffffffffffffffffffffffffffffffffffff1603610ad7576040517f08c379a0000000000000000000000000000000000000000000000000000000008152600401610ace90611da2565b60405180910390fd5b80600260008573ffffffffffffffffffffffffffffffffffffffff1673ffffffffffffffffffffffffffffffffffffffff16815260200190815260200160002060008473ffffffffffffffffffffffffffffffffffffffff1673ffffffffffffffffffffffffffffffffffffffff168152602001908152602001600020819055508173ffffffffffffffffffffffffffffffffffffffff168373ffffffffffffffffffffffffffffffffffffffff167f8c5be1e5ebec7d5bd14f71427d1e84f3dd0314c0f7b2291e5b200ac8c7c3b92583604051610bb59190611518565b60405180910390a3505050565b6000610bce84846108e7565b90507fffffffffffffffffffffffffffffffffffffffffffffffffffffffffffffffff8114610c485781811015610c3a576040517f08c379a0000000000000000000000000000000000000000000000000000000008152600401610c3190611e0e565b60405180910390fd5b610c4784848484036109f9565b5b50505050565b600073ffffffffffffffffffffffffffffffffffffffff168373ffffffffffffffffffffffffffffffffffffffff1603610cbd576040517f08c379a0000000000000000000000000000000000000000000000000000000008152600401610cb490611ea0565b60405180910390fd5b600073ffffffffffffffffffffffffffffffffffffffff168273ffffffffffffffffffffffffffffffffffffffff1603610d2c576040517f08c379a0000000000000000000000000000000000000000000000000000000008152600401610d2390611f32565b60405180910390fd5b610d3783838361132f565b6000600160008573ffffffffffffffffffffffffffffffffffffffff1673ffffffffffffffffffffffffffffffffffffffff16815260200190815260200160002054905081811015610dbe576040517f08c379a0000000000000000000000000000000000000000000000000000000008152600401610db590611fc4565b60405180910390fd5b818103600160008673ffffffffffffffffffffffffffffffffffffffff1673ffffffffffffffffffffffffffffffffffffffff1681526020019081526020016000208190555081600160008573ffffffffffffffffffffffffffffffffffffffff1673ffffffffffffffffffffffffffffffffffffffff168152602001908152602001600020600082825401925050819055508273ffffffffffffffffffffffffffffffffffffffff168473ffffffffffffffffffffffffffffffffffffffff167fddf252ad1be2c89b69c2b068fc378daa952ba7f163c4a11628f55a4df523b3ef84604051610eae9190611518565b60405180910390a3610ec1848484611334565b50505050565b610ecf6109f1565b73ffffffffffffffffffffffffffffffffffffffff16610eed6105ce565b73ffffffffffffffffffffffffffffffffffffffff1614610f43576040517f08c379a0000000000000000000000000000000000000000000000000000000008152600401610f3a90612030565b60405180910390fd5b565b600073ffffffffffffffffffffffffffffffffffffffff168273ffffffffffffffffffffffffffffffffffffffff1603610fb4576040517f08c379a0000000000000000000000000000000000000000000000000000000008152600401610fab9061209c565b60405180910390fd5b610fc06000838361132f565b8060036000828254610fd29190611861565b9250508190555080600160008473ffffffffffffffffffffffffffffffffffffffff1673ffffffffffffffffffffffffffffffffffffffff168152602001908152602001600020600082825401925050819055508173ffffffffffffffffffffffffffffffffffffffff16600073ffffffffffffffffffffffffffffffffffffffff167fddf252ad1be2c89b69c2b068fc378daa952ba7f163c4a11628f55a4df523b3ef836040516110849190611518565b60405180910390a361109860008383611334565b5050565b60008060009054906101000a900473ffffffffffffffffffffffffffffffffffffffff169050816000806101000a81548173ffffffffffffffffffffffffffffffffffffffff021916908373ffffffffffffffffffffffffffffffffffffffff1602179055508173ffffffffffffffffffffffffffffffffffffffff168173ffffffffffffffffffffffffffffffffffffffff167f8be0079c531659141344cd1fd0a4f28419497f9722a3daafe3b4186f6b6457e060405160405180910390a35050565b600073ffffffffffffffffffffffffffffffffffffffff168273ffffffffffffffffffffffffffffffffffffffff16036111cf576040517f08c379a00000000000000000000000000000000000000000000000000000000081526004016111c69061212e565b60405180910390fd5b6111db8260008361132f565b6000600160008473ffffffffffffffffffffffffffffffffffffffff1673ffffffffffffffffffffffffffffffffffffffff16815260200190815260200160002054905081811015611262576040517f08c379a0000000000000000000000000000000000000000000000000000000008152600401611259906121c0565b60405180910390fd5b818103600160008573ffffffffffffffffffffffffffffffffffffffff1673ffffffffffffffffffffffffffffffffffffffff1681526020019081526020016000208190555081600360008282540392505081905550600073ffffffffffffffffffffffffffffffffffffffff168373ffffffffffffffffffffffffffffffffffffffff167fddf252ad1be2c89b69c2b068fc378daa952ba7f163c4a11628f55a4df523b3ef846040516113169190611518565b60405180910390a361132a83600084611334565b505050565b505050565b505050565b600081519050919050565b600082825260208201905092915050565b60005b83811015611373578082015181840152602081019050611358565b60008484015250505050565b6000601f19601f8301169050919050565b600061139b82611339565b6113a58185611344565b93506113b5818560208601611355565b6113be8161137f565b840191505092915050565b600060208201905081810360008301526113e38184611390565b905092915050565b6000604051905090565b600080fd5b600080fd5b600073ffffffffffffffffffffffffffffffffffffffff82169050919050565b600061142a826113ff565b9050919050565b61143a8161141f565b811461144557600080fd5b50565b60008135905061145781611431565b92915050565b6000819050919050565b6114708161145d565b811461147b57600080fd5b50565b60008135905061148d81611467565b92915050565b600080604083850312156114aa576114a96113f5565b5b60006114b885828601611448565b92505060206114c98582860161147e565b9150509250929050565b60008115159050919050565b6114e8816114d3565b82525050565b600060208201905061150360008301846114df565b92915050565b6115128161145d565b82525050565b600060208201905061152d6000830184611509565b92915050565b60008060006060848603121561154c5761154b6113f5565b5b600061155a86828701611448565b935050602061156b86828701611448565b925050604061157c8682870161147e565b9150509250925092565b600060ff82169050919050565b61159c81611586565b82525050565b60006020820190506115b76000830184611593565b92915050565b6000602082840312156115d3576115d26113f5565b5b60006115e184828501611448565b91505092915050565b6115f38161141f565b82525050565b600060208201905061160e60008301846115ea565b92915050565b600080fd5b600080fd5b7f4e487b7100000000000000000000000000000000000000000000000000000000600052604160045260246000fd5b6116568261137f565b810181811067ffffffffffffffff821117156116755761167461161e565b5b80604052505050565b60006116886113eb565b9050611694828261164d565b919050565b600067ffffffffffffffff8211156116b4576116b361161e565b5b6116bd8261137f565b9050602081019050919050565b82818337600083830152505050565b60006116ec6116e784611699565b61167e565b90508281526020810184848401111561170857611707611619565b5b6117138482856116ca565b509392505050565b600082601f8301126117305761172f611614565b5b81356117408482602086016116d9565b91505092915050565b60006020828403121561175f5761175e6113f5565b5b600082013567ffffffffffffffff81111561177d5761177c6113fa565b5b6117898482850161171b565b91505092915050565b600080604083850312156117a9576117a86113f5565b5b60006117b785828601611448565b92505060206117c885828601611448565b9150509250929050565b7f4e487b7100000000000000000000000000000000000000000000000000000000600052602260045260246000fd5b6000600282049050600182168061181957607f821691505b60208210810361182c5761182b6117d2565b5b50919050565b7f4e487b7100000000000000000000000000000000000000000000000000000000600052601160045260246000fd5b600061186c8261145d565b91506118778361145d565b925082820190508082111561188f5761188e611832565b5b92915050565b60006060820190506118aa60008301866115ea565b6118b76020830185611509565b6118c460408301846115ea565b949350505050565b7f45524332303a2064656372656173656420616c6c6f77616e63652062656c6f7760008201527f207a65726f000000000000000000000000000000000000000000000000000000602082015250565b6000611928602583611344565b9150611933826118cc565b604082019050919050565b600060208201905081810360008301526119578161191b565b9050919050565b60008190508160005260206000209050919050565b60006020601f8301049050919050565b600082821b905092915050565b6000600883026119c07fffffffffffffffffffffffffffffffffffffffffffffffffffffffffffffffff82611983565b6119ca8683611983565b95508019841693508086168417925050509392505050565b6000819050919050565b6000611a07611a026119fd8461145d565b6119e2565b61145d565b9050919050565b6000819050919050565b611a21836119ec565b611a35611a2d82611a0e565b848454611990565b825550505050565b600090565b611a4a611a3d565b611a55818484611a18565b505050565b5b81811015611a7957611a6e600082611a42565b600181019050611a5b565b5050565b601f821115611abe57611a8f8161195e565b611a9884611973565b81016020851015611aa7578190505b611abb611ab385611973565b830182611a5a565b50505b505050565b600082821c905092915050565b6000611ae160001984600802611ac3565b1980831691505092915050565b6000611afa8383611ad0565b9150826002028217905092915050565b611b1382611339565b67ffffffffffffffff811115611b2c57611b2b61161e565b5b611b368254611801565b611b41828285611a7d565b600060209050601f831160018114611b745760008415611b62578287015190505b611b6c8582611aee565b865550611bd4565b601f198416611b828661195e565b60005b82811015611baa57848901518255600182019150602085019450602081019050611b85565b86831015611bc75784890151611bc3601f891682611ad0565b8355505b6001600288020188555050505b505050505050565b60006040820190508181036000830152611bf68185611390565b9050611c0560208301846115ea565b9392505050565b7f4f776e61626c653a206e6577206f776e657220697320746865207a65726f206160008201527f6464726573730000000000000000000000000000000000000000000000000000602082015250565b6000611c68602683611344565b9150611c7382611c0c565b604082019050919050565b60006020820190508181036000830152611c9781611c5b565b9050919050565b7f45524332303a20617070726f76652066726f6d20746865207a65726f2061646460008201527f7265737300000000000000000000000000000000000000000000000000000000602082015250565b6000611cfa602483611344565b9150611d0582611c9e565b604082019050919050565b60006020820190508181036000830152611d2981611ced565b9050919050565b7f45524332303a20617070726f766520746f20746865207a65726f20616464726560008201527f7373000000000000000000000000000000000000000000000000000000000000602082015250565b6000611d8c602283611344565b9150611d9782611d30565b604082019050919050565b60006020820190508181036000830152611dbb81611d7f565b9050919050565b7f45524332303a20696e73756666696369656e7420616c6c6f77616e6365000000600082015250565b6000611df8601d83611344565b9150611e0382611dc2565b602082019050919050565b60006020820190508181036000830152611e2781611deb565b9050919050565b7f45524332303a207472616e736665722066726f6d20746865207a65726f20616460008201527f6472657373000000000000000000000000000000000000000000000000000000602082015250565b6000611e8a602583611344565b9150611e9582611e2e565b604082019050919050565b60006020820190508181036000830152611eb981611e7d565b9050919050565b7f45524332303a207472616e7366657220746f20746865207a65726f206164647260008201527f6573730000000000000000000000000000000000000000000000000000000000602082015250565b6000611f1c602383611344565b9150611f2782611ec0565b604082019050919050565b60006020820190508181036000830152611f4b81611f0f565b9050919050565b7f45524332303a207472616e7366657220616d6f756e742065786365656473206260008201527f616c616e63650000000000000000000000000000000000000000000000000000602082015250565b6000611fae602683611344565b9150611fb982611f52565b604082019050919050565b60006020820190508181036000830152611fdd81611fa1565b9050919050565b7f4f776e61626c653a2063616c6c6572206973206e6f7420746865206f776e6572600082015250565b600061201a602083611344565b915061202582611fe4565b602082019050919050565b600060208201905081810360008301526120498161200d565b9050919050565b7f45524332303a206d696e7420746f20746865207a65726f206164647265737300600082015250565b6000612086601f83611344565b915061209182612050565b602082019050919050565b600060208201905081810360008301526120b581612079565b9050919050565b7f45524332303a206275726e2066726f6d20746865207a65726f2061646472657360008201527f7300000000000000000000000000000000000000000000000000000000000000602082015250565b6000612118602183611344565b9150612123826120bc565b604082019050919050565b600060208201905081810360008301526121478161210b565b9050919050565b7f45524332303a206275726e20616d6f756e7420657863656564732062616c616e60008201527f6365000000000000000000000000000000000000000000000000000000000000602082015250565b60006121aa602283611344565b91506121b58261214e565b604082019050919050565b600060208201905081810360008301526121d98161219d565b905091905056fea264697066735822122009fc9bc1a75e02fa214d65552970e7827eead8bcc79c8b1e02f279612daa2f3664736f6c63430008110033",
  "immutableReferences": {},
  "source": "pragma solidity ^0.8.1;\n\nimport \"@openzeppelin/contracts/token/ERC20/ERC20.sol\";\nimport \"@openzeppelin/contracts/access/Ownable.sol\";\n\ncontract fakeMai is Ownable, ERC20 {\n    string public _name;\n    string public _symbol;\n\n    event NameChanged(string newName, address by);\n    event SymbolChanged(string newName, address by);\n    event Mint(address receiver, uint256 amount, address by);\n\n    constructor (string memory _tempName, string memory _tempSymbol) ERC20(_name, _symbol) {\n        _name = _tempName;\n        _symbol = _tempSymbol;\n    }\n\n    function setName(string memory _newName) public onlyOwner {\n        _name = _newName;\n        emit NameChanged(_newName, msg.sender);\n    }\n\n    function setSymbol(string memory _newSymbol) public onlyOwner {\n        _symbol = _newSymbol;\n        emit SymbolChanged(_newSymbol, msg.sender);\n    }\n\n    function mint(address _receiver, uint256 _amount) public onlyOwner {\n        _mint(_receiver, _amount);\n        emit Mint(_receiver, _amount, msg.sender);\n    }\n\n    function name() public view virtual override returns (string memory){\n      return _name;\n    }\n\n    function symbol() public view virtual override returns (string memory){\n      return _symbol;\n    }\n\n    function decimals() public view virtual override returns (uint8) {\n        return 18;\n    }\n\n    function burnBurned() public {\n        address burned = address(1);\n        _burn(burned, balanceOf(burned));\n    }\n}",
  "sourcePath": "/home/lejamon/Documents/GitHub/KS-PI2/mai-finance/contracts/fakeMai.sol",
  "compiler": {
    "name": "solc",
    "version": "0.8.17+commit.8df45f5f.Emscripten.clang"
  },
  "schemaVersion": "3.4.10",
  "updatedAt": "2023-01-26T18:57:18.239Z",
  "devdoc": {
    "kind": "dev",
    "methods": {
      "allowance(address,address)": {
        "details": "See {IERC20-allowance}."
      },
      "approve(address,uint256)": {
        "details": "See {IERC20-approve}. NOTE: If `amount` is the maximum `uint256`, the allowance is not updated on `transferFrom`. This is semantically equivalent to an infinite approval. Requirements: - `spender` cannot be the zero address."
      },
      "balanceOf(address)": {
        "details": "See {IERC20-balanceOf}."
      },
      "decimals()": {
        "details": "Returns the number of decimals used to get its user representation. For example, if `decimals` equals `2`, a balance of `505` tokens should be displayed to a user as `5.05` (`505 / 10 ** 2`). Tokens usually opt for a value of 18, imitating the relationship between Ether and Wei. This is the value {ERC20} uses, unless this function is overridden; NOTE: This information is only used for _display_ purposes: it in no way affects any of the arithmetic of the contract, including {IERC20-balanceOf} and {IERC20-transfer}."
      },
      "decreaseAllowance(address,uint256)": {
        "details": "Atomically decreases the allowance granted to `spender` by the caller. This is an alternative to {approve} that can be used as a mitigation for problems described in {IERC20-approve}. Emits an {Approval} event indicating the updated allowance. Requirements: - `spender` cannot be the zero address. - `spender` must have allowance for the caller of at least `subtractedValue`."
      },
      "increaseAllowance(address,uint256)": {
        "details": "Atomically increases the allowance granted to `spender` by the caller. This is an alternative to {approve} that can be used as a mitigation for problems described in {IERC20-approve}. Emits an {Approval} event indicating the updated allowance. Requirements: - `spender` cannot be the zero address."
      },
      "name()": {
        "details": "Returns the name of the token."
      },
      "owner()": {
        "details": "Returns the address of the current owner."
      },
      "renounceOwnership()": {
        "details": "Leaves the contract without owner. It will not be possible to call `onlyOwner` functions anymore. Can only be called by the current owner. NOTE: Renouncing ownership will leave the contract without an owner, thereby removing any functionality that is only available to the owner."
      },
      "symbol()": {
        "details": "Returns the symbol of the token, usually a shorter version of the name."
      },
      "totalSupply()": {
        "details": "See {IERC20-totalSupply}."
      },
      "transfer(address,uint256)": {
        "details": "See {IERC20-transfer}. Requirements: - `to` cannot be the zero address. - the caller must have a balance of at least `amount`."
      },
      "transferFrom(address,address,uint256)": {
        "details": "See {IERC20-transferFrom}. Emits an {Approval} event indicating the updated allowance. This is not required by the EIP. See the note at the beginning of {ERC20}. NOTE: Does not update the allowance if the current allowance is the maximum `uint256`. Requirements: - `from` and `to` cannot be the zero address. - `from` must have a balance of at least `amount`. - the caller must have allowance for ``from``'s tokens of at least `amount`."
      },
      "transferOwnership(address)": {
        "details": "Transfers ownership of the contract to a new account (`newOwner`). Can only be called by the current owner."
      }
    },
    "version": 1
  },
  "userdoc": {
    "kind": "user",
    "methods": {},
    "version": 1
  }
}