{
  "contractName": "FakeVault",
  "abi": [
    {
      "inputs": [
        {
          "internalType": "address",
          "name": "_mai",
          "type": "address"
        },
        {
          "internalType": "string",
          "name": "name",
          "type": "string"
        },
        {
          "internalType": "string",
          "name": "symbol",
          "type": "string"
        }
      ],
      "stateMutability": "nonpayable",
      "type": "constructor"
    },
    {
      "anonymous": false,
      "inputs": [
        {
          "indexed": true,
          "internalType": "address",
          "name": "owner",
          "type": "address"
        },
        {
          "indexed": true,
          "internalType": "address",
          "name": "approved",
          "type": "address"
        },
        {
          "indexed": true,
          "internalType": "uint256",
          "name": "tokenId",
          "type": "uint256"
        }
      ],
      "name": "Approval",
      "type": "event"
    },
    {
      "anonymous": false,
      "inputs": [
        {
          "indexed": true,
          "internalType": "address",
          "name": "owner",
          "type": "address"
        },
        {
          "indexed": true,
          "internalType": "address",
          "name": "operator",
          "type": "address"
        },
        {
          "indexed": false,
          "internalType": "bool",
          "name": "approved",
          "type": "bool"
        }
      ],
      "name": "ApprovalForAll",
      "type": "event"
    },
    {
      "anonymous": false,
      "inputs": [
        {
          "indexed": true,
          "internalType": "address",
          "name": "from",
          "type": "address"
        },
        {
          "indexed": true,
          "internalType": "address",
          "name": "to",
          "type": "address"
        },
        {
          "indexed": true,
          "internalType": "uint256",
          "name": "tokenId",
          "type": "uint256"
        }
      ],
      "name": "Transfer",
      "type": "event"
    },
    {
      "inputs": [
        {
          "internalType": "uint256",
          "name": "",
          "type": "uint256"
        }
      ],
      "name": "_deposit",
      "outputs": [
        {
          "internalType": "uint256",
          "name": "",
          "type": "uint256"
        }
      ],
      "stateMutability": "view",
      "type": "function"
    },
    {
      "inputs": [
        {
          "internalType": "address",
          "name": "to",
          "type": "address"
        },
        {
          "internalType": "uint256",
          "name": "tokenId",
          "type": "uint256"
        }
      ],
      "name": "approve",
      "outputs": [],
      "stateMutability": "nonpayable",
      "type": "function"
    },
    {
      "inputs": [
        {
          "internalType": "address",
          "name": "owner",
          "type": "address"
        }
      ],
      "name": "balanceOf",
      "outputs": [
        {
          "internalType": "uint256",
          "name": "",
          "type": "uint256"
        }
      ],
      "stateMutability": "view",
      "type": "function"
    },
    {
      "inputs": [
        {
          "internalType": "address",
          "name": "",
          "type": "address"
        }
      ],
      "name": "erc721Balance",
      "outputs": [
        {
          "internalType": "uint256",
          "name": "",
          "type": "uint256"
        }
      ],
      "stateMutability": "view",
      "type": "function"
    },
    {
      "inputs": [
        {
          "internalType": "uint256",
          "name": "tokenId",
          "type": "uint256"
        }
      ],
      "name": "getApproved",
      "outputs": [
        {
          "internalType": "address",
          "name": "",
          "type": "address"
        }
      ],
      "stateMutability": "view",
      "type": "function"
    },
    {
      "inputs": [
        {
          "internalType": "address",
          "name": "owner",
          "type": "address"
        },
        {
          "internalType": "address",
          "name": "operator",
          "type": "address"
        }
      ],
      "name": "isApprovedForAll",
      "outputs": [
        {
          "internalType": "bool",
          "name": "",
          "type": "bool"
        }
      ],
      "stateMutability": "view",
      "type": "function"
    },
    {
      "inputs": [],
      "name": "mai",
      "outputs": [
        {
          "internalType": "contract ERC20",
          "name": "",
          "type": "address"
        }
      ],
      "stateMutability": "view",
      "type": "function"
    },
    {
      "inputs": [
        {
          "internalType": "address",
          "name": "",
          "type": "address"
        }
      ],
      "name": "maiBalance",
      "outputs": [
        {
          "internalType": "uint256",
          "name": "",
          "type": "uint256"
        }
      ],
      "stateMutability": "view",
      "type": "function"
    },
    {
      "inputs": [
        {
          "internalType": "uint256",
          "name": "",
          "type": "uint256"
        }
      ],
      "name": "maiDebt",
      "outputs": [
        {
          "internalType": "uint256",
          "name": "",
          "type": "uint256"
        }
      ],
      "stateMutability": "view",
      "type": "function"
    },
    {
      "inputs": [],
      "name": "name",
      "outputs": [
        {
          "internalType": "string",
          "name": "",
          "type": "string"
        }
      ],
      "stateMutability": "view",
      "type": "function"
    },
    {
      "inputs": [
        {
          "internalType": "uint256",
          "name": "tokenId",
          "type": "uint256"
        }
      ],
      "name": "ownerOf",
      "outputs": [
        {
          "internalType": "address",
          "name": "",
          "type": "address"
        }
      ],
      "stateMutability": "view",
      "type": "function"
    },
    {
      "inputs": [
        {
          "internalType": "uint256",
          "name": "",
          "type": "uint256"
        }
      ],
      "name": "owners",
      "outputs": [
        {
          "internalType": "address",
          "name": "",
          "type": "address"
        }
      ],
      "stateMutability": "view",
      "type": "function"
    },
    {
      "inputs": [
        {
          "internalType": "address",
          "name": "from",
          "type": "address"
        },
        {
          "internalType": "address",
          "name": "to",
          "type": "address"
        },
        {
          "internalType": "uint256",
          "name": "tokenId",
          "type": "uint256"
        }
      ],
      "name": "safeTransferFrom",
      "outputs": [],
      "stateMutability": "nonpayable",
      "type": "function"
    },
    {
      "inputs": [
        {
          "internalType": "address",
          "name": "from",
          "type": "address"
        },
        {
          "internalType": "address",
          "name": "to",
          "type": "address"
        },
        {
          "internalType": "uint256",
          "name": "tokenId",
          "type": "uint256"
        },
        {
          "internalType": "bytes",
          "name": "data",
          "type": "bytes"
        }
      ],
      "name": "safeTransferFrom",
      "outputs": [],
      "stateMutability": "nonpayable",
      "type": "function"
    },
    {
      "inputs": [
        {
          "internalType": "address",
          "name": "operator",
          "type": "address"
        },
        {
          "internalType": "bool",
          "name": "approved",
          "type": "bool"
        }
      ],
      "name": "setApprovalForAll",
      "outputs": [],
      "stateMutability": "nonpayable",
      "type": "function"
    },
    {
      "inputs": [
        {
          "internalType": "bytes4",
          "name": "interfaceId",
          "type": "bytes4"
        }
      ],
      "name": "supportsInterface",
      "outputs": [
        {
          "internalType": "bool",
          "name": "",
          "type": "bool"
        }
      ],
      "stateMutability": "view",
      "type": "function"
    },
    {
      "inputs": [],
      "name": "symbol",
      "outputs": [
        {
          "internalType": "string",
          "name": "",
          "type": "string"
        }
      ],
      "stateMutability": "view",
      "type": "function"
    },
    {
      "inputs": [
        {
          "internalType": "uint256",
          "name": "tokenId",
          "type": "uint256"
        }
      ],
      "name": "tokenURI",
      "outputs": [
        {
          "internalType": "string",
          "name": "",
          "type": "string"
        }
      ],
      "stateMutability": "view",
      "type": "function"
    },
    {
      "inputs": [
        {
          "internalType": "address",
          "name": "from",
          "type": "address"
        },
        {
          "internalType": "address",
          "name": "to",
          "type": "address"
        },
        {
          "internalType": "uint256",
          "name": "tokenId",
          "type": "uint256"
        }
      ],
      "name": "transferFrom",
      "outputs": [],
      "stateMutability": "nonpayable",
      "type": "function"
    },
    {
      "inputs": [],
      "name": "uri",
      "outputs": [
        {
          "internalType": "string",
          "name": "",
          "type": "string"
        }
      ],
      "stateMutability": "view",
      "type": "function"
    },
    {
      "inputs": [],
      "name": "createVault",
      "outputs": [
        {
          "internalType": "uint256",
          "name": "",
          "type": "uint256"
        }
      ],
      "stateMutability": "nonpayable",
      "type": "function"
    },
    {
      "inputs": [
        {
          "internalType": "uint256",
          "name": "_erc721_Id",
          "type": "uint256"
        },
        {
          "internalType": "uint256",
          "name": "_amount",
          "type": "uint256"
        },
        {
          "internalType": "uint256",
          "name": "_front",
          "type": "uint256"
        }
      ],
      "name": "borrowToken",
      "outputs": [],
      "stateMutability": "nonpayable",
      "type": "function"
    },
    {
      "inputs": [
        {
          "internalType": "uint256",
          "name": "_erc721_Id",
          "type": "uint256"
        },
        {
          "internalType": "uint256",
          "name": "amount",
          "type": "uint256"
        }
      ],
      "name": "depositCollateral",
      "outputs": [],
      "stateMutability": "nonpayable",
      "type": "function"
    },
    {
      "inputs": [
        {
          "internalType": "address",
          "name": "from",
          "type": "address"
        },
        {
          "internalType": "address",
          "name": "_to",
          "type": "address"
        },
        {
          "internalType": "uint256",
          "name": "_erc721_Id",
          "type": "uint256"
        }
      ],
      "name": "TransferFrom",
      "outputs": [],
      "stateMutability": "nonpayable",
      "type": "function"
    },
    {
      "inputs": [
        {
          "internalType": "uint256",
          "name": "vaultId",
          "type": "uint256"
        }
      ],
      "name": "updateVaultDebt",
      "outputs": [
        {
          "internalType": "uint256",
          "name": "",
          "type": "uint256"
        }
      ],
      "stateMutability": "view",
      "type": "function"
    },
    {
      "inputs": [
        {
          "internalType": "uint256",
          "name": "vaultID",
          "type": "uint256"
        },
        {
          "internalType": "uint256",
          "name": "amount",
          "type": "uint256"
        },
        {
          "internalType": "uint256",
          "name": "_front",
          "type": "uint256"
        }
      ],
      "name": "payBackToken",
      "outputs": [],
      "stateMutability": "nonpayable",
      "type": "function"
    },
    {
      "inputs": [
        {
          "internalType": "uint256",
          "name": "vaultID",
          "type": "uint256"
        },
        {
          "internalType": "uint256",
          "name": "amount",
          "type": "uint256"
        }
      ],
      "name": "withdrawCollateral",
      "outputs": [],
      "stateMutability": "nonpayable",
      "type": "function"
    },
    {
      "inputs": [
        {
          "internalType": "address",
          "name": "_owner",
          "type": "address"
        }
      ],
      "name": "getMaiBalance",
      "outputs": [
        {
          "internalType": "uint256",
          "name": "",
          "type": "uint256"
        }
      ],
      "stateMutability": "view",
      "type": "function"
    },
    {
      "inputs": [
        {
          "internalType": "uint256",
          "name": "_vaultId",
          "type": "uint256"
        }
      ],
      "name": "getVaultDebt",
      "outputs": [
        {
          "internalType": "uint256",
          "name": "",
          "type": "uint256"
        }
      ],
      "stateMutability": "view",
      "type": "function"
    },
    {
      "inputs": [
        {
          "internalType": "uint256",
          "name": "_vaultId",
          "type": "uint256"
        }
      ],
      "name": "getVaultCollateral",
      "outputs": [
        {
          "internalType": "uint256",
          "name": "",
          "type": "uint256"
        }
      ],
      "stateMutability": "view",
      "type": "function"
    },
    {
      "inputs": [
        {
          "internalType": "uint256",
          "name": "_vaultId",
          "type": "uint256"
        }
      ],
      "name": "getOwner",
      "outputs": [
        {
          "internalType": "address",
          "name": "",
          "type": "address"
        }
      ],
      "stateMutability": "view",
      "type": "function"
    },
    {
      "inputs": [
        {
          "internalType": "uint256",
          "name": "_amount",
          "type": "uint256"
        }
      ],
      "name": "getMai",
      "outputs": [],
      "stateMutability": "nonpayable",
      "type": "function"
    }
  ],
  "bytecode": "0x60806040526000600d553480156200001657600080fd5b50604051620040e8380380620040e883398181016040528101906200003c9190620001f9565b81818181816000908051906020019062000058929190620000c0565b50806001908051906020019062000071929190620000c0565b505050505082600760006101000a81548173ffffffffffffffffffffffffffffffffffffffff021916908373ffffffffffffffffffffffffffffffffffffffff1602179055505050506200043f565b828054620000ce906200034a565b90600052602060002090601f016020900481019282620000f257600085556200013e565b82601f106200010d57805160ff19168380011785556200013e565b828001600101855582156200013e579182015b828111156200013d57825182559160200191906001019062000120565b5b5090506200014d919062000151565b5090565b5b808211156200016c57600081600090555060010162000152565b5090565b6000620001876200018184620002aa565b62000281565b905082815260208101848484011115620001a057600080fd5b620001ad84828562000314565b509392505050565b600081519050620001c68162000425565b92915050565b600082601f830112620001de57600080fd5b8151620001f084826020860162000170565b91505092915050565b6000806000606084860312156200020f57600080fd5b60006200021f86828701620001b5565b935050602084015167ffffffffffffffff8111156200023d57600080fd5b6200024b86828701620001cc565b925050604084015167ffffffffffffffff8111156200026957600080fd5b6200027786828701620001cc565b9150509250925092565b60006200028d620002a0565b90506200029b828262000380565b919050565b6000604051905090565b600067ffffffffffffffff821115620002c857620002c7620003e5565b5b620002d38262000414565b9050602081019050919050565b6000620002ed82620002f4565b9050919050565b600073ffffffffffffffffffffffffffffffffffffffff82169050919050565b60005b838110156200033457808201518184015260208101905062000317565b8381111562000344576000848401525b50505050565b600060028204905060018216806200036357607f821691505b602082108114156200037a5762000379620003b6565b5b50919050565b6200038b8262000414565b810181811067ffffffffffffffff82111715620003ad57620003ac620003e5565b5b80604052505050565b7f4e487b7100000000000000000000000000000000000000000000000000000000600052602260045260246000fd5b7f4e487b7100000000000000000000000000000000000000000000000000000000600052604160045260246000fd5b6000601f19601f8301169050919050565b6200043081620002e0565b81146200043c57600080fd5b50565b613c99806200044f6000396000f3fe608060405234801561001057600080fd5b50600436106101f05760003560e01c8063719742621161010f578063c0d84ce5116100a2578063eac989f811610071578063eac989f814610625578063ece1373214610643578063ee3e98e71461065f578063f5b36dee1461068f576101f0565b8063c0d84ce514610579578063c41a360a14610595578063c87b56dd146105c5578063e985e9c5146105f5576101f0565b806395d89b41116100de57806395d89b411461050757806397a41b8e14610525578063a22cb46514610541578063b88d4fde1461055d576101f0565b8063719742621461045b578063767a7b051461048b5780639213b124146104a757806393ee476a146104d7576101f0565b806342842e0e1161018757806363bda6e11161015657806363bda6e1146103af5780636b5f6fda146103df5780636e1645e7146103fb57806370a082311461042b576101f0565b806342842e0e14610327578063570b2b84146103435780635d12928b146103615780636352211e1461037f576101f0565b8063095ea7b3116101c3578063095ea7b3146102a357806323b872dd146102bf5780633128ef27146102db57806335836f15146102f7576101f0565b806301ffc9a7146101f5578063025e7c271461022557806306fdde0314610255578063081812fc14610273575b600080fd5b61020f600480360381019061020a9190612c7c565b6106bf565b60405161021c9190613210565b60405180910390f35b61023f600480360381019061023a9190612cce565b6107a1565b60405161024c9190613149565b60405180910390f35b61025d6107d4565b60405161026a9190613246565b60405180910390f35b61028d60048036038101906102889190612cce565b610866565b60405161029a9190613149565b60405180910390f35b6102bd60048036038101906102b89190612c17565b6108ac565b005b6102d960048036038101906102d49190612b11565b6109c4565b005b6102f560048036038101906102f09190612d5c565b610a24565b005b610311600480360381019061030c9190612cce565b610a78565b60405161031e9190613488565b60405180910390f35b610341600480360381019061033c9190612b11565b610a95565b005b61034b610ab5565b604051610358919061322b565b60405180910390f35b610369610adb565b6040516103769190613488565b60405180910390f35b61039960048036038101906103949190612cce565b610b18565b6040516103a69190613149565b60405180910390f35b6103c960048036038101906103c49190612aac565b610b9f565b6040516103d69190613488565b60405180910390f35b6103f960048036038101906103f49190612cce565b610c53565b005b61041560048036038101906104109190612aac565b610cac565b6040516104229190613488565b60405180910390f35b61044560048036038101906104409190612aac565b610cc4565b6040516104529190613488565b60405180910390f35b61047560048036038101906104709190612cce565b610d7c565b6040516104829190613488565b60405180910390f35b6104a560048036038101906104a09190612d20565b610d94565b005b6104c160048036038101906104bc9190612cce565b610f83565b6040516104ce9190613488565b60405180910390f35b6104f160048036038101906104ec9190612cce565b610f9b565b6040516104fe9190613488565b60405180910390f35b61050f610fb8565b60405161051c9190613246565b60405180910390f35b61053f600480360381019061053a9190612d5c565b61104a565b005b61055b60048036038101906105569190612bdb565b6111b0565b005b61057760048036038101906105729190612b60565b6111c6565b005b610593600480360381019061058e9190612b11565b611228565b005b6105af60048036038101906105aa9190612cce565b6113ce565b6040516105bc9190613149565b60405180910390f35b6105df60048036038101906105da9190612cce565b61140b565b6040516105ec9190613246565b60405180910390f35b61060f600480360381019061060a9190612ad5565b611473565b60405161061c9190613210565b60405180910390f35b61062d611507565b60405161063a9190613246565b60405180910390f35b61065d60048036038101906106589190612d20565b611595565b005b61067960048036038101906106749190612cce565b611639565b6040516106869190613488565b60405180910390f35b6106a960048036038101906106a49190612aac565b611656565b6040516106b69190613488565b60405180910390f35b60007f80ac58cd000000000000000000000000000000000000000000000000000000007bffffffffffffffffffffffffffffffffffffffffffffffffffffffff1916827bffffffffffffffffffffffffffffffffffffffffffffffffffffffff1916148061078a57507f5b5e139f000000000000000000000000000000000000000000000000000000007bffffffffffffffffffffffffffffffffffffffffffffffffffffffff1916827bffffffffffffffffffffffffffffffffffffffffffffffffffffffff1916145b8061079a57506107998261166e565b5b9050919050565b60086020528060005260406000206000915054906101000a900473ffffffffffffffffffffffffffffffffffffffff1681565b6060600080546107e3906136ab565b80601f016020809104026020016040519081016040528092919081815260200182805461080f906136ab565b801561085c5780601f106108315761010080835404028352916020019161085c565b820191906000526020600020905b81548152906001019060200180831161083f57829003601f168201915b5050505050905090565b6000610871826116d8565b6004600083815260200190815260200160002060009054906101000a900473ffffffffffffffffffffffffffffffffffffffff169050919050565b60006108b782610b18565b90508073ffffffffffffffffffffffffffffffffffffffff168373ffffffffffffffffffffffffffffffffffffffff161415610928576040517f08c379a000000000000000000000000000000000000000000000000000000000815260040161091f906133e8565b60405180910390fd5b8073ffffffffffffffffffffffffffffffffffffffff16610947611723565b73ffffffffffffffffffffffffffffffffffffffff161480610976575061097581610970611723565b611473565b5b6109b5576040517f08c379a00000000000000000000000000000000000000000000000000000000081526004016109ac90613408565b60405180910390fd5b6109bf838361172b565b505050565b6109d56109cf611723565b826117e4565b610a14576040517f08c379a0000000000000000000000000000000000000000000000000000000008152600401610a0b90613268565b60405180910390fd5b610a1f838383611879565b505050565b610a73333084600760009054906101000a900473ffffffffffffffffffffffffffffffffffffffff1673ffffffffffffffffffffffffffffffffffffffff16611b73909392919063ffffffff16565b505050565b6000600b6000838152602001908152602001600020549050919050565b610ab0838383604051806020016040528060008152506111c6565b505050565b600760009054906101000a900473ffffffffffffffffffffffffffffffffffffffff1681565b600080600d5490506001600d54610af29190613547565b600d8190555080600d541015610b0757600080fd5b610b113382611bfc565b8091505090565b600080610b2483611e1a565b9050600073ffffffffffffffffffffffffffffffffffffffff168173ffffffffffffffffffffffffffffffffffffffff161415610b96576040517f08c379a0000000000000000000000000000000000000000000000000000000008152600401610b8d906133c8565b60405180910390fd5b80915050919050565b6000600760009054906101000a900473ffffffffffffffffffffffffffffffffffffffff1673ffffffffffffffffffffffffffffffffffffffff166370a08231836040518263ffffffff1660e01b8152600401610bfc9190613149565b60206040518083038186803b158015610c1457600080fd5b505afa158015610c28573d6000803e3d6000fd5b505050506040513d601f19601f82011682018060405250810190610c4c9190612cf7565b9050919050565b80600c60003373ffffffffffffffffffffffffffffffffffffffff1673ffffffffffffffffffffffffffffffffffffffff1681526020019081526020016000206000828254610ca29190613547565b9250508190555050565b60096020528060005260406000206000915090505481565b60008073ffffffffffffffffffffffffffffffffffffffff168273ffffffffffffffffffffffffffffffffffffffff161415610d35576040517f08c379a0000000000000000000000000000000000000000000000000000000008152600401610d2c90613348565b60405180910390fd5b600360008373ffffffffffffffffffffffffffffffffffffffff1673ffffffffffffffffffffffffffffffffffffffff168152602001908152602001600020549050919050565b600b6020528060005260406000206000915090505481565b3373ffffffffffffffffffffffffffffffffffffffff166008600084815260200190815260200160002060009054906101000a900473ffffffffffffffffffffffffffffffffffffffff1673ffffffffffffffffffffffffffffffffffffffff1614610e35576040517f08c379a0000000000000000000000000000000000000000000000000000000008152600401610e2c906133a8565b60405180910390fd5b80600a6000848152602001908152602001600020541015610e8b576040517f08c379a0000000000000000000000000000000000000000000000000000000008152600401610e8290613448565b60405180910390fd5b80600a600084815260200190815260200160002054610eaa919061359d565b600b6000848152602001908152602001600020541115610eff576040517f08c379a0000000000000000000000000000000000000000000000000000000008152600401610ef690613448565b60405180910390fd5b80600a60008481526020019081526020016000206000828254610f22919061359d565b9250508190555080600c60003373ffffffffffffffffffffffffffffffffffffffff1673ffffffffffffffffffffffffffffffffffffffff1681526020019081526020016000206000828254610f789190613547565b925050819055505050565b600a6020528060005260406000206000915090505481565b6000600b6000838152602001908152602001600020549050919050565b606060018054610fc7906136ab565b80601f0160208091040260200160405190810160405280929190818152602001828054610ff3906136ab565b80156110405780601f1061101557610100808354040283529160200191611040565b820191906000526020600020905b81548152906001019060200180831161102357829003601f168201915b5050505050905090565b3373ffffffffffffffffffffffffffffffffffffffff1661106a84610b18565b73ffffffffffffffffffffffffffffffffffffffff16146110c0576040517f08c379a00000000000000000000000000000000000000000000000000000000081526004016110b790613388565b60405180910390fd5b81600b600085815260200190815260200160002054600a6000868152602001908152602001600020546110f3919061359d565b1015611134576040517f08c379a000000000000000000000000000000000000000000000000000000000815260040161112b90613448565b60405180910390fd5b6111813383600760009054906101000a900473ffffffffffffffffffffffffffffffffffffffff1673ffffffffffffffffffffffffffffffffffffffff16611e579092919063ffffffff16565b81600b600085815260200190815260200160002060008282546111a49190613547565b92505081905550505050565b6111c26111bb611723565b8383611edd565b5050565b6111d76111d1611723565b836117e4565b611216576040517f08c379a000000000000000000000000000000000000000000000000000000000815260040161120d90613268565b60405180910390fd5b6112228484848461204a565b50505050565b3373ffffffffffffffffffffffffffffffffffffffff166008600083815260200190815260200160002060009054906101000a900473ffffffffffffffffffffffffffffffffffffffff1673ffffffffffffffffffffffffffffffffffffffff16146112c9576040517f08c379a00000000000000000000000000000000000000000000000000000000081526004016112c090613388565b60405180910390fd5b816008600083815260200190815260200160002060006101000a81548173ffffffffffffffffffffffffffffffffffffffff021916908373ffffffffffffffffffffffffffffffffffffffff1602179055506001600960008573ffffffffffffffffffffffffffffffffffffffff1673ffffffffffffffffffffffffffffffffffffffff168152602001908152602001600020600082825461136b919061359d565b925050819055506001600960008473ffffffffffffffffffffffffffffffffffffffff1673ffffffffffffffffffffffffffffffffffffffff16815260200190815260200160002060008282546113c29190613547565b92505081905550505050565b60006008600083815260200190815260200160002060009054906101000a900473ffffffffffffffffffffffffffffffffffffffff169050919050565b6060611416826116d8565b60006114206120a6565b90506000815111611440576040518060200160405280600081525061146b565b8061144a846120bd565b60405160200161145b929190613125565b6040516020818303038152906040525b915050919050565b6000600560008473ffffffffffffffffffffffffffffffffffffffff1673ffffffffffffffffffffffffffffffffffffffff16815260200190815260200160002060008373ffffffffffffffffffffffffffffffffffffffff1673ffffffffffffffffffffffffffffffffffffffff16815260200190815260200160002060009054906101000a900460ff16905092915050565b60068054611514906136ab565b80601f0160208091040260200160405190810160405280929190818152602001828054611540906136ab565b801561158d5780601f106115625761010080835404028352916020019161158d565b820191906000526020600020905b81548152906001019060200180831161157057829003601f168201915b505050505081565b3373ffffffffffffffffffffffffffffffffffffffff166115b583610b18565b73ffffffffffffffffffffffffffffffffffffffff161461160b576040517f08c379a000000000000000000000000000000000000000000000000000000000815260040161160290613388565b60405180910390fd5b80600a6000848152602001908152602001600020600082825461162e9190613547565b925050819055505050565b6000600a6000838152602001908152602001600020549050919050565b600c6020528060005260406000206000915090505481565b60007f01ffc9a7000000000000000000000000000000000000000000000000000000007bffffffffffffffffffffffffffffffffffffffffffffffffffffffff1916827bffffffffffffffffffffffffffffffffffffffffffffffffffffffff1916149050919050565b6116e1816121e1565b611720576040517f08c379a0000000000000000000000000000000000000000000000000000000008152600401611717906133c8565b60405180910390fd5b50565b600033905090565b816004600083815260200190815260200160002060006101000a81548173ffffffffffffffffffffffffffffffffffffffff021916908373ffffffffffffffffffffffffffffffffffffffff160217905550808273ffffffffffffffffffffffffffffffffffffffff1661179e83610b18565b73ffffffffffffffffffffffffffffffffffffffff167f8c5be1e5ebec7d5bd14f71427d1e84f3dd0314c0f7b2291e5b200ac8c7c3b92560405160405180910390a45050565b6000806117f083610b18565b90508073ffffffffffffffffffffffffffffffffffffffff168473ffffffffffffffffffffffffffffffffffffffff16148061183257506118318185611473565b5b8061187057508373ffffffffffffffffffffffffffffffffffffffff1661185884610866565b73ffffffffffffffffffffffffffffffffffffffff16145b91505092915050565b8273ffffffffffffffffffffffffffffffffffffffff1661189982610b18565b73ffffffffffffffffffffffffffffffffffffffff16146118ef576040517f08c379a00000000000000000000000000000000000000000000000000000000081526004016118e6906132a8565b60405180910390fd5b600073ffffffffffffffffffffffffffffffffffffffff168273ffffffffffffffffffffffffffffffffffffffff16141561195f576040517f08c379a0000000000000000000000000000000000000000000000000000000008152600401611956906132e8565b60405180910390fd5b61196c8383836001612222565b8273ffffffffffffffffffffffffffffffffffffffff1661198c82610b18565b73ffffffffffffffffffffffffffffffffffffffff16146119e2576040517f08c379a00000000000000000000000000000000000000000000000000000000081526004016119d9906132a8565b60405180910390fd5b6004600082815260200190815260200160002060006101000a81549073ffffffffffffffffffffffffffffffffffffffff02191690556001600360008573ffffffffffffffffffffffffffffffffffffffff1673ffffffffffffffffffffffffffffffffffffffff168152602001908152602001600020600082825403925050819055506001600360008473ffffffffffffffffffffffffffffffffffffffff1673ffffffffffffffffffffffffffffffffffffffff16815260200190815260200160002060008282540192505081905550816002600083815260200190815260200160002060006101000a81548173ffffffffffffffffffffffffffffffffffffffff021916908373ffffffffffffffffffffffffffffffffffffffff160217905550808273ffffffffffffffffffffffffffffffffffffffff168473ffffffffffffffffffffffffffffffffffffffff167fddf252ad1be2c89b69c2b068fc378daa952ba7f163c4a11628f55a4df523b3ef60405160405180910390a4611b6e8383836001612348565b505050565b611bf6846323b872dd60e01b858585604051602401611b9493929190613164565b604051602081830303815290604052907bffffffffffffffffffffffffffffffffffffffffffffffffffffffff19166020820180517bffffffffffffffffffffffffffffffffffffffffffffffffffffffff838183161783525050505061234e565b50505050565b600073ffffffffffffffffffffffffffffffffffffffff168273ffffffffffffffffffffffffffffffffffffffff161415611c6c576040517f08c379a0000000000000000000000000000000000000000000000000000000008152600401611c6390613368565b60405180910390fd5b611c75816121e1565b15611cb5576040517f08c379a0000000000000000000000000000000000000000000000000000000008152600401611cac906132c8565b60405180910390fd5b611cc3600083836001612222565b611ccc816121e1565b15611d0c576040517f08c379a0000000000000000000000000000000000000000000000000000000008152600401611d03906132c8565b60405180910390fd5b6001600360008473ffffffffffffffffffffffffffffffffffffffff1673ffffffffffffffffffffffffffffffffffffffff16815260200190815260200160002060008282540192505081905550816002600083815260200190815260200160002060006101000a81548173ffffffffffffffffffffffffffffffffffffffff021916908373ffffffffffffffffffffffffffffffffffffffff160217905550808273ffffffffffffffffffffffffffffffffffffffff16600073ffffffffffffffffffffffffffffffffffffffff167fddf252ad1be2c89b69c2b068fc378daa952ba7f163c4a11628f55a4df523b3ef60405160405180910390a4611e16600083836001612348565b5050565b60006002600083815260200190815260200160002060009054906101000a900473ffffffffffffffffffffffffffffffffffffffff169050919050565b611ed88363a9059cbb60e01b8484604051602401611e769291906131e7565b604051602081830303815290604052907bffffffffffffffffffffffffffffffffffffffffffffffffffffffff19166020820180517bffffffffffffffffffffffffffffffffffffffffffffffffffffffff838183161783525050505061234e565b505050565b8173ffffffffffffffffffffffffffffffffffffffff168373ffffffffffffffffffffffffffffffffffffffff161415611f4c576040517f08c379a0000000000000000000000000000000000000000000000000000000008152600401611f4390613308565b60405180910390fd5b80600560008573ffffffffffffffffffffffffffffffffffffffff1673ffffffffffffffffffffffffffffffffffffffff16815260200190815260200160002060008473ffffffffffffffffffffffffffffffffffffffff1673ffffffffffffffffffffffffffffffffffffffff16815260200190815260200160002060006101000a81548160ff0219169083151502179055508173ffffffffffffffffffffffffffffffffffffffff168373ffffffffffffffffffffffffffffffffffffffff167f17307eab39ab6107e8899845ad3d59bd9653f200f220920489ca2b5937696c318360405161203d9190613210565b60405180910390a3505050565b612055848484611879565b61206184848484612415565b6120a0576040517f08c379a000000000000000000000000000000000000000000000000000000000815260040161209790613288565b60405180910390fd5b50505050565b606060405180602001604052806000815250905090565b6060600060016120cc846125ac565b01905060008167ffffffffffffffff811115612111577f4e487b7100000000000000000000000000000000000000000000000000000000600052604160045260246000fd5b6040519080825280601f01601f1916602001820160405280156121435781602001600182028036833780820191505090505b509050600082602001820190505b6001156121d6578080600190039150507f3031323334353637383961626364656600000000000000000000000000000000600a86061a8153600a85816121c0577f4e487b7100000000000000000000000000000000000000000000000000000000600052601260045260246000fd5b04945060008514156121d1576121d6565b612151565b819350505050919050565b60008073ffffffffffffffffffffffffffffffffffffffff1661220383611e1a565b73ffffffffffffffffffffffffffffffffffffffff1614159050919050565b600181111561234257600073ffffffffffffffffffffffffffffffffffffffff168473ffffffffffffffffffffffffffffffffffffffff16146122b65780600360008673ffffffffffffffffffffffffffffffffffffffff1673ffffffffffffffffffffffffffffffffffffffff16815260200190815260200160002060008282546122ae919061359d565b925050819055505b600073ffffffffffffffffffffffffffffffffffffffff168373ffffffffffffffffffffffffffffffffffffffff16146123415780600360008573ffffffffffffffffffffffffffffffffffffffff1673ffffffffffffffffffffffffffffffffffffffff16815260200190815260200160002060008282546123399190613547565b925050819055505b5b50505050565b50505050565b60006123b0826040518060400160405280602081526020017f5361666545524332303a206c6f772d6c6576656c2063616c6c206661696c65648152508573ffffffffffffffffffffffffffffffffffffffff166127e39092919063ffffffff16565b905060008151111561241057808060200190518101906123d09190612c53565b61240f576040517f08c379a000000000000000000000000000000000000000000000000000000000815260040161240690613468565b60405180910390fd5b5b505050565b60006124368473ffffffffffffffffffffffffffffffffffffffff166127fb565b1561259f578373ffffffffffffffffffffffffffffffffffffffff1663150b7a0261245f611723565b8786866040518563ffffffff1660e01b8152600401612481949392919061319b565b602060405180830381600087803b15801561249b57600080fd5b505af19250505080156124cc57506040513d601f19601f820116820180604052508101906124c99190612ca5565b60015b61254f573d80600081146124fc576040519150601f19603f3d011682016040523d82523d6000602084013e612501565b606091505b50600081511415612547576040517f08c379a000000000000000000000000000000000000000000000000000000000815260040161253e90613288565b60405180910390fd5b805181602001fd5b63150b7a0260e01b7bffffffffffffffffffffffffffffffffffffffffffffffffffffffff1916817bffffffffffffffffffffffffffffffffffffffffffffffffffffffff1916149150506125a4565b600190505b949350505050565b600080600090507a184f03e93ff9f4daa797ed6e38ed64bf6a1f0100000000000000008310612630577a184f03e93ff9f4daa797ed6e38ed64bf6a1f0100000000000000008381612626577f4e487b7100000000000000000000000000000000000000000000000000000000600052601260045260246000fd5b0492506040810190505b6d04ee2d6d415b85acef81000000008310612693576d04ee2d6d415b85acef81000000008381612689577f4e487b7100000000000000000000000000000000000000000000000000000000600052601260045260246000fd5b0492506020810190505b662386f26fc1000083106126e857662386f26fc1000083816126de577f4e487b7100000000000000000000000000000000000000000000000000000000600052601260045260246000fd5b0492506010810190505b6305f5e1008310612737576305f5e100838161272d577f4e487b7100000000000000000000000000000000000000000000000000000000600052601260045260246000fd5b0492506008810190505b6127108310612782576127108381612778577f4e487b7100000000000000000000000000000000000000000000000000000000600052601260045260246000fd5b0492506004810190505b606483106127cb57606483816127c1577f4e487b7100000000000000000000000000000000000000000000000000000000600052601260045260246000fd5b0492506002810190505b600a83106127da576001810190505b80915050919050565b60606127f2848460008561281e565b90509392505050565b6000808273ffffffffffffffffffffffffffffffffffffffff163b119050919050565b606082471015612863576040517f08c379a000000000000000000000000000000000000000000000000000000000815260040161285a90613328565b60405180910390fd5b6000808673ffffffffffffffffffffffffffffffffffffffff16858760405161288c919061310e565b60006040518083038185875af1925050503d80600081146128c9576040519150601f19603f3d011682016040523d82523d6000602084013e6128ce565b606091505b50915091506128df878383876128eb565b92505050949350505050565b6060831561294e5760008351141561294657612906856127fb565b612945576040517f08c379a000000000000000000000000000000000000000000000000000000000815260040161293c90613428565b60405180910390fd5b5b829050612959565b6129588383612961565b5b949350505050565b6000825111156129745781518083602001fd5b806040517f08c379a00000000000000000000000000000000000000000000000000000000081526004016129a89190613246565b60405180910390fd5b60006129c46129bf846134c8565b6134a3565b9050828152602081018484840111156129dc57600080fd5b6129e7848285613669565b509392505050565b6000813590506129fe81613c07565b92915050565b600081359050612a1381613c1e565b92915050565b600081519050612a2881613c1e565b92915050565b600081359050612a3d81613c35565b92915050565b600081519050612a5281613c35565b92915050565b600082601f830112612a6957600080fd5b8135612a798482602086016129b1565b91505092915050565b600081359050612a9181613c4c565b92915050565b600081519050612aa681613c4c565b92915050565b600060208284031215612abe57600080fd5b6000612acc848285016129ef565b91505092915050565b60008060408385031215612ae857600080fd5b6000612af6858286016129ef565b9250506020612b07858286016129ef565b9150509250929050565b600080600060608486031215612b2657600080fd5b6000612b34868287016129ef565b9350506020612b45868287016129ef565b9250506040612b5686828701612a82565b9150509250925092565b60008060008060808587031215612b7657600080fd5b6000612b84878288016129ef565b9450506020612b95878288016129ef565b9350506040612ba687828801612a82565b925050606085013567ffffffffffffffff811115612bc357600080fd5b612bcf87828801612a58565b91505092959194509250565b60008060408385031215612bee57600080fd5b6000612bfc858286016129ef565b9250506020612c0d85828601612a04565b9150509250929050565b60008060408385031215612c2a57600080fd5b6000612c38858286016129ef565b9250506020612c4985828601612a82565b9150509250929050565b600060208284031215612c6557600080fd5b6000612c7384828501612a19565b91505092915050565b600060208284031215612c8e57600080fd5b6000612c9c84828501612a2e565b91505092915050565b600060208284031215612cb757600080fd5b6000612cc584828501612a43565b91505092915050565b600060208284031215612ce057600080fd5b6000612cee84828501612a82565b91505092915050565b600060208284031215612d0957600080fd5b6000612d1784828501612a97565b91505092915050565b60008060408385031215612d3357600080fd5b6000612d4185828601612a82565b9250506020612d5285828601612a82565b9150509250929050565b600080600060608486031215612d7157600080fd5b6000612d7f86828701612a82565b9350506020612d9086828701612a82565b9250506040612da186828701612a82565b9150509250925092565b612db4816135d1565b82525050565b612dc3816135e3565b82525050565b6000612dd4826134f9565b612dde818561350f565b9350612dee818560208601613678565b612df78161379b565b840191505092915050565b6000612e0d826134f9565b612e178185613520565b9350612e27818560208601613678565b80840191505092915050565b612e3c81613645565b82525050565b6000612e4d82613504565b612e57818561352b565b9350612e67818560208601613678565b612e708161379b565b840191505092915050565b6000612e8682613504565b612e90818561353c565b9350612ea0818560208601613678565b80840191505092915050565b6000612eb9602d8361352b565b9150612ec4826137ac565b604082019050919050565b6000612edc60328361352b565b9150612ee7826137fb565b604082019050919050565b6000612eff60258361352b565b9150612f0a8261384a565b604082019050919050565b6000612f22601c8361352b565b9150612f2d82613899565b602082019050919050565b6000612f4560248361352b565b9150612f50826138c2565b604082019050919050565b6000612f6860198361352b565b9150612f7382613911565b602082019050919050565b6000612f8b60268361352b565b9150612f968261393a565b604082019050919050565b6000612fae60298361352b565b9150612fb982613989565b604082019050919050565b6000612fd160208361352b565b9150612fdc826139d8565b602082019050919050565b6000612ff460218361352b565b9150612fff82613a01565b604082019050919050565b600061301760238361352b565b915061302282613a50565b604082019050919050565b600061303a60188361352b565b915061304582613a9f565b602082019050919050565b600061305d60218361352b565b915061306882613ac8565b604082019050919050565b6000613080603d8361352b565b915061308b82613b17565b604082019050919050565b60006130a3601d8361352b565b91506130ae82613b66565b602082019050919050565b60006130c660208361352b565b91506130d182613b8f565b602082019050919050565b60006130e9602a8361352b565b91506130f482613bb8565b604082019050919050565b6131088161363b565b82525050565b600061311a8284612e02565b915081905092915050565b60006131318285612e7b565b915061313d8284612e7b565b91508190509392505050565b600060208201905061315e6000830184612dab565b92915050565b60006060820190506131796000830186612dab565b6131866020830185612dab565b61319360408301846130ff565b949350505050565b60006080820190506131b06000830187612dab565b6131bd6020830186612dab565b6131ca60408301856130ff565b81810360608301526131dc8184612dc9565b905095945050505050565b60006040820190506131fc6000830185612dab565b61320960208301846130ff565b9392505050565b60006020820190506132256000830184612dba565b92915050565b60006020820190506132406000830184612e33565b92915050565b600060208201905081810360008301526132608184612e42565b905092915050565b6000602082019050818103600083015261328181612eac565b9050919050565b600060208201905081810360008301526132a181612ecf565b9050919050565b600060208201905081810360008301526132c181612ef2565b9050919050565b600060208201905081810360008301526132e181612f15565b9050919050565b6000602082019050818103600083015261330181612f38565b9050919050565b6000602082019050818103600083015261332181612f5b565b9050919050565b6000602082019050818103600083015261334181612f7e565b9050919050565b6000602082019050818103600083015261336181612fa1565b9050919050565b6000602082019050818103600083015261338181612fc4565b9050919050565b600060208201905081810360008301526133a181612fe7565b9050919050565b600060208201905081810360008301526133c18161300a565b9050919050565b600060208201905081810360008301526133e18161302d565b9050919050565b6000602082019050818103600083015261340181613050565b9050919050565b6000602082019050818103600083015261342181613073565b9050919050565b6000602082019050818103600083015261344181613096565b9050919050565b60006020820190508181036000830152613461816130b9565b9050919050565b60006020820190508181036000830152613481816130dc565b9050919050565b600060208201905061349d60008301846130ff565b92915050565b60006134ad6134be565b90506134b982826136dd565b919050565b6000604051905090565b600067ffffffffffffffff8211156134e3576134e261376c565b5b6134ec8261379b565b9050602081019050919050565b600081519050919050565b600081519050919050565b600082825260208201905092915050565b600081905092915050565b600082825260208201905092915050565b600081905092915050565b60006135528261363b565b915061355d8361363b565b9250827fffffffffffffffffffffffffffffffffffffffffffffffffffffffffffffffff038211156135925761359161370e565b5b828201905092915050565b60006135a88261363b565b91506135b38361363b565b9250828210156135c6576135c561370e565b5b828203905092915050565b60006135dc8261361b565b9050919050565b60008115159050919050565b60007fffffffff0000000000000000000000000000000000000000000000000000000082169050919050565b600073ffffffffffffffffffffffffffffffffffffffff82169050919050565b6000819050919050565b600061365082613657565b9050919050565b60006136628261361b565b9050919050565b82818337600083830152505050565b60005b8381101561369657808201518184015260208101905061367b565b838111156136a5576000848401525b50505050565b600060028204905060018216806136c357607f821691505b602082108114156136d7576136d661373d565b5b50919050565b6136e68261379b565b810181811067ffffffffffffffff821117156137055761370461376c565b5b80604052505050565b7f4e487b7100000000000000000000000000000000000000000000000000000000600052601160045260246000fd5b7f4e487b7100000000000000000000000000000000000000000000000000000000600052602260045260246000fd5b7f4e487b7100000000000000000000000000000000000000000000000000000000600052604160045260246000fd5b6000601f19601f8301169050919050565b7f4552433732313a2063616c6c6572206973206e6f7420746f6b656e206f776e6560008201527f72206f7220617070726f76656400000000000000000000000000000000000000602082015250565b7f4552433732313a207472616e7366657220746f206e6f6e20455243373231526560008201527f63656976657220696d706c656d656e7465720000000000000000000000000000602082015250565b7f4552433732313a207472616e736665722066726f6d20696e636f72726563742060008201527f6f776e6572000000000000000000000000000000000000000000000000000000602082015250565b7f4552433732313a20746f6b656e20616c7265616479206d696e74656400000000600082015250565b7f4552433732313a207472616e7366657220746f20746865207a65726f2061646460008201527f7265737300000000000000000000000000000000000000000000000000000000602082015250565b7f4552433732313a20617070726f766520746f2063616c6c657200000000000000600082015250565b7f416464726573733a20696e73756666696369656e742062616c616e636520666f60008201527f722063616c6c0000000000000000000000000000000000000000000000000000602082015250565b7f4552433732313a2061646472657373207a65726f206973206e6f74206120766160008201527f6c6964206f776e65720000000000000000000000000000000000000000000000602082015250565b7f4552433732313a206d696e7420746f20746865207a65726f2061646472657373600082015250565b7f596f7520617265206e6f7420746865206f776e6572206f662074686973204e4660008201527f5400000000000000000000000000000000000000000000000000000000000000602082015250565b7f596f7520617265206e6f7420746865206f776e6572206f66207468697320766160008201527f756c740000000000000000000000000000000000000000000000000000000000602082015250565b7f4552433732313a20696e76616c696420746f6b656e2049440000000000000000600082015250565b7f4552433732313a20617070726f76616c20746f2063757272656e74206f776e6560008201527f7200000000000000000000000000000000000000000000000000000000000000602082015250565b7f4552433732313a20617070726f76652063616c6c6572206973206e6f7420746f60008201527f6b656e206f776e6572206f7220617070726f76656420666f7220616c6c000000602082015250565b7f416464726573733a2063616c6c20746f206e6f6e2d636f6e7472616374000000600082015250565b7f596f7520646f6e2774206861766520656e6f75676820636f6c6c61746572616c600082015250565b7f5361666545524332303a204552433230206f7065726174696f6e20646964206e60008201527f6f74207375636365656400000000000000000000000000000000000000000000602082015250565b613c10816135d1565b8114613c1b57600080fd5b50565b613c27816135e3565b8114613c3257600080fd5b50565b613c3e816135ef565b8114613c4957600080fd5b50565b613c558161363b565b8114613c6057600080fd5b5056fea26469706673582212202ba3daf8c96b968ce63f04f956f76ddc1b3a58038f01d6f303bdde48da9f9fe864736f6c63430008010033",
  "immutableReferences": {},
  "source": "pragma solidity ^0.8.1; // regarder la version sur les contracts de qidao 0.5.5 demander  Nandy quel est le mieux \r\n\r\nimport \"@openzeppelin/contracts/token/ERC721/IERC721.sol\";\r\nimport \"@openzeppelin/contracts/token/ERC721/ERC721.sol\";\r\n//import \"@openzeppelin/contracts/token/ERC721/extensions/ERC721Enumerable.sol\";\r\nimport \"@openzeppelin/contracts/security/ReentrancyGuard.sol\";\r\nimport \"@openzeppelin/contracts/token/ERC20/ERC20.sol\";\r\n\r\n\r\n\r\npragma solidity ^0.8.0;\r\n\r\n\r\n/**\r\n * @title SafeERC20\r\n * @dev Wrappers around ERC20 operations that throw on failure (when the token\r\n * contract returns false). Tokens that return no value (and instead revert or\r\n * throw on failure) are also supported, non-reverting calls are assumed to be\r\n * successful.\r\n * To use this library you can add a `using SafeERC20 for IERC20;` statement to your contract,\r\n * which allows you to call the safe operations as `token.safeTransfer(...)`, etc.\r\n */\r\nlibrary SafeERC20 {\r\n    using Address for address;\r\n\r\n    function safeTransfer(\r\n        IERC20 token,\r\n        address to,\r\n        uint256 value\r\n    ) internal {\r\n        _callOptionalReturn(token, abi.encodeWithSelector(token.transfer.selector, to, value));\r\n    }\r\n\r\n    function safeTransferFrom(\r\n        IERC20 token,\r\n        address from,\r\n        address to,\r\n        uint256 value\r\n    ) internal {\r\n        _callOptionalReturn(token, abi.encodeWithSelector(token.transferFrom.selector, from, to, value));\r\n    }\r\n\r\n    /**\r\n     * @dev Deprecated. This function has issues similar to the ones found in\r\n     * {IERC20-approve}, and its usage is discouraged.\r\n     *\r\n     * Whenever possible, use {safeIncreaseAllowance} and\r\n     * {safeDecreaseAllowance} instead.\r\n     */\r\n    function safeApprove(\r\n        IERC20 token,\r\n        address spender,\r\n        uint256 value\r\n    ) internal {\r\n        // safeApprove should only be called when setting an initial allowance,\r\n        // or when resetting it to zero. To increase and decrease it, use\r\n        // 'safeIncreaseAllowance' and 'safeDecreaseAllowance'\r\n        require(\r\n            (value == 0) || (token.allowance(address(this), spender) == 0),\r\n            \"SafeERC20: approve from non-zero to non-zero allowance\"\r\n        );\r\n        _callOptionalReturn(token, abi.encodeWithSelector(token.approve.selector, spender, value));\r\n    }\r\n\r\n    function safeIncreaseAllowance(\r\n        IERC20 token,\r\n        address spender,\r\n        uint256 value\r\n    ) internal {\r\n        uint256 newAllowance = token.allowance(address(this), spender) + value;\r\n        _callOptionalReturn(token, abi.encodeWithSelector(token.approve.selector, spender, newAllowance));\r\n    }\r\n\r\n    function safeDecreaseAllowance(\r\n        IERC20 token,\r\n        address spender,\r\n        uint256 value\r\n    ) internal {\r\n        unchecked {\r\n            uint256 oldAllowance = token.allowance(address(this), spender);\r\n            require(oldAllowance >= value, \"SafeERC20: decreased allowance below zero\");\r\n            uint256 newAllowance = oldAllowance - value;\r\n            _callOptionalReturn(token, abi.encodeWithSelector(token.approve.selector, spender, newAllowance));\r\n        }\r\n    }\r\n\r\n    /**\r\n     * @dev Imitates a Solidity high-level call (i.e. a regular function call to a contract), relaxing the requirement\r\n     * on the return value: the return value is optional (but if data is returned, it must not be false).\r\n     * @param token The token targeted by the call.\r\n     * @param data The call data (encoded using abi.encode or one of its variants).\r\n     */\r\n    function _callOptionalReturn(IERC20 token, bytes memory data) private {\r\n        // We need to perform a low level call here, to bypass Solidity's return data size checking mechanism, since\r\n        // we're implementing it ourselves. We use {Address.functionCall} to perform this call, which verifies that\r\n        // the target address contains contract code and also asserts for success in the low-level call.\r\n\r\n        bytes memory returndata = address(token).functionCall(data, \"SafeERC20: low-level call failed\");\r\n        if (returndata.length > 0) {\r\n            // Return data is optional\r\n            require(abi.decode(returndata, (bool)), \"SafeERC20: ERC20 operation did not succeed\");\r\n        }\r\n    }\r\n}\r\n\r\n\r\ncontract VaultNFTv4 is ERC721 {\r\n\r\n    string public uri;\r\n\r\n    constructor(string memory name, string memory symbol)\r\n        ERC721(name, symbol){}\r\n    \r\n\r\n  \r\n    \r\n}\r\n\r\ncontract FakeVault is VaultNFTv4{\r\n        using SafeERC20 for ERC20;\r\n        ERC20 public mai;\r\n\r\n\r\n\r\n    mapping (uint256 => address) public owners; // associe un nft a son owner\r\n    mapping (address => uint256) public erc721Balance; // balance de nft d'un owner\r\n    mapping(uint256 => uint256) public _deposit; // deposit dans le vault : vault => montant total dpos\r\n    mapping(uint256 => uint256) public maiDebt; // montant de mai emprunt par une vault : vault => debt\r\n    mapping(address => uint256) public maiBalance; // monta de may dtenu par chaque addresse\r\n\r\n    uint256 vaultCount = 0;\r\n    \r\n\r\n    constructor(address _mai, string memory name, string memory symbol)VaultNFTv4(name, symbol){\r\n        mai = ERC20(_mai); \r\n    }\r\n\r\n\r\n    function createVault() public returns (uint256) {\r\n        uint256 id = vaultCount;\r\n        vaultCount = vaultCount + 1;\r\n        require(vaultCount >= id);\r\n        _mint(msg.sender, id);\r\n        return id;\r\n    }\r\n\r\n\r\n    function borrowToken(uint256 _erc721_Id,uint256 _amount,uint256 _front) public  {\r\n        require(ownerOf(_erc721_Id) == msg.sender, \"You are not the owner of this NFT\");\r\n        require(_deposit[_erc721_Id] - maiDebt[_erc721_Id] >= _amount, \"You don't have enough collateral\");\r\n        mai.safeTransfer( msg.sender, _amount);\r\n        // transfert de token\r\n        maiDebt[_erc721_Id]+=_amount; \r\n    }\r\n\r\n    function depositCollateral(uint256 _erc721_Id,uint256 amount) public {\r\n        require(ownerOf(_erc721_Id) == msg.sender, \"You are not the owner of this NFT\");\r\n        _deposit[_erc721_Id] += amount;\r\n    }\r\n\r\n\r\n    function TransferFrom(address from, address _to, uint256 _erc721_Id) public {\r\n        require(owners[_erc721_Id] == msg.sender, \"You are not the owner of this NFT\");\r\n        owners[_erc721_Id] = _to;\r\n        erc721Balance[from] -= 1;\r\n        erc721Balance[_to] += 1;\r\n    }\r\n\r\n    \r\n    function updateVaultDebt(uint256 vaultId) public view returns (uint256) {\r\n        return maiDebt[vaultId];\r\n    }\r\n\r\n    // msg.sender need to approve the contract address\r\n    function payBackToken( uint256 vaultID, uint256 amount, uint256 _front) public {\r\n        /*if(ownerOf(vaultID) != msg.sender)\r\n            revert(\"You are not the owner of this vault\");\r\n        \r\n        if(maiDebt[vaultID] <= amount)\r\n            revert(\"You don't have enough debt\");\r\n        if(mai.balanceOf(msg.sender) <= amount)\r\n            revert(\"You don't have enough mai\");\r\n        maiDebt[vaultID] -= amount;\r\n\r\n        // allow the contract to repay*/\r\n        mai.safeTransferFrom(msg.sender, address(this),amount); \r\n    }\r\n\r\n    function withdrawCollateral(uint256 vaultID, uint256 amount) public {\r\n        require(owners[vaultID] == msg.sender, \"You are not the owner of this vault\");\r\n        require(_deposit[vaultID] >= amount, \"You don't have enough collateral\");\r\n        require(maiDebt[vaultID] <= _deposit[vaultID] - amount, \"You don't have enough collateral\");\r\n        _deposit[vaultID] -= amount;\r\n        maiBalance[msg.sender] += amount;\r\n    }\r\n\r\n  \r\n\r\n\r\n    // view\r\n    function getMaiBalance(address _owner) public view returns (uint256) {\r\n        return IERC20(mai).balanceOf(_owner);\r\n    }\r\n    function getVaultDebt(uint256 _vaultId) public view returns (uint256) {\r\n        return maiDebt[_vaultId];\r\n    }\r\n    function getVaultCollateral(uint256 _vaultId) public view returns (uint256) {\r\n        return _deposit[_vaultId];\r\n    }\r\n    function getOwner(uint256 _vaultId) public view returns (address) {\r\n        return owners[_vaultId];\r\n    }\r\n\r\n    //faucet\r\n    function getMai(uint256 _amount) public {\r\n        maiBalance[msg.sender] += _amount;\r\n    }\r\n\r\n\r\n    \r\n}",
  "sourcePath": "C:\\Users\\hervi\\Documents\\Cours ESILV\\KS-PI2\\mai-finance\\contracts\\FakeVault.sol",
  "compiler": {
    "name": "solc",
    "version": "0.8.1+commit.df193b15.Emscripten.clang"
  },
  "schemaVersion": "3.4.11",
  "updatedAt": "2023-01-22T15:38:04.657Z",
  "networkType": "ethereum",
  "devdoc": {
    "kind": "dev",
    "methods": {
      "approve(address,uint256)": {
        "details": "See {IERC721-approve}."
      },
      "balanceOf(address)": {
        "details": "See {IERC721-balanceOf}."
      },
      "getApproved(uint256)": {
        "details": "See {IERC721-getApproved}."
      },
      "isApprovedForAll(address,address)": {
        "details": "See {IERC721-isApprovedForAll}."
      },
      "name()": {
        "details": "See {IERC721Metadata-name}."
      },
      "ownerOf(uint256)": {
        "details": "See {IERC721-ownerOf}."
      },
      "safeTransferFrom(address,address,uint256)": {
        "details": "See {IERC721-safeTransferFrom}."
      },
      "safeTransferFrom(address,address,uint256,bytes)": {
        "details": "See {IERC721-safeTransferFrom}."
      },
      "setApprovalForAll(address,bool)": {
        "details": "See {IERC721-setApprovalForAll}."
      },
      "supportsInterface(bytes4)": {
        "details": "See {IERC165-supportsInterface}."
      },
      "symbol()": {
        "details": "See {IERC721Metadata-symbol}."
      },
      "tokenURI(uint256)": {
        "details": "See {IERC721Metadata-tokenURI}."
      },
      "transferFrom(address,address,uint256)": {
        "details": "See {IERC721-transferFrom}."
      }
    },
    "version": 1
  },
  "userdoc": {
    "kind": "user",
    "methods": {},
    "version": 1
  }
}